:04000000020029329F
:01000B0032C2
:0100130032BA
:01001B0032B2
:030023000200A236
:20008200752300752440752500752680E4F553F554755F03F560756102F562F563020026E8
:030026000226F2BD
:2000A200309808859962C29875630132759850758920758DFDD28ED2ACD2AF22854E992002
:2000C20099FDC29922AE82AF837C007D00C3EC9EED64808FF063F08095F050147AE87B0377
:2000E2001ABAFF011BEA4B70F70CBC00E00D80DD22AF82C2B5D2B4852382852483EFF0C21A
:20010200B4D2B5D2B4852382852483E508F0C2B422AE82AF838F04C2B5D2B485238285248C
:2001220083ECF0C2B4C2B5D2B4852382852483EEF0C2B4AE09AC08D2B5D2B5D2B485238218
:20014200852483EEF0C2B4D2B5D2B4852382852483ECF0C2B42275080790000F12019E7EF4
:20016200007F007564008E828F83C007C0061201A7D006D0070EBE00010FC3EE940DEF945E
:200182000040E075080490000F02019ED2B490000DE0F541C2B4E54120E1F122AF08D2B456
:2001A200EFF0C2B422AE82AF83D2B490000D7401F0C2B4C007C00612018ED006D007D2B405
:2001C2008E828F83E4F0C2B4AF64D2B490000DEFF0C2B422AE82AF83D2B490000D7401F01A
:2001E200C2B4C007C00612018ED006D007D2B48E828F83E0F541C2B4E541540F4430F54145
:20020200D2B490000DE4F0C2B485418222852959852B5A852D5BE4F508F50990D6BA1203D3
:200222007875820212038575083075090190008412036BD2B490000D7401F0C2B412018E52
:20024200D2B4900005E0F541C2B4E541540F4430F541D2B490000DE4F0C2B4854182120AF1
:2002620001D2B490000D7401F0C2B412018ED2B4900004E0F541C2B4E541540F4430F54103
:20028200D2B490000DE4F0C2B4854182120A01902D4875F080120A67D2B490000D7401F095
:2002A200C2B412018ED2B4900003E0F541C2B4E541540F4430F541D2B490000DE4F0C2B4E0
:2002C200854182120A01D2B490000D7401F0C2B412018ED2B4900002E0F541C2B4E54154FA
:2002E2000F4430F541D2B490000DE4F0C2B4854182120A01902D4875F080120A67D2B490EE
:20030200000D7401F0C2B412018ED2B4900001E0F541C2B4E541540F4430F541D2B4900066
:200322000DE4F0C2B4854182120A01D2B490000D7401F0C2B412018ED2B4900000E0F54134
:20034200C2B4E541540F4430F541D2B490000DE4F0C2B4854182120A01855929752A0085F5
:200362005A2B752C00855B2D2285822985832A85082B85092C2285822F858330850831857F
:20038200093222E582FF24F7500122EF60068F067F0080047E017F008E2D22E582FF24FCBC
:2003A200404EEF2F9003AA7380068014802280307F487533F0753400753540753601803E17
:2003C2007F287533407534017535F0753600802E7F887533F0753400753540753601801E73
:2003E2007FE87533407534017535F0753600800E7F487533F07534007535407536018F08FA
:200402007582360200F3AE82AF83C2B5D2B4852382852483742AF0C2B4D2B5D2B4852382C8
:200422008524838F05EDF0C2B4D2B5D2B4852382852483EEF0C2B4D2B5D2B4852382852410
:2004420083E50BF0C2B4D2B5D2B4852382852483E50AF0C2B4C2B5D2B48523828524837442
:200462002BF0C2B4D2B5D2B4852382852483E509F0C2B4D2B5D2B4852382852483E508F0F2
:20048200C2B4D2B5D2B4852382852483E50DF0C2B4D2B5D2B4852382852483E50CF0C2B46F
:2004A200227533F0753400753540753601C2B4D2B5C2B5D2B4852382852483E4F0C2B4D2D5
:2004C200B5D2B4852382852483E4F0C2B4D2B5D2B4852382852483E4F0C2B4D2B5D2B48500
:2004E2002382852483E4F0C2B49000C81200C77508007582011200F39000321200C775081C
:20050200007582281200F390000A1200C77508237582C01200F37508117582C11200F3C2D9
:20052200B5D2B485238285248374C5F0C2B4D2B5D2B4852382852483743DF0C2B4D2B5D2B6
:20054200B48523828524837430F0C2B47508AA7582C71200F37508887582361200F3C2B5ED
:20056200D2B4852382852483743AF0C2B4D2B5D2B48523828524837455F0C2B4D2B5D2B4EA
:20058200852382852483E4F0C2B475081B7509009000B11201137508077582B71200F37590
:2005A20008007582111200F39000961200C77508007582291200F39001F41200C7E53324E9
:2005C200FFF50AE53434FFF50BE53524FFF50CE53634FFF50DE4F508F509900000020408C4
:2005E200AE82AF8374012EF50AE43FF50B74012565F50CE43566F50D8565088566098E825B
:200602008F83120408C2B5D2B4852382852483742CF0C2B4D2B5D2B4852382852483E5689F
:20062200F0C2B4D2B4852382852483E567F0C2B422AE82AF83C3EE94F0EF9400500BC3E585
:20064200699440E56A9401400122E56B2EFCE56C3FFD1CBCFF011DC3EC94F0ED9400400A1A
:2006620074F0C39EF56BE49FF56CE56D2569FCE56E356AFD1CBCFF011DC3EC9440ED9401AA
:20068200400D7440C39569F56D7401956AF56EE56B2EFCE56C3FFDEC24FFF50AED34FFF533
:2006A2000BE56D2569FCE56E356AFDEC24FFF50CED34FFF50D856908856A098E828F83120E
:2006C2000408C2B5D2B4852382852483742CF0C2B4D2B5AF70AD6DAE6EED4E6030AB6BAC4A
:2006E2006CEB4C6021D2B4852382852483EFF0C2B4D2B4852382852483E56FFAF0C2B41BF8
:20070200BBFF011C80DB1DBDFF011E80CC22AE82AF838F05E4F508F509750AEFF50B750C7B
:200722003F750D01900000C006C005120408D005D006C2B5D2B4852382852483742CF0C26C
:20074200B4D2B5D2B4852382852483EDF0C2B4D2B4852382852483EEF0C2B47CB07F048CC2
:20076200028F031CBCFF011FEA4B60667B10D2B4852382852483EDF0C2B4D2B48523828502
:200782002483EEF0C2B4D2B4852382852483EDF0C2B4D2B4852382852483EEF0C2B4D2B477
:2007A200852382852483EDF0C2B4D2B4852382852483EEF0C2B4D2B4852382852483EDF0A5
:2007C200C2B4D2B4852382852483EEF0C2B4DB9E808D7F3F8F041FEC601AD2B485238285E0
:2007E2002483EDF0C2B4D2B4852382852483EEF0C2B480E02285827985837AC3E57994F0A4
:20080200E57A648094805059C3E5719440E57264809481504CAC787D008C088D099000069C
:20082200C005C0041227B3AA82AB83D004D005EA2579FAEB357AFB1ABAFF011BEB20E72125
:20084200EDC40354F8CCC403CC6CCC54F8CC6CFDEC2571FCED3572FD1CBCFF011DED30E776
:2008620001227401B5780474018001E4FDFCE574B57608E575B57703D38001C392007B00A1
:20088200BB0600400122BB0505757B008030857308750900900005C005C004C0031227B382
:2008A200A882A983D003D004D005E8243DF8E93428F9EB28F582E439F583E493F57B8BF064
:2008C200E578A42579F8E57A35F0F9887C897D7A00BA080040030209FDE57B20E003020903
:2008E2006BED60408B067F00EE2579F582EF357AF5838A067F00EE2571F565EF3572F566F7
:20090200857467857568C005C004C003C002C001C0001205E2D000D001D002D003D004D0A1
:20092200050209F38AF0E578A42571F569E57235F0F56AAE787F008E6B8F6C8E6D8F6E8552
:20094200746F857570857C82857D83C005C004C003C002C001C000120633D000D001D002F3
:20096200D003D004D0050209F33000030209F3EC603F8B067F00EE2579F582EF357AF58316
:200982008A067F00EE2571F565EF3572F566857667857768C005C004C003C002C001C00022
:2009A2001205E2D000D001D002D003D004D00580408AF0E578A42571F569E57235F0F56A43
:2009C200AE787F008E6B8F6C8E6D8F6E85766F85777088828983C005C004C003C002C001C9
:2009E200C000120633D000D001D002D003D004D005E57BC313F57B0A0208D30B020882AF28
:200A020082BF0A22AD2DE4C40354F8CDC403CD6DCD54F8CD6DFEED252BF52BEE352CF52CAA
:200A2200E4F529F52A22BF0D0122852B71852C728F73852F74853075853176853277852DDE
:200A420078852982852A831207F7852D087509009000061227B3AE82AF83EE2529F529EF45
:200A6200352AF52A22AD82AE83AFF07B007C00EB2DF8EC3EF98F02888289838AF012281D33
:200A8200FA60208A82C007C006C005C004C003120A01D003D004D005D006D0070BBB00CF1A
:200AA2000C80CC227590F07563007590F08590215321F074F0B521028004E56360EC1202F6
:200AC2000F90000A1200C7E59054F0F52174F0B52104E56360E89000011200C7E59054F0D2
:200AE200F52174F0B52104E56360D3E5636003020BB57590FEE59054F0F52174F0B52102AA
:200B02008005752200803D7590FDE59054F0F52174F0B52102800575220180287590FBE543
:200B22009054F0F52174F0B52102800575220280137590F7E59054F0F52174F0B521028055
:200B4200B175220374E0B52115E52275F004A42438F582742D35F0F583E493F5822274D090
:200B6200B52118E52275F004A42438FE742D35F0FF8E828F83A3E493F5822274B0B521196A
:200B8200E52275F004A42438FE742D35F0FF8E828F83A3A3E493F58222E52275F004A42470
:200BA20038FE742D35F0FF8E828F83A3A3A3E493F58222756300E56224C0F58222AF82BF91
:200BC20030005003020C50EF24B95003020C50EF24D0FF240A83F582EF241B83F583E4732B
:200BE2001014181C2024282C303450505050505050383C4044484C0C0C0C0C0C0C0C0C0C77
:200C02000C0C0C0C0C0C0C0C0C0C0C0C0C0C7F00803E7F01803A7F0280367F0380327F04C5
:200C2200802E7F05802A7F0680267F0780227F08801E7F09801A7F0A80167F0B80127F0C76
:200C4200800E7F0D800A7F0E80067F0F80027F008F8222AE82AF83C3740F9EE49F500302FB
:200C62000CD2EE240A83F582EE241483F583E47392969A9EA2A6AAAEB2B6BABEC2C6CACE06
:200C82000C0C0C0C0C0C0C0C0C0C0C0C0C0C0C0C7F30803E7F31803A7F3280367F338032F0
:200CA2007F34802E7F35802A7F3680267F3780227F38801E7F39801A7F4180167F42801270
:200CC2007F43800E7F44800A7F4580067F4680027F308F8222E582FFC4540FFE8E4E754FD7
:200CE20000534E0F754F00854E82854F83C007120C55858252120A01D0077E00740F5FF5F6
:200D02004E8E4F854E82854F83120C55858252020A01AE82E583FFC4540FF54E754F005309
:200D22004E0F754F00854E82854F83C007C006120C55858252902D4A75F080120A67855245
:200D420082120A01D006D0078F4E754F00534E0F754F00854E82854F83C007C006120C5584
:200D6200858252120A01D006D0078E4EEFC4C54EC4540F654EC54E540FC54E654EC54EF58E
:200D82004F534E0F754F00854E82854F83C007C006120C55858252120A01D006D0078E4EE3
:200DA2008F4F534E0F754F00854E82854F83120C55858252020A01AE82AF83C2B48E828FE3
:200DC20083E508F0D2B422AF827D007E00C2B48D828E83EFF0D2B40DBD00010EC374FE9D37
:200DE20074FF9E50E822AE82AF83C2B48E828F83E0F541D2B48541822275820412039DE4F5
:200E0200F508F50990D6BA120378758203120385900000120710E4F508F509900000020367
:200E22006B120DFBE4F508F50990F800120378902D4D75F080120A67902D5B75F080120AAC
:200E4200679000C81200C7020DFBE4F538F539F508F50990FFFF120378120AA6858237E4B5
:200E6200F508F50990FFFF120378853782120A01853782120BBFAF82EFC454F0FEE4423861
:200E8200EE4239120AA6858237E4F508F50990FFFF120378853782120A01853782120BBF78
:200EA200AF828F06E44238EE4239120AA6858237E4F508F50990FFFF120378853782120A4F
:200EC20001853782120BBFAF82E4C454F0CFC4CF6FCF54F0CF6FFEEF4238EE4239120AA624
:200EE200858237E4F508F50990FFFF120378853782120A01853782120BBFAF827E00EF4263
:200F020038EE423922E4F508F50990FFFF120378753A00120AA6858237E4F508F50990FFF5
:200F2200FF120378853782120A01853782120BBFE582C454F0423A120AA6858237E4F508E2
:200F4200F50990FFFF120378853782120A01853782120BBFE582423A22753E00753B001287
:200F62000DFBE4F508F50990FFFF120378902D6575F080120A67902D7A75F080120A6790B4
:200F82002D8475F080120A67902D8E75F080120A67852D087509009000061227B3AE82AFEA
:200FA20083E529C39EF529E52A9FF52A85295C852B5D852D5EE4F508F50990FFFF12037831
:200FC200120AA6858237855C29752A00855D2B752C00855E2D853782120A017431B53702BA
:200FE200800E7432B53702800F7433B5371A8010753B01753E018016753B02753E01800E12
:20100200753B04753E018006120E23753E00E53E7003020F6122E4F53EF53CF53D120DFB2C
:20102200902DA775F080120A67E52D75F018A4FEAFF0E529C39EF529E52A9FF52A85295CAE
:20104200852B5D852D5EE4F538F539F508F50990FFFF120378120AA6858237855C29752A73
:2010620000855D2B752C00855E2D853782120A0185295C852B5D852D5E853782120BBFAF65
:2010820082EFC454F0FEE44238EE4239120AA6858237855C29752A00855D2B752C00855ED6
:2010A2002D853782120A0185295C852B5D852D5E853782120BBFAF828F06E44238EE4239D8
:2010C200120AA6858237855C29752A00855D2B752C00855E2D853782120A0185295C852B92
:2010E2005D852D5E853782120BBFAF82E4C454F0CFC4CF6FCF54F0CF6FFEEF4238EE423958
:20110200120AA6858237855C29752A00855D2B752C00855E2D853782120A0185295C852B51
:201122005D852D5E853782120BBFAF827E00EF4238EE423985383C85393DE53C453D700995
:20114200120E23753E0002101F753E0122754100753F00120DFB902DC375F080120A6775AF
:201162008255120DC975085590FFFF120DB9E4F508F5099007E0120378902DF275F08012ED
:201182000A679000C81200C7120DFB902E0375F080120A677E007F008E828F83C007C006BC
:2011A200120DE8858241D006D0070EBE00010F7455B5410474018001E4FD6009C374FE9E7F
:2011C20074FF9F50D3ED601190FFFFC007C006120DE8858241D006D0077455B541028061C1
:2011E200E4F508F50990F800C007C006120378902E2E75F080120A679000641200C7902E8D
:201202004C75F080120A67D006D007EE24FFF582EF34FFF583120D14902E5775F080120A00
:2012220067854182120CD7E4F508F50990FFFF120378902E5C75F080120A679000C8020032
:20124200C7E4F508F5099007E0120378902E7475F080120A679000C81200C7120DFB902E3F
:201262009075F080120A677582AA120DC97508AA90FFFF120DB9E4F508F5099007E01203F3
:2012820078902DF275F080120A679000C81200C7120DFB902EBF75F080120A677E007F0090
:2012A2008E828F83C007C006120DE8858241D006D0070EBE00010F74AAB541047401800197
:2012C200E4FD6009C374FE9E74FF9F50D3ED601190FFFFC007C006120DE8858241D006D04C
:2012E2000774AAB541028061E4F508F50990F800C007C006120378902EEA75F080120A675D
:201302009000641200C7902E4C75F080120A67D006D007EE24FFF582EF34FFF583120D148A
:20132200902E5775F080120A67854182120CD7E4F508F50990FFFF120378902E5C75F080F8
:20134200120A679000640200C7E4F508F5099007E0120378902F0875F080120A67902F2456
:2013620075F080120A679000641200C7E4F508F50990FFFF120378902E5C75F080120A67BA
:201382009000640200C7E4F555F556F557F558F542F543F544F545F546F547F548F549F5B3
:2013A2004AF54BF54CF54D120DFB902F3A75F080120A67E52D75F018A4FEAFF0E529C39E64
:2013C200F529E52A9FF52A120E4C853842853943120DFB902F6975F080120A67E52D75F093
:2013E20018A4FEAFF0E529C39EF529E52A9FF52A120E4C853846853947120F5B120DFB121C
:201402001018C3E5429546E54395475063853B08750900853C82853D831227B3AE82AF830A
:20142200EE2546FCEF3547FD8C558D56755700755800C374FF955574FF9556E49557E495C9
:201442005850087548FF7549FF800AEE2546F548EF3547F549E548C39546F53CE549954792
:20146200F53DE53C2542F544E53D3543F5458061853B08750900853C82853D831227B3AE5A
:2014820082AF83EE2542FCEF3543FD8C558D56755700755800C374FF955574FF9556E4958D
:2014A20057E4955850087544FF7545FF800AEE2542F544EF3543F545E544C39542F53CE5A7
:2014C200459543F53DE53C2546F548E53D3547F549C3E5429546E5439547504EC3E546952C
:2014E20044E5479545504385444A85454B85484C85494DC3E54C9546E54D9547406D854A58
:2015020082854B83120DE8858241854108854C82854D83120DB9154A74FFB54A02154B150F
:201522004C74FFB54C02154D80C985424A85434B85464C85474DC3E548954CE549954D40C7
:201542002A854A82854B83120DE8858241854108854C82854D83120DB9054AE4B54A0205E5
:201562004B054CE4B54CCF054D80CB120DFBE4F508F5099007E0120378902F9D75F080122C
:201582000A679000641200C7E4F508F50990FFFF120378902E5C75F080120A679000640299
:2015A20000C7E4F555F556F557F558F542F543F544F545F53CF53DF550F551F553F554F5FA
:2015C20048F549F53F120DFB902FAF75F080120A67E52D75F018A4FEAFF0E529C39EF52902
:2015E200E52A9FF52A120E4C853842853943120DFB121018120DFB902FD675F080120A6745
:20160200E52D75F00CA4FEAFF0E529C39EF529E52A9FF52A120F07853A50755100E53C2567
:2016220042FEE53D3543FF8E558F56755700755800AC42AD437E007F00C3E5559CE5569D22
:20164200E5579EE5589F50147544FF74FFF545C39542F53C74FF9543F53D800CE53C2542AD
:20166200F544E53D3543F545AE42AF438E048F05C3E5449CE5459D404CE53F70488E828FFD
:2016820083C007C006120DE8858241D006D007AC417D00ECB5501AEDB5511674FFB553093A
:2016A200B554067548017549000553E4B5530205548E048F05BCFF06BDFF03753F010EBED7
:2016C20000AA0F80A7E5534554700D7401B5480614B549028002805F120DFBE4F508F509F4
:2016E2009007E0120378902FF375F080120A67855082120CD7902FF775F080120A67E55328
:201702004554600B855382855483120D1480167401B5480614B5490280028009902FFF757A
:20172200F080120A6790300775F080120A6790012C1200C7021D74120DFB902FF375F080AB
:20174200120A67855082120CD790300F75F080120A67854282854383120D1490302B75F06A
:2017620080120A67854482854583120D1490012C1200C7120DFB902E5C75F080120A6790D7
:2017820000C80200C7E4F54CF54DF53FF546F54785424A85434B120DFB7582021203859043
:2017A200302F75F080120A67C3E53C940AE53D9400500302185675460A7547007E007F00E7
:2017C200854A82854B83C007C006120D14902E5775F080120A67D006D0077C007D00AA3B9B
:2017E2007B00C3EC9AED64808BF063F08095F0502B854A82854B83C007C006C005C0041238
:201802000DE8120CD7D004D005D006D007054AE4B54A02054B0CBC00C50D80C290302F75C2
:20182200F080C007C006120A67D006D007153C74FFB53C02153D0EBE00010FC3EE940AEF56
:201842006480948050030217C2054CE4B54C02054D0219BBE53C453D7003021945C3E53CA6
:20186200940AE53D94004003021945853C46853D47E53C453D6060854A82854B83120D1425
:20188200902E5775F080120A677E007F00AC3B7D00C3EE9CEF64808DF063F08095F0502300
:2018A200854A82854B83C007C006120DE8120CD7D006D007054AE4B54A02054B0EBE00CD2F
:2018C2000F80CA90302F75F080120A67153C74FFB53C02153D809AE5484549605C854A826B
:2018E200854B83120D14902E5775F080120A677E007F008E048F05C3EC9548ED95495023F6
:20190200854A82854B83C007C006120DE8120CD7D006D007054AE4B54A02054B0EBE00D3C8
:201922000F80D0E54AC39548F54AE54B9549F54B90302F75F080120A67054CE4B54C7A05DE
:201942004D8076E53C453D7070E5484549606A853C46853D47854A82854B83120D14902E95
:201962005775F080120A677E007F008E048F05C3EC9548ED95495023854A82854B83C0074E
:20198200C006120DE8120CD7D006D007054AE4B54A02054B0EBE00D30F80D090302F75F000
:2019A20080120A67054CE4B54C02054DE54AC39548F54AE54B9549F54B7508FA75090090B7
:2019C200000012036B90303175F080120A67854C82854D83120D14120AA68582377430B5F8
:2019E200370280127431B5370280657445B53703021AEF021B06753E01E53C453D6006759A
:201A02003F00021B4A753F00853B087509008546828547831227B3AE82AF83E54AC39EF5B5
:201A22004AE54B9FF54BE546253CF53CE547353DF53D154C74FFB54C02154D120DFB9030AB
:201A42006275F080120A679000C81200C7021B4AC37401954CE4954D5049753F00740A2553
:201A620046FEE43547FF853B087509008E828F83C007C0061227B3AC82AD83D006D007E5F0
:201A82004AC39CF54AE54B9DF54BE54C24FEF54CE54D34FFF54DEE253CF53CEF353DF53D01
:201AA200021B4A753F00120DFB90307075F080120A679000C81200C7853B08750900854615
:201AC200828547831227B3AE82AF83E54AC39EF54AE54B9FF54B154C74FFB54C02154DE5E9
:201AE20046253CF53CE547353DF53D805B120DFB90307C75F080120A679000C81200C775FD
:201B02003F018044753F00120E23E54645476038853B087509008546828547831227B3AEFD
:201B220082AF83E54AC39EF54AE54B9FF54B154C74FFB54C02154DE546253CF53CE54735BA
:201B42003DF53DE4F546F547E53F700302179822E4F555F556F557F558F542F543F544F5A0
:201B620045F53BF53CF53DF548F549120DFB90309575F080120A67E52D75F018A4FEAFF069
:201B8200E529C39EF529E52A9FF52A120E4C853842853943120F5B120DFB121018AE3B7F45
:201BA20000853C08853D098E828F83C007C0061227B3AC82AD83D006D007EC2542FAED357A
:201BC20043FB8A558B56755700755800A842A9437A007B00C3E55598E55699E5579AE55825
:201BE2009B50087544FF7545FF8012EC2542FCED3543FDEC24FFF544ED34FFF545E544C3AE
:201C02009542FCE5459543FD0CBC00010D8E088F098C828D83C007C006C005C00412278AF5
:201C220085823C85833DD004D005D006D0078E088F098C828D831227D085824885834902CD
:201C42001787AE82AF83C007C006120DE8858241120DFB90302F75F080120A67D006D00788
:201C62008E828F83C007C006120D14902E5775F080120A67854182120CD79030C375F0805E
:201C8200120A67E52D75F00CA4FCADF0E529C39CF529E52A9DF52A120F07D006D007853A15
:201CA200088E828F83120DB99030D775F080120A679030F875F080020A67753F00754000A8
:201CC200753E00120DFB902FAF75F080120A67E52D75F018A4FEAFF0E529C39EF529E52AF3
:201CE2009FF52A120E4CE5407052E53F704E853882853983121C44120AA68582377431B5A3
:201D0200370280077445B53727801D753E0174FFB53808B53905754001801B0538E4B5382A
:201D2200020539754000800E753E01753F018006753E00120E23E53E60B480AA120DFB744A
:201D420001B54014E4F508F50990F80012037890310075F080120A67E4F508F50990FFFFED
:201D620012037890310F75F080120A679000C80200C7E4F546F547F54CF54D120DFB8542BC
:201D82004A85434B854A82854B83120DE8858241AE417F00EEB55006EFB551028021C3E54A
:201DA2004A9544E54B95455016054AE4B54A02054B854A82854B83120DE885824180D1AE18
:201DC200417F00EEB55006EFB551028058E544B54A53E545B54B4E120DFB902FF375F080D5
:201DE200120A67855082120CD790312875F080120A67854282854383120D1490302B75F0AA
:201E020080120A67854482854583120D149000C81200C7120DFB902E5C75F080120A679095
:201E220000640200C7120DFBE4F508F5099007E0120378902FF375F080120A6785508212F3
:201E42000CD790314675F080120A679000C81200C7854A46854B47120DFB85464A85474B8B
:201E6200854A82854B83120D14755307755400054CE4B54C02054D74FFB54A05B54B02806E
:201E82004C054AE4B54A02054B854A82854B83120DE8858241AE417F00EEB5501FEFB55108
:201EA2001B155374FFB55302155490302F75F080120A67854A82854B83120D14C3E54A9502
:201EC20044E54B95455006E553455470B47508FA75090090000012036B758202120385E4EB
:201EE200F508F50990FFFF12037890303175F080120A67854C82854D83120D14120AA6854F
:201F020082377430B5370280137431B53703021FBF7445B5370302203F022053C3E54A9568
:201F220044E54B9545401E120DFB90316B75F080120A679000C81200C7154C74FFB54C023D
:201F4200154D02205F054AE4B54A02054B854A82854B83120DE8858241AE417F00EEB550C4
:201F62000AEFB55106854A46854B47C3E54A9544E54B9545500CAE417F00EEB550C7EFB531
:201F820051C3C3E54A9544E54B9545500302205FAE417F00EEB55007EFB5510302205F128F
:201FA2000DFB90316B75F080120A679000C81200C7154C74FFB54C02154D02205F7401B56E
:201FC2004C0614B54D028002801E120DFB90316B75F080120A679000C81200C7154C74FFC2
:201FE200B54C02154D02205F85464A85474BE4F553F554C3E5539408E5549400502B154A1A
:2020020074FFB54A02154B854A82854B83120DE8858241AE417F00EEB550D8EFB551D405F0
:2020220053E4B553CE055480CA854A46854B47E54C24FEF54CE54D34FFF54D8020120DFBCD
:20204200902E5C75F080120A679000C81200C7800C120E23154C74FFB54C02154D7445B555
:20206200370122021E5922E4F555F556F557F558F542F543F544F545F53BF53CF53DF5509D
:20208200F551120DFB90317875F080120A67E52D75F018A4FEAFF0E529C39EF529E52A9F32
:2020A200F52A120E4C853842853943120DFB121018120DFB9031A075F080120A67E52D75D5
:2020C200F00CA4FEAFF0E529C39EF529E52A9FF52A120F07853A50755100E53C2542FEE5FF
:2020E2003D3543FF8E558F56755700755800AC42AD437E007F00C3E5559CE5569DE5579EA3
:20210200E5589F50147544FF74FFF545C39542F53C74FF9543F53D800CE53C2542F544E59E
:202122003D3543F545021D7475820412039DE4F508F50990D6BA12037875820312038590BE
:202142000000120710E4F508F50990000002036B120DFB9031BE75F080120A679031C97575
:20216200F080120A679031D375F080120A679031DD75F080120A679031E775F080120A6758
:202182009031F375F080120A67E58730E042AF8DBFE802800FBFF4028015BFFA02801BBF90
:2021A200FD3C80219031FD75F080120A67802F90320375F080120A67802490320975F080ED
:2021C200120A67801990320F75F080120A67800E74FDB58D0990321575F080120A6790325D
:2021E2001C75F080120A67E52D75F006A4FEAFF0E529C39EF529E52A9FF52A120AA6858278
:20220200377431B53702801C7432B5370280297433B5370280367434B5370280437435B517
:2022220037698050753E01758DE8753F0190322275F080120A678065753E01758DF4753F4A
:202242000190322575F080120A678051753E01758DFA753F0190322875F080120A67803DE7
:20226200753E01758DFD753F0190322B75F080120A678029753E01758DFD438780753F0144
:2022820090322E75F080120A678012753E0090323175F080120A67120E23753F00E53F70B9
:2022A200030221559000C81200C712212AE4F508F50990FFFF12037890323475F080120A22
:2022C200679000C80200C7120DFB90324D75F080120A6790325A75F080120A6790326175C7
:2022E200F080120A6790326875F080120A67E4B5600280077401B56016800B90327375F010
:2023020080120A67800990327675F080120A6790321C75F080120A67E52D75F006A4FEAF7B
:20232200F0E529C39EF529E52A9FF52A120AA68582377431B5370280077432B5372A8014E7
:20234200753E01756000753F0190322275F080120A678026753E01756001753F0190322525
:2023620075F080120A678012753E0090323175F080120A67120E23753F00E53F70030222A1
:20238200CC9000C81200C712212AE4F508F50990FFFF12037890323475F080120A679000F9
:2023A200C80200C7120DFB90327975F080120A6790328375F080120A6790328D75F08012DA
:2023C2000A6790329675F080120A6790326875F080120A67E4B56102800E7401B5610280A1
:2023E200127402B5612180169032A075F080120A6780149032A675F080120A67800990320D
:20240200AB75F080120A6790321C75F080120A67E52D75F006A4FEAFF0E529C39EF529E531
:202422002A9FF52A120AA68582377431B53702800E7432B53702801B7433B5373E80287574
:202442003E01756100753F0190322275F080120A67803A753E01756101753F01903225750E
:20246200F080120A678026753E01756102753F0190322875F080120A678012753E00903227
:202482003175F080120A67120E23753F00E53F70030223A99000C81200C712212AE4F508D6
:2024A200F50990FFFF12037890323475F080120A679000C80200C7120DFB9032B175F08010
:2024C200120A67E52D75F006A4FEAFF0E529C39EF529E52A9FF52A120AA6858237120A0142
:2024E2009000C81200C7020DFB120DFB9032D175F080120A679032E075F080120A679032BE
:20250200F875F080120A6790330475F080120A6790331375F080120A67120AA68582377478
:2025220031B53702801C7432B53702801D7433B53702801E7434B53702801F7445B537445C
:202542008020122152753F0080401222C9753F0080381223A6753F0080301224B9753F0095
:20256200802812212AE4F508F50990FFFF12037890310F75F080120A679000C81200C7757C
:202582003F018006120E23753F00E53F70030224EB22753700852582852683D2B474C0F002
:2025A200C2B4120DFBE4F508F5099007E012037890331D75F080120A6790333575F080126F
:2025C2000A67E4F508F50990FFFF12037890334375F080120A6790335275F080120A679013
:2025E200335C75F080120A6790336775F080120A6790337175F080120A6790337B75F08091
:20260200120A6790338575F080120A67E4F508F50990FFFF1203787582011203857508304C
:2026220075090190000312036B90338F75F080120A6712020F120AA68582377431B5370395
:202642000226D27441B5370280267442B53702802F7443B5370280387444B53702804174AA
:2026620045B53702804A7446B5370280530226E2852582852683D2B47488F0C2B402114F32
:20268200852582852683D2B47483F0C2B4021388852582852683D2B474C6F0C2B40215A423
:2026A200852582852683D2B474A1F0C2B4021B52852582852683D2B47486F0C2B4021CBC34
:2026C200852582852683D2B4748EF0C2B4022069852582852683D2B474F9F0C2B40224EB61
:2026E200852582852683D2B474FFF0C2B4020E23C2B5C2B41200AE1201588525828526837A
:20270200D2B474FEF0C2B49000641200C7852582852683D2B474FCF0C2B49000641200C709
:20272200852582852683D2B474F8F0C2B49000641200C7852582852683D2B474F0F0C2B46E
:202742009000641200C7852582852683D2B474E0F0C2B49000641200C7852582852683D217
:20276200B474C0F0C2B49000641200C7C2B4D2B51204A3852582852683D2B474F9F0C2B4D3
:08278200120DFB12259480FBEF
:20283D0000000000003E5B4F5B3E3E6B4F6B3E1C3E7C3E1C183C7E3C181C577D571C1C5E26
:20285D007F5E1C00183C1800FFE7C3E7FF0018241800FFE7DBE7FF30483A060E26297929B5
:20287D0026407F050507407F05253F5A3CE73C5A7F3E1C1C08081C1C3E7F14227F22145FC6
:20289D005F005F5F06097F017F006689956A606060606094A2FFA29408047E040810207E73
:2028BD00201008082A1C08081C2A08081E101010100C1E0C1E0C30383E3830060E3E0E06DD
:2028DD00000000000000005F00000007000700147F147F14242A7F2A1223130864623649A8
:2028FD005620500008070300001C2241000041221C002A1C7F1C2A08083E0808008070305C
:20291D00000808080808000060600020100804023E5149453E00427F400072494949462164
:20293D0041494D331814127F1027454545393C4A4949314121110907364949493646494989
:20295D00291E000014000000403400000008142241141414141400412214080201590906BE
:20297D003E415D594E7C1211127C7F494949363E414141227F4141413E7F494949417F0934
:20299D000909013E414151737F0808087F00417F41002040413F017F081422417F4040404E
:2029BD00407F021C027F7F0408107F3E4141413E7F090909063E4151215E7F09192946261E
:2029DD004949493203017F01033F4040403F1F2040201F3F4038403F63140814630304789F
:2029FD0004036159494D43007F4141410204081020004141417F0402010204404040404011
:202A1D00000307080020545478407F284444383844444428384444287F38545454180008B9
:202A3D007E090218A4A49C787F0804047800447D40002040403D007F1028440000417F409C
:202A5D00007C047804787C080404783844444438FC1824241818242418FC7C0804040848E1
:202A7D005454542404043F44243C4040207C1C2040201C3C4030403C44281028444C9090DE
:202A9D00907C4464544C4400083641000000770000004136080002010204023C2623263C1A
:202ABD001EA1A161123A4040207A3854545559215555794122545478422155547840205445
:202ADD005579400C1E5272123955555559395454545939555454580000457C410002457D58
:202AFD00420001457C407D1211127DF0282528F07C545545002054547C547C0A097F493266
:202B1D00494949323A4444443A324A4848303A4141217A3A42402078009DA0A07D3D424249
:202B3D00423D3D4040403D3C24FF2424487E4943662B2FFC2F2BFF0929F620C0887E090397
:202B5D0020545479410000447D413048484A32384040227A007A0A0A727D0D19317D2629A4
:202B7D00292F28262929292630484D4020380808080808080808382F10C8ACBA2F10283414
:202B9D00FA00007B000008142A142222142A1408AA005500AAAA55AA55AA000000FF00104B
:202BBD001010FF00141414FF001010FF00FF1010F010F0141414FC001414F700FF0000FF1B
:202BDD0000FF1414F404FC141417101F10101F101F1414141F00101010F0000000001F1037
:202BFD001010101F10101010F010000000FF101010101010101010FF10000000FF14000078
:202C1D00FF00FF00001F10170000FC04F414141710171414F404F40000FF00F7141414149F
:202C3D00141414F700F7141414171410101F101F141414F4141010F010F000001F101F00D6
:202C5D0000001F14000000FC140000F010F01010FF10FF141414FF141010101F0000000058
:202C7D00F010FFFFFFFFFFF0F0F0F0F0FFFFFF0000000000FFFF0F0F0F0F0F38444438440A
:202C9D00FC4A4A4A347E02020606027E027E0263554941633844443C04407E201E200602B0
:202CBD007E020299A5E7A5991C2A492A1C4C7201724C304A4D4D303048784830BC625A4656
:202CDD003D3E494949007E0101017E2A2A2A2A2A44445F444440514A444040444A51400083
:202CFD0000FF0103E080FF000008086B6B083612362436060F090F0600001818000000101C
:202D1D0010003040FF0101001F01011E00191D1712003C3C3C3C0000000000313437453274
:202D3D0035383033363946414243443A003078000A202020496E76616C69640A0A00202080
:202D5D002020496E707574000A53656C65637420446174610A547970653A0A0A0028312986
:202D7D0020427974650A0028322920576F72640A0028332920446F75626C650A20202020A6
:202D9D00576F72640A0A20205F000A456E74657220446174610A53697A653A0A0A202030C2
:202DBD00785F5F5F5F000A57726974696E6720307835350A746F20616C6C0A65787465726A
:202DDD006E616C2052414D0A6C6F636174696F6E732E0A0A0057726974650A636F6D706C53
:202DFD006574652E0A000A566572696679696E6720616C6C0A52414D206C6F636174696F35
:202E1D006E730A657175616C20307835352E0A0A003173742052414D20636865636B0A7569
:202E3D006E7375636365737366756C2E0A0A004572726F722061743A0A003A2030780052EE
:202E5D00657475726E696E6720746F0A6D61696E206D656E752E003173742052414D206399
:202E7D006865636B0A7375636365737366756C2E0A0A000A57726974696E672030784141D6
:202E9D000A746F20616C6C0A65787465726E616C2052414D0A6C6F636174696F6E732E0A54
:202EBD000A000A566572696679696E6720616C6C0A52414D206C6F636174696F6E730A6590
:202EDD007175616C20307841412E0A0A00326E642052414D20636865636B0A756E7375633C
:202EFD006365737366756C2E0A0A00326E642052414D20636865636B0A7375636365737359
:202F1D0066756C2E0A0A0052414D20636865636B0A636F6D706C6574652E0A0A000A456EAB
:202F3D0074657220736F757263650A7374617274696E672052414D0A616464726573733AD8
:202F5D000A0A0A202030785F5F5F5F000A456E7465720A64657374696E6174696F6E0A73A1
:202F7D0074617274696E672052414D0A616464726573733A0A0A0A202030785F5F5F5F008F
:202F9D000A4D6F766520636F6D706C6574652E0A0A000A456E7465720A7374617274696EA1
:202FBD00672052414D0A616464726573733A0A0A202030785F5F5F5F000A456E74657220C3
:202FDD007365617263680A76616C75653A0A0A202030785F5F000A30780020666F756E6455
:202FFD000A0030783130303030000A74696D65732E00206E6F740A666F756E6420696E0A1F
:20301D0065787465726E616C2052414D0A00202D0A000A002020283029202D204E657874F8
:20303D0020506167650A2020283129202D205072657620506167650A2020284529202D2016
:20305D00454E440A000A456E64206F6620446174612E00456E64206F662044617461000AE4
:20307D0052657475726E696E6720746F0A4D61696E204D656E752E000A456E746572207365
:20309D006F757263650A7374617274696E672052414D0A616464726573733A0A0A202030D1
:2030BD00785F5F5F5F000A0A4E65772076616C75653A0A202030785F5F000A0A0A0A283119
:2030DD00292045646974206E6578740A52414D206C6F636174696F6E0A0A002845292045B3
:2030FD006E64000A456E64206F6620646174612E0A000A52657475726E696E6720746F0A04
:20311D006D61696E206D656E752E00206E6F740A666F756E6420696E0A616464726573736C
:20313D002072616E67650A0A0020666F756E642061740A74686520666F6C6C6F77696E67C4
:20315D000A6164647265737365733A0A0A00456E64206F6620446174612E000A456E7465D2
:20317D00720A7374617274696E672052414D0A616464726573733A0A0A20202030785F5F46
:20319D005F5F000A456E746572207365617263680A76616C75653A0A0A20202030785F5F7B
:2031BD00000A28312920313230300A0028322920323430300A0028332920343830300A008C
:2031DD0028342920393630300A002835292031393230300A0A0043757272656E743A0A0077
:2031FD00313230300A00323430300A00343830300A00393630300A0031393230300A000A56
:20321D002020205F00310A00320A00330A00340A00350A00580A000A52657475726E696EDE
:20323D006720746F0A6C617374206D656E752E000A4461746120426974730A0A002831297A
:20325D0020380A0028322920390A000A43757272656E743A2000380A00390A000A50617210
:20327D006974790A0A00283129204576656E0A00283229204F64640A00283329204E6F6EFA
:20329D00650A004576656E0A004F64640A004E6F6E650A000A456E7465720A63686172613E
:2032BD00637465720A746F2073656E643A0A0A2020205F000A283129204461746120526186
:2032DD007465000A2832292023206F6620446174610A2020202042697473000A28332920CF
:2032FD00506172697479000A2834292053656E642044617461000A28452920456E640A0084
:20331D0020202043616D65726F6E0A20202042696E69616D6F770A0020204543454E2D3405
:20333D003333300A0A002841292052414D20434845434B0A00284229204D4F56450A002890
:20335D00432920434F554E540A002844292044554D500A0028452920454449540A002846E8
:1E337D00292046494E440A0028312920554152540A00537072696E672032303231007E
:20278A007A10E4FBFCE58225E0F582E58333F583EB33FBEC33FCEB9508F5F0EC9509400663
:0927AA00FCABF0438201DADD22F0
:06005800E478FFF6D8FD7C
:200036007900E94400601B7A0090339B780175A000E493F2A308B8000205A0D9F4DAF275A2
:02005600A0FF09
:1D27B300E5828508F0A4C582C0F08509F0A4D0F025F0C5838508F0A42583F58322E8
:2027D000E508450960467A01E50825E0F508E509334012F509E5829508E583950940030AD6
:2027F00080E6C3E50913F509E50813F508C3E5829508F5F0E58395094005F58385F082C37B
:0D281000E50913F509E50813F508DAE122E2
:20005E007800E84400600A790175A000E4F309D8FC7800E84400600C7900900001E4F0A3A0
:04007E00D8FCD9FAD7
:0D00290075817D122839E5826003020026F2
:1C281D0020F71430F6148883A88220F507E6A88375830022E280F7E49322E022CA
:042839007582002282
:00000001FF
