:04000000020029329F
:01000B0032C2
:0100130032BA
:01001B0032B2
:030023000200A236
:20008200752300752440752500752680E4F553F554755F03F560756102F562F563020026E8
:030026000227109E
:2000A200309808859962C29875630132759850758700758920758DFDD28ED2ACD2AF22850D
:2000C2004E992099FDC29922AE82AF837C007D00C3EC9EED64808FF063F08095F050147AD6
:2000E200E87B031ABAFF011BEA4B70F70CBC00E00D80DD22AF82C2B5D2B485238285248355
:20010200EFF0C2B4D2B5D2B4852382852483E508F0C2B422AE82AF838F04C2B5D2B4852316
:2001220082852483ECF0C2B4C2B5D2B4852382852483EEF0C2B4AE09AC08D2B5D2B5D2B417
:20014200852382852483EEF0C2B4D2B5D2B4852382852483ECF0C2B42275080790000F12E7
:2001620001A17E007F007564008E828F83C007C0061201AAD006D0070EBE00010FC3EE94CB
:200182000DEF940040E075080490000F0201A1D2B490000DE0F541C2B4E54120E1F122AF51
:2001A20008D2B4EFF0C2B422AE82AF83D2B490000D7401F0C2B4C007C006120191D006D001
:2001C20007D2B48E828F83E4F0C2B4AF64D2B490000DEFF0C2B422AE82AF83D2B490000DF2
:2001E2007401F0C2B4C007C006120191D006D007D2B48E828F83E0F541C2B4E541540F4443
:2002020030F541D2B490000DE4F0C2B485418222852959852B5A852D5BE4F508F50990D63C
:20022200BA12037B75820212038875083075090190008412036ED2B490000D7401F0C2B41B
:20024200120191D2B4900005E0F541C2B4E541540F4430F541D2B490000DE4F0C2B48541EB
:2002620082120A04D2B490000D7401F0C2B4120191D2B4900004E0F541C2B4E541540F44C5
:2002820030F541D2B490000DE4F0C2B4854182120A04902D6675F080120A6AD2B490000D70
:2002A2007401F0C2B4120191D2B4900003E0F541C2B4E541540F4430F541D2B490000DE4DE
:2002C200F0C2B4854182120A04D2B490000D7401F0C2B4120191D2B4900002E0F541C2B408
:2002E200E541540F4430F541D2B490000DE4F0C2B4854182120A04902D6675F080120A6A66
:20030200D2B490000D7401F0C2B4120191D2B4900001E0F541C2B4E541540F4430F541D291
:20032200B490000DE4F0C2B4854182120A04D2B490000D7401F0C2B4120191D2B490000000
:20034200E0F541C2B4E541540F4430F541D2B490000DE4F0C2B4854182120A04855929758B
:200362002A00855A2B752C00855B2D2285822985832A85082B85092C2285822F858330858E
:20038200083185093222E582FF24F7500122EF60068F067F0080047E017F008E2D22E5821D
:2003A200FF24FC404EEF2F9003AD7380068014802280307F487533F07534007535407536B4
:2003C20001803E7F287533407534017535F0753600802E7F887533F0753400753540753653
:2003E20001801E7FE87533407534017535F0753600800E7F487533F07534007535407536F3
:20040200018F087582360200F6AE82AF83C2B5D2B4852382852483742AF0C2B4D2B5D2B457
:200422008523828524838F05EDF0C2B4D2B5D2B4852382852483EEF0C2B4D2B5D2B4852311
:2004420082852483E50BF0C2B4D2B5D2B4852382852483E50AF0C2B4C2B5D2B48523828532
:200462002483742BF0C2B4D2B5D2B4852382852483E509F0C2B4D2B5D2B4852382852483B4
:20048200E508F0C2B4D2B5D2B4852382852483E50DF0C2B4D2B5D2B4852382852483E50CF8
:2004A200F0C2B4227533F0753400753540753601C2B4D2B5C2B5D2B4852382852483E4F0B7
:2004C200C2B4D2B5D2B4852382852483E4F0C2B4D2B5D2B4852382852483E4F0C2B4D2B5C3
:2004E200D2B4852382852483E4F0C2B49000C81200CA7508007582011200F690003212004F
:20050200CA7508007582281200F690000A1200CA7508237582C01200F67508117582C1123E
:2005220000F6C2B5D2B485238285248374C5F0C2B4D2B5D2B4852382852483743DF0C2B457
:20054200D2B5D2B48523828524837430F0C2B47508AA7582C71200F67508887582361200FB
:20056200F6C2B5D2B4852382852483743AF0C2B4D2B5D2B48523828524837455F0C2B4D2B8
:20058200B5D2B4852382852483E4F0C2B475081B7509009000B11201167508077582B712BA
:2005A20000F67508007582111200F69000961200CA7508007582291200F69001F41200CAAE
:2005C200E53324FFF50AE53434FFF50BE53524FFF50CE53634FFF50DE4F508F50990000096
:2005E20002040BAE82AF8374012EF50AE43FF50B74012565F50CE43566F50D856508856663
:20060200098E828F8312040BC2B5D2B4852382852483742CF0C2B4D2B5D2B4852382852453
:2006220083E568F0C2B4D2B4852382852483E567F0C2B422AE82AF83C3EE94F0EF94005068
:200642000BC3E5699440E56A9401400122E56B2EFCE56C3FFD1CBCFF011DC3EC94F0ED94B1
:2006620000400A74F0C39EF56BE49FF56CE56D2569FCE56E356AFD1CBCFF011DC3EC9440E2
:20068200ED9401400D7440C39569F56D7401956AF56EE56B2EFCE56C3FFDEC24FFF50AEDD9
:2006A20034FFF50BE56D2569FCE56E356AFDEC24FFF50CED34FFF50D856908856A098E820A
:2006C2008F8312040BC2B5D2B4852382852483742CF0C2B4D2B5AF70AD6DAE6EED4E6030E5
:2006E200AB6BAC6CEB4C6021D2B4852382852483EFF0C2B4D2B4852382852483E56FFAF0C7
:20070200C2B41BBBFF011C80DB1DBDFF011E80CC22AE82AF838F05E4F508F509750AEFF576
:200722000B750C3F750D01900000C006C00512040BD005D006C2B5D2B485238285248374BB
:200742002CF0C2B4D2B5D2B4852382852483EDF0C2B4D2B4852382852483EEF0C2B47CB0F3
:200762007F048C028F031CBCFF011FEA4B60667B10D2B4852382852483EDF0C2B4D2B4851D
:200782002382852483EEF0C2B4D2B4852382852483EDF0C2B4D2B4852382852483EEF0C287
:2007A200B4D2B4852382852483EDF0C2B4D2B4852382852483EEF0C2B4D2B48523828524CB
:2007C20083EDF0C2B4D2B4852382852483EEF0C2B4DB9E808D7F3F8F041FEC601AD2B485AA
:2007E2002382852483EDF0C2B4D2B4852382852483EEF0C2B480E02285827985837AC3E577
:200802007994F0E57A648094805059C3E5719440E57264809481504CAC787D008C088D0935
:20082200900006C005C0041227D1AA82AB83D004D005EA2579FAEB357AFB1ABAFF011BEB99
:2008420020E721EDC40354F8CCC403CC6CCC54F8CC6CFDEC2571FCED3572FD1CBCFF011D52
:20086200ED30E701227401B5780474018001E4FDFCE574B57608E575B57703D38001C39218
:20088200007B00BB0600400122BB0505757B008030857308750900900005C005C004C003F3
:2008A2001227D1A882A983D003D004D005E8245BF8E93428F9EB28F582E439F583E493F532
:2008C2007B8BF0E578A42579F8E57A35F0F9887C897D7A00BA08004003020A00E57B20E017
:2008E2000302096EED60408B067F00EE2579F582EF357AF5838A067F00EE2571F565EF35B3
:2009020072F566857467857568C005C004C003C002C001C0001205E5D000D001D002D00375
:20092200D004D0050209F68AF0E578A42571F569E57235F0F56AAE787F008E6B8F6C8E6D2D
:200942008F6E85746F857570857C82857D83C005C004C003C002C001C000120636D000D041
:2009620001D002D003D004D0050209F63000030209F6EC603F8B067F00EE2579F582EF352F
:200982007AF5838A067F00EE2571F565EF3572F566857667857768C005C004C003C002C0F1
:2009A20001C0001205E5D000D001D002D003D004D00580408AF0E578A42571F569E57235CE
:2009C200F0F56AAE787F008E6B8F6C8E6D8F6E85766F85777088828983C005C004C003C03D
:2009E20002C001C000120636D000D001D002D003D004D005E57BC313F57B0A0208D60B0298
:200A02000885AF82BF0A22AD2DE4C40354F8CDC403CD6DCD54F8CD6DFEED252BF52BEE35BB
:200A22002CF52CE4F529F52A22BF0D0122852B71852C728F73852F748530758531768532BA
:200A420077852D78852982852A831207FA852D087509009000061227D1AE82AF83EE252908
:200A6200F529EF352AF52A22AD82AE83AFF07B007C00EB2DF8EC3EF98F02888289838AF07D
:200A820012283BFA60208A82C007C006C005C004C003120A04D003D004D005D006D0070B2C
:200AA200BB00CF0C80CC227590F07563007590F08590215321F074F0B521028004E563606C
:200AC200EC12021290000A1200CAE59054F0F52174F0B52104E56360E89000011200CAE59D
:200AE2009054F0F52174F0B52104E56360D3E5636003020BB87590FEE59054F0F52174F0AB
:200B0200B521028005752200803D7590FDE59054F0F52174F0B521028005752201802875DB
:200B220090FBE59054F0F52174F0B52102800575220280137590F7E59054F0F52174F0B588
:200B4200210280B175220374E0B52115E52275F004A42456F582742D35F0F583E493F58235
:200B62002274D0B52118E52275F004A42456FE742D35F0FF8E828F83A3E493F5822274B0D5
:200B8200B52119E52275F004A42456FE742D35F0FF8E828F83A3A3E493F58222E52275F02F
:200BA20004A42456FE742D35F0FF8E828F83A3A3A3E493F58222756300E56224C0F5822297
:200BC200AF82BF30005003020C53EF24B95003020C53EF24D0FF240A83F582EF241B83F50F
:200BE20083E47313171B1F23272B2F3337535353535353533B3F43474B4F0C0C0C0C0C0C7C
:200C02000C0C0C0C0C0C0C0C0C0C0C0C0C0C0C0C0C7F00803E7F01803A7F0280367F038056
:200C2200327F04802E7F05802A7F0680267F0780227F08801E7F09801A7F0A80167F0B805E
:200C4200127F0C800E7F0D800A7F0E80067F0F80027F008F8222AE82AF83C3740F9EE49FB3
:200C62005003020CD5EE240A83F582EE241483F583E47395999DA1A5A9ADB1B5B9BDC1C5E5
:200C8200C9CDD10C0C0C0C0C0C0C0C0C0C0C0C0C0C0C0C7F30803E7F31803A7F3280367F6E
:200CA2003380327F34802E7F35802A7F3680267F3780227F38801E7F39801A7F4180167F5F
:200CC2004280127F43800E7F44800A7F4580067F4680027F308F8222E582FFC4540FFE8E15
:200CE2004E754F00534E0F754F00854E82854F83C007120C58858252120A04D0077E007441
:200D02000F5FF54E8E4F854E82854F83120C58858252020A04AE82E583FFC4540FF54E7542
:200D22004F00534E0F754F00854E82854F83C007C006120C58858252902D6875F080120AC0
:200D42006A855282120A04D006D0078F4E754F00534E0F754F00854E82854F83C007C006B3
:200D6200120C58858252120A04D006D0078E4EEFC4C54EC4540F654EC54E540FC54E654E1D
:200D8200C54EF54F534E0F754F00854E82854F83C007C006120C58858252120A04D006D0B8
:200DA200078E4E8F4F534E0F754F00854E82854F83120C58858252020A04AE82AF83C2B499
:200DC2008E828F83E508F0D2B422AF827D007E00C2B48D828E83EFF0D2B40DBD00010EC3A7
:200DE20074FE9D74FF9E50E822AE82AF83C2B48E828F83E0F541D2B485418222758204126A
:200E020003A0E4F508F50990D6BA12037B758203120388900000120713E4F508F5099000DC
:200E22000002036E120DFEE4F508F50990F80012037B902D6B75F080120A6A902D7975F0FB
:200E420080120A6A9000C81200CA020DFEE4F538F539F508F50990FFFF12037B120AA985A7
:200E62008237E4F508F50990FFFF12037B853782120A04853782120BC2AF82EFC454F0FE19
:200E8200E44238EE4239120AA9858237E4F508F50990FFFF12037B853782120A04853782ED
:200EA200120BC2AF828F06E44238EE4239120AA9858237E4F508F50990FFFF12037B853708
:200EC20082120A04853782120BC2AF82E4C454F0CFC4CF6FCF54F0CF6FFEEF4238EE423942
:200EE200120AA9858237E4F508F50990FFFF12037B853782120A04853782120BC2AF827EC6
:200F020000EF4238EE423922E4F508F50990FFFF12037B753A00120AA9858237E4F508F556
:200F22000990FFFF12037B853782120A04853782120BC2E582C454F0423A120AA98582371F
:200F4200E4F508F50990FFFF12037B853782120A04853782120BC2E582423A22753E0075EA
:200F62003B00120DFEE4F508F50990FFFF12037B902D8375F080120A6A902D9875F0801223
:200F82000A6A902DA275F080120A6A902DAC75F080120A6A852D087509009000061227D165
:200FA200AE82AF83E529C39EF529E52A9FF52A85295C852B5D852D5EE4F508F50990FFFFDF
:200FC20012037B120AA9858237855C29752A00855D2B752C00855E2D853782120A04743112
:200FE200B53702800E7432B53702800F7433B5371A8010753B01753E018016753B02753EB3
:2010020001800E753B04753E018006120E26753E00E53E7003020F6422E4F53EF53CF53DB1
:20102200120DFE902DC575F080120A6AE52D75F018A4FEAFF0E529C39EF529E52A9FF52A7A
:2010420085295C852B5D852D5EE4F538F539F508F50990FFFF12037B120AA9858237855C2B
:2010620029752A00855D2B752C00855E2D853782120A0485295C852B5D852D5E8537821213
:201082000BC2AF82EFC454F0FEE44238EE4239120AA9858237855C29752A00855D2B752C3A
:2010A20000855E2D853782120A0485295C852B5D852D5E853782120BC2AF828F06E4423858
:2010C200EE4239120AA9858237855C29752A00855D2B752C00855E2D853782120A0485292F
:2010E2005C852B5D852D5E853782120BC2AF82E4C454F0CFC4CF6FCF54F0CF6FFEEF4238B2
:20110200EE4239120AA9858237855C29752A00855D2B752C00855E2D853782120A048529EE
:201122005C852B5D852D5E853782120BC2AF827E00EF4238EE423985383C85393DE53C453C
:201142003D7009120E26753E00021022753E0122754100753F00120DFE902DE175F08012B8
:201162000A6A758255120DCC75085590FFFF120DBCE4F508F5099007E012037B902E10755E
:20118200F080120A6A9000C81200CA120DFE902E2175F080120A6A7E007F008E828F83C0DD
:2011A20007C006120DEB858241D006D0070EBE00010F7455B5410474018001E4FD6009C3BF
:2011C20074FE9E74FF9F50D3ED601190FFFFC007C006120DEB858241D006D0077455B54191
:2011E200028061E4F508F50990F800C007C00612037B902E4C75F080120A6A90006412000B
:20120200CA902E6A75F080120A6AD006D007EE24FFF582EF34FFF583120D17902E7575F0D2
:2012220080120A6A854182120CDAE4F508F50990FFFF12037B902E7A75F080120A6A900036
:20124200C80200CAE4F508F5099007E012037B902E9275F080120A6A9000C81200CA120D04
:20126200FE902EAE75F080120A6A7582AA120DCC7508AA90FFFF120DBCE4F508F509900705
:20128200E012037B902E1075F080120A6A9000C81200CA120DFE902EDD75F080120A6A7ECE
:2012A200007F008E828F83C007C006120DEB858241D006D0070EBE00010F74AAB541047497
:2012C200018001E4FD6009C374FE9E74FF9F50D3ED601190FFFFC007C006120DEB8582416D
:2012E200D006D00774AAB541028061E4F508F50990F800C007C00612037B902F0875F08018
:20130200120A6A9000641200CA902E6A75F080120A6AD006D007EE24FFF582EF34FFF58313
:20132200120D17902E7575F080120A6A854182120CDAE4F508F50990FFFF12037B902E7A62
:2013420075F080120A6A9000640200CAE4F508F5099007E012037B902F2675F080120A6A2A
:20136200902F4275F080120A6A9000641200CAE4F508F50990FFFF12037B902E7A75F08015
:20138200120A6A9000640200CAE4F555F556F557F558F542F543F544F545F546F547F5485D
:2013A200F549F54AF54BF54CF54D120DFE902F5875F080120A6AE52D75F018A4FEAFF0E597
:2013C20029C39EF529E52A9FF52A120E4F853842853943120DFE902F8775F080120A6AE574
:2013E2002D75F018A4FEAFF0E529C39EF529E52A9FF52A120E4F853846853947120F5E129E
:201402000DFE12101BC3E5429546E54395475063853B08750900853C82853D831227D1AE80
:2014220082AF83EE2546FCEF3547FD8C558D56755700755800C374FF955574FF9556E495E5
:2014420057E4955850087548FF7549FF800AEE2546F548EF3547F549E548C39546F53CE5E7
:20146200499547F53DE53C2542F544E53D3543F5458061853B08750900853C82853D8312BD
:2014820027D1AE82AF83EE2542FCEF3543FD8C558D56755700755800C374FF955574FF95B6
:2014A20056E49557E4955850087544FF7545FF800AEE2542F544EF3543F545E544C39542EE
:2014C200F53CE5459543F53DE53C2546F548E53D3547F549C3E5429546E5439547504EC3D6
:2014E200E5469544E5479545504385444A85454B85484C85494DC3E54C9546E54D954740D4
:201502006D854A82854B83120DEB858241854108854C82854D83120DBC154A74FFB54A0242
:20152200154B154C74FFB54C02154D80C985424A85434B85464C85474DC3E548954CE54974
:20154200954D402A854A82854B83120DEB858241854108854C82854D83120DBC054AE4B50E
:201562004A02054B054CE4B54CCF054D80CB120DFEE4F508F5099007E012037B902FBB7539
:20158200F080120A6A9000641200CAE4F508F50990FFFF12037B902E7A75F080120A6A9053
:2015A20000640200CAE4F555F556F557F558F542F543F544F545F53CF53DF550F551F553CF
:2015C200F554F548F549F53F120DFE902FCD75F080120A6AE52D75F018A4FEAFF0E529C35C
:2015E2009EF529E52A9FF52A120E4F853842853943120DFE12101B120DFE902FF475F080E2
:20160200120A6AE52D75F00CA4FEAFF0E529C39EF529E52A9FF52A120F0A853A5075510024
:20162200E53C2542FEE53D3543FF8E558F56755700755800AC42AD437E007F00C3E5559CB4
:20164200E5569DE5579EE5589F50147544FF74FFF545C39542F53C74FF9543F53D800CE578
:201662003C2542F544E53D3543F545AE42AF438E048F05C3E5449CE5459D404CE53F7048F9
:201682008E828F83C007C006120DEB858241D006D007AC417D00ECB5501AEDB5511674FFA9
:2016A200B55309B554067548017549000553E4B5530205548E048F05BCFF06BDFF03753F93
:2016C200010EBE00AA0F80A7E5534554700D7401B5480614B549028002805F120DFEE4F52A
:2016E20008F5099007E012037B90301175F080120A6A855082120CDA90301575F080120A7A
:201702006AE5534554600B855382855483120D1780167401B5480614B54902800280099078
:20172200301D75F080120A6A90302575F080120A6A90012C1200CA021D77120DFE90301182
:2017420075F080120A6A855082120CDA90302D75F080120A6A854282854383120D179030EB
:201762004975F080120A6A854482854583120D1790012C1200CA120DFE902E7A75F0801200
:201782000A6A9000C80200CAE4F54CF54DF53FF546F54785424A85434B120DFE7582021251
:2017A200038890304D75F080120A6AC3E53C940AE53D9400500302185975460A7547007E27
:2017C200007F00854A82854B83C007C006120D17902E7575F080120A6AD006D0077C007DDD
:2017E20000AA3B7B00C3EC9AED64808BF063F08095F0502B854A82854B83C007C006C00529
:20180200C004120DEB120CDAD004D005D006D007054AE4B54A02054B0CBC00C50D80C290BA
:20182200304D75F080C007C006120A6AD006D007153C74FFB53C02153D0EBE00010FC3EEEE
:20184200940AEF6480948050030217C5054CE4B54C02054D0219BEE53C453D7003021948F4
:20186200C3E53C940AE53D94004003021948853C46853D47E53C453D6060854A82854B8371
:20188200120D17902E7575F080120A6A7E007F00AC3B7D00C3EE9CEF64808DF063F080950C
:2018A200F05023854A82854B83C007C006120DEB120CDAD006D007054AE4B54A02054B0E51
:2018C200BE00CD0F80CA90304D75F080120A6A153C74FFB53C02153D809AE5484549605C10
:2018E200854A82854B83120D17902E7575F080120A6A7E007F008E048F05C3EC9548ED953D
:20190200495023854A82854B83C007C006120DEB120CDAD006D007054AE4B54A02054B0E97
:20192200BE00D30F80D0E54AC39548F54AE54B9549F54B90304D75F080120A6A054CE4B5F7
:201942004C7A054D8076E53C453D7070E5484549606A853C46853D47854A82854B83120D9C
:2019620017902E7575F080120A6A7E007F008E048F05C3EC9548ED95495023854A82854BA2
:2019820083C007C006120DEB120CDAD006D007054AE4B54A02054B0EBE00D30F80D0903044
:2019A2004D75F080120A6A054CE4B54C02054DE54AC39548F54AE54B9549F54B7508FA759B
:2019C200090090000012036E90304F75F080120A6A854C82854D83120D17120AA98582378E
:2019E2007430B5370280127431B5370280657445B53703021AF2021B09753E01E53C453D16
:201A02006006753F00021B4D753F00853B087509008546828547831227D1AE82AF83E54A0F
:201A2200C39EF54AE54B9FF54BE546253CF53CE547353DF53D154C74FFB54C02154D120D10
:201A4200FE90308075F080120A6A9000C81200CA021B4DC37401954CE4954D5049753F0011
:201A6200740A2546FEE43547FF853B087509008E828F83C007C0061227D1AC82AD83D006EB
:201A8200D007E54AC39CF54AE54B9DF54BE54C24FEF54CE54D34FFF54DEE253CF53CEF35B4
:201AA2003DF53D021B4D753F00120DFE90308E75F080120A6A9000C81200CA853B08750947
:201AC200008546828547831227D1AE82AF83E54AC39EF54AE54B9FF54B154C74FFB54C0247
:201AE200154DE546253CF53CE547353DF53D805B120DFE90309A75F080120A6A9000C812CE
:201B020000CA753F018044753F00120E26E54645476038853B087509008546828547831243
:201B220027D1AE82AF83E54AC39EF54AE54B9FF54B154C74FFB54C02154DE546253CF53C75
:201B4200E547353DF53DE4F546F547E53F700302179B22E4F555F556F557F558F542F5436A
:201B6200F544F545F53BF53CF53DF548F549120DFE9030B375F080120A6AE52D75F018A4B4
:201B8200FEAFF0E529C39EF529E52A9FF52A120E4F853842853943120F5E120DFE12101B04
:201BA200AE3B7F00853C08853D098E828F83C007C0061227D1AC82AD83D006D007EC254210
:201BC200FAED3543FB8A558B56755700755800A842A9437A007B00C3E55598E55699E557E0
:201BE2009AE5589B50087544FF7545FF8012EC2542FCED3543FDEC24FFF544ED34FFF545C3
:201C0200E544C39542FCE5459543FD0CBC00010D8E088F098C828D83C007C006C005C004CC
:201C22001227A885823C85833DD004D005D006D0078E088F098C828D831227EE858248859C
:201C4200834902178AAE82AF83C007C006120DEB858241120DFE90304D75F080120A6AD06D
:201C620006D0078E828F83C007C006120D17902E7575F080120A6A854182120CDA9030E121
:201C820075F080120A6AE52D75F00CA4FCADF0E529C39CF529E52A9DF52A120F0AD006D0F0
:201CA20007853A088E828F83120DBC9030F575F080120A6A90311675F080020A6A753F0051
:201CC200754000753E00120DFE902FCD75F080120A6AE52D75F018A4FEAFF0E529C39EF552
:201CE20029E52A9FF52A120E4FE5407052E53F704E853882853983121C47120AA9858237BC
:201D02007431B5370280077445B53727801D753E0174FFB53808B53905754001801B0538A1
:201D2200E4B538020539754000800E753E01753F018006753E00120E26E53E60B480AA12F2
:201D42000DFE7401B54014E4F508F50990F80012037B90311E75F080120A6AE4F508F509D8
:201D620090FFFF12037B90312D75F080120A6A9000C80200CAE4F546F547F54CF54D120DC9
:201D8200FE85424A85434B854A82854B83120DEB858241AE417F00EEB55006EFB55102804B
:201DA20021C3E54A9544E54B95455016054AE4B54A02054B854A82854B83120DEB8582414B
:201DC20080D1AE417F00EEB55006EFB551028058E544B54A53E545B54B4E120DFE90301199
:201DE20075F080120A6A855082120CDA90314675F080120A6A854282854383120D1790302B
:201E02004975F080120A6A854482854583120D179000C81200CA120DFE902E7A75F08012BE
:201E22000A6A9000640200CA120DFEE4F508F5099007E012037B90301175F080120A6A85A8
:201E42005082120CDA90316475F080120A6A9000C81200CA854A46854B47120DFE85464A94
:201E620085474B854A82854B83120D17755307755400054CE4B54C02054D74FFB54A05B521
:201E82004B02804C054AE4B54A02054B854A82854B83120DEB858241AE417F00EEB5501F2D
:201EA200EFB5511B155374FFB55302155490304D75F080120A6A854A82854B83120D17C3AD
:201EC200E54A9544E54B95455006E553455470B47508FA75090090000012036E7582021290
:201EE2000388E4F508F50990FFFF12037B90304F75F080120A6A854C82854D83120D1712EE
:201F02000AA98582377430B5370280137431B53703021FC27445B53703022042022056C3EB
:201F2200E54A9544E54B9545401E120DFE90318975F080120A6A9000C81200CA154C74FF55
:201F4200B54C02154D022062054AE4B54A02054B854A82854B83120DEB858241AE417F00AE
:201F6200EEB5500AEFB55106854A46854B47C3E54A9544E54B9545500CAE417F00EEB550A9
:201F8200C7EFB551C3C3E54A9544E54B95455003022062AE417F00EEB55007EFB5510302B2
:201FA2002062120DFE90318975F080120A6A9000C81200CA154C74FFB54C02154D022062DA
:201FC2007401B54C0614B54D028002801E120DFE90318975F080120A6A9000C81200CA1530
:201FE2004C74FFB54C02154D02206285464A85474BE4F553F554C3E5539408E554940050E2
:202002002B154A74FFB54A02154B854A82854B83120DEB858241AE417F00EEB550D8EFB58D
:2020220051D40553E4B553CE055480CA854A46854B47E54C24FEF54CE54D34FFF54D8020BD
:20204200120DFE902E7A75F080120A6A9000C81200CA800C120E26154C74FFB54C02154D7F
:202062007445B5370122021E5C22E4F555F556F557F558F542F543F544F545F53BF53CF5AE
:202082003DF550F551120DFE90319675F080120A6AE52D75F018A4FEAFF0E529C39EF5293A
:2020A200E52A9FF52A120E4F853842853943120DFE12101B120DFE9031BE75F080120A6A81
:2020C200E52D75F00CA4FEAFF0E529C39EF529E52A9FF52A120F0A853A50755100E53C259A
:2020E20042FEE53D3543FF8E558F56755700755800AC42AD437E007F00C3E5559CE5569D58
:20210200E5579EE5589F50147544FF74FFF545C39542F53C74FF9543F53D800CE53C2542E2
:20212200F544E53D3543F545021D777582041203A0E4F508F50990D6BA12037B75820312AF
:202142000388900000120713E4F508F50990000002036E120DFE9031DC75F080120A6A909F
:2021620031E775F080120A6A9031F175F080120A6A9031FB75F080120A6A90320575F080EA
:20218200120A6A90321175F080120A6A7480B5871B74FDB58D0B90321B75F080120A6A80A8
:2021A2004B90322275F080120A6A8040AF8DBFE802800FBFF4028015BFFA02801BBFFD2CC7
:2021C200802190322B75F080120A6A801F90323175F080120A6A801490323775F080120A79
:2021E2006A800990323D75F080120A6A90324375F080120A6AE52D75F006A4FEAFF0E52944
:20220200C39EF529E52A9FF52A120AA98582377431B53702801F7432B5370280307433B59B
:20222200370280407434B5370280507435B5370280600222AB753E01758DE8758700753FA9
:202242000190324975F080120A6A0222BD753E01758DF4758700753F0190324C75F08012C4
:202262000A6A8057753E01758DFA758700753F0190324F75F080120A6A8040753E01758DBE
:20228200FD758700753F0190325275F080120A6A8029753E01758DFD758780753F019032C0
:2022A2005575F080120A6A8012753E0090325875F080120A6A120E26753F00E53F700302FF
:2022C20021589000C81200CA12212DE4F508F50990FFFF12037B90325B75F080120A6A90DA
:2022E20000C80200CA120DFE90327475F080120A6A90328175F080120A6A90328875F080AD
:20230200120A6A90328F75F080120A6AE4B5600280077401B56016800B90329A75F0801279
:202322000A6A800990329D75F080120A6A90324375F080120A6AE52D75F006A4FEAFF0E5C1
:2023420029C39EF529E52A9FF52A120AA98582377431B5370280077432B5372A8014753EE6
:2023620001756000753F0190324975F080120A6A8026753E01756001753F0190324C75F002
:2023820080120A6A8012753E0090325875F080120A6A120E26753F00E53F70030222EA903C
:2023A20000C81200CA12212DE4F508F50990FFFF12037B90325B75F080120A6A9000C80238
:2023C20000CA120DFE9032A075F080120A6A9032AA75F080120A6A9032B475F080120A6A8F
:2023E2009032BD75F080120A6A90328F75F080120A6AE4B56102800E7401B5610280127418
:2024020002B5612180169032C775F080120A6A80149032CD75F080120A6A80099032D275D7
:20242200F080120A6A90324375F080120A6AE52D75F006A4FEAFF0E529C39EF529E52A9F3B
:20244200F52A120AA98582377431B53702800E7432B53702801B7433B5373E8028753E01DB
:20246200756100753F0190324975F080120A6A803A753E01756101753F0190324C75F0806C
:20248200120A6A8026753E01756102753F0190324F75F080120A6A8012753E00903258757D
:2024A200F080120A6A120E26753F00E53F70030223C79000C81200CA12212DE4F508F50934
:2024C20090FFFF12037B90325B75F080120A6A9000C80200CA120DFE9032D875F080120A78
:2024E2006AE52D75F006A4FEAFF0E529C39EF529E52A9FF52A120AA9858237120A049000A5
:20250200C81200CA020DFE120DFE9032F875F080120A6A90330775F080120A6A90331F753A
:20252200F080120A6A90332B75F080120A6A90333A75F080120A6A120AA98582377431B585
:202542003702801C7432B53702801D7433B53702801E7434B53702801F7445B53744802082
:20256200122155753F0080401222E7753F0080381223C4753F0080301224D7753F00802810
:2025820012212DE4F508F50990FFFF12037B90312D75F080120A6A9000C81200CA753F019A
:2025A2008006120E26753F00E53F700302250922753700852582852683D2B474C0F0C2B48A
:2025C200120DFEE4F508F5099007E012037B90334475F080120A6A90335C75F080120A6AFA
:2025E200E4F508F50990FFFF12037B90336A75F080120A6A90337975F080120A6A90338357
:2026020075F080120A6A90338E75F080120A6A90339875F080120A6A9033A275F080120A65
:202622006A9033AC75F080120A6AE4F508F50990FFFF12037B758201120388750830750997
:202642000190000312036E9033B675F080120A6A120212120AA98582377431B53703022698
:20266200F07441B5370280267442B53702802F7443B5370280387444B5370280417445B59A
:202682003702804A7446B537028053022700852582852683D2B47488F0C2B4021152852540
:2026A20082852683D2B47483F0C2B402138B852582852683D2B474C6F0C2B40215A78525FD
:2026C20082852683D2B474A1F0C2B4021B55852582852683D2B47486F0C2B4021CBF85250E
:2026E20082852683D2B4748EF0C2B402206C852582852683D2B474F9F0C2B402250985251F
:2027020082852683D2B474FFF0C2B4020E26C2B5C2B41200AE12015B852582852683D2B477
:2027220074FEF0C2B49000641200CA852582852683D2B474FCF0C2B49000641200CA8525BF
:2027420082852683D2B474F8F0C2B49000641200CA852582852683D2B474F0F0C2B4900065
:20276200641200CA852582852683D2B474E0F0C2B49000641200CA852582852683D2B47459
:20278200C0F0C2B49000641200CAC2B4D2B51204A6852582852683D2B474F9F0C2B4120DB6
:0627A200FE1225B280FBCF
:20285B0000000000003E5B4F5B3E3E6B4F6B3E1C3E7C3E1C183C7E3C181C577D571C1C5E08
:20287B007F5E1C00183C1800FFE7C3E7FF0018241800FFE7DBE7FF30483A060E2629792997
:20289B0026407F050507407F05253F5A3CE73C5A7F3E1C1C08081C1C3E7F14227F22145FA8
:2028BB005F005F5F06097F017F006689956A606060606094A2FFA29408047E040810207E55
:2028DB00201008082A1C08081C2A08081E101010100C1E0C1E0C30383E3830060E3E0E06BF
:2028FB00000000000000005F00000007000700147F147F14242A7F2A12231308646236498A
:20291B005620500008070300001C2241000041221C002A1C7F1C2A08083E0808008070303D
:20293B00000808080808000060600020100804023E5149453E00427F400072494949462146
:20295B0041494D331814127F1027454545393C4A494931412111090736494949364649496B
:20297B00291E000014000000403400000008142241141414141400412214080201590906A0
:20299B003E415D594E7C1211127C7F494949363E414141227F4141413E7F494949417F0916
:2029BB000909013E414151737F0808087F00417F41002040413F017F081422417F40404030
:2029DB00407F021C027F7F0408107F3E4141413E7F090909063E4151215E7F091929462600
:2029FB004949493203017F01033F4040403F1F2040201F3F4038403F631408146303047881
:202A1B0004036159494D43007F4141410204081020004141417F04020102044040404040F2
:202A3B00000307080020545478407F284444383844444428384444287F385454541800089B
:202A5B007E090218A4A49C787F0804047800447D40002040403D007F1028440000417F407E
:202A7B00007C047804787C080404783844444438FC1824241818242418FC7C0804040848C3
:202A9B005454542404043F44243C4040207C1C2040201C3C4030403C44281028444C9090C0
:202ABB00907C4464544C4400083641000000770000004136080002010204023C2623263CFC
:202ADB001EA1A161123A4040207A3854545559215555794122545478422155547840205427
:202AFB005579400C1E5272123955555559395454545939555454580000457C410002457D3A
:202B1B00420001457C407D1211127DF0282528F07C545545002054547C547C0A097F493247
:202B3B00494949323A4444443A324A4848303A4141217A3A42402078009DA0A07D3D42422B
:202B5B00423D3D4040403D3C24FF2424487E4943662B2FFC2F2BFF0929F620C0887E090379
:202B7B0020545479410000447D413048484A32384040227A007A0A0A727D0D19317D262986
:202B9B00292F28262929292630484D4020380808080808080808382F10C8ACBA2F102834F6
:202BBB00FA00007B000008142A142222142A1408AA005500AAAA55AA55AA000000FF00102D
:202BDB001010FF00141414FF001010FF00FF1010F010F0141414FC001414F700FF0000FFFD
:202BFB0000FF1414F404FC141417101F10101F101F1414141F00101010F0000000001F1019
:202C1B001010101F10101010F010000000FF101010101010101010FF10000000FF14000059
:202C3B00FF00FF00001F10170000FC04F414141710171414F404F40000FF00F71414141481
:202C5B00141414F700F7141414171410101F101F141414F4141010F010F000001F101F00B8
:202C7B0000001F14000000FC140000F010F01010FF10FF141414FF141010101F000000003A
:202C9B00F010FFFFFFFFFFF0F0F0F0F0FFFFFF0000000000FFFF0F0F0F0F0F3844443844EC
:202CBB00FC4A4A4A347E02020606027E027E0263554941633844443C04407E201E20060292
:202CDB007E020299A5E7A5991C2A492A1C4C7201724C304A4D4D303048784830BC625A4638
:202CFB003D3E494949007E0101017E2A2A2A2A2A44445F444440514A444040444A51400065
:202D1B0000FF0103E080FF000008086B6B083612362436060F090F060000181800000010FD
:202D3B0010003040FF0101001F01011E00191D1712003C3C3C3C0000000000313437453256
:202D5B0035383033363946414243443A003078000A202020496E76616C69640A0A00202062
:202D7B002020496E707574000A53656C65637420446174610A547970653A0A0A0028312968
:202D9B0020427974650A0028322920576F72640A0028332920446F75626C650A2020202088
:202DBB00576F72640A0A20205F000A456E74657220446174610A53697A653A0A0A202030A4
:202DDB00785F5F5F5F000A57726974696E6720307835350A746F20616C6C0A65787465724C
:202DFB006E616C2052414D0A6C6F636174696F6E732E0A0A0057726974650A636F6D706C35
:202E1B006574652E0A000A566572696679696E6720616C6C0A52414D206C6F636174696F16
:202E3B006E730A657175616C20307835352E0A0A003173742052414D20636865636B0A754B
:202E5B006E7375636365737366756C2E0A0A004572726F722061743A0A003A2030780052D0
:202E7B00657475726E696E6720746F0A6D61696E206D656E752E003173742052414D20637B
:202E9B006865636B0A7375636365737366756C2E0A0A000A57726974696E672030784141B8
:202EBB000A746F20616C6C0A65787465726E616C2052414D0A6C6F636174696F6E732E0A36
:202EDB000A000A566572696679696E6720616C6C0A52414D206C6F636174696F6E730A6572
:202EFB007175616C20307841412E0A0A00326E642052414D20636865636B0A756E7375631E
:202F1B006365737366756C2E0A0A00326E642052414D20636865636B0A737563636573733A
:202F3B0066756C2E0A0A0052414D20636865636B0A636F6D706C6574652E0A0A000A456E8D
:202F5B0074657220736F757263650A7374617274696E672052414D0A616464726573733ABA
:202F7B000A0A0A202030785F5F5F5F000A456E7465720A64657374696E6174696F6E0A7383
:202F9B0074617274696E672052414D0A616464726573733A0A0A0A202030785F5F5F5F0071
:202FBB000A4D6F766520636F6D706C6574652E0A0A000A456E7465720A7374617274696E83
:202FDB00672052414D0A616464726573733A0A0A202030785F5F5F5F000A456E74657220A5
:202FFB007365617263680A76616C75653A0A0A202030785F5F000A30780020666F756E6437
:20301B000A0030783130303030000A74696D65732E00206E6F740A666F756E6420696E0A00
:20303B0065787465726E616C2052414D0A00202D0A000A002020283029202D204E657874DA
:20305B0020506167650A2020283129202D205072657620506167650A2020284529202D20F8
:20307B00454E440A000A456E64206F6620446174612E00456E64206F662044617461000AC6
:20309B0052657475726E696E6720746F0A4D61696E204D656E752E000A456E746572207347
:2030BB006F757263650A7374617274696E672052414D0A616464726573733A0A0A202030B3
:2030DB00785F5F5F5F000A0A4E65772076616C75653A0A202030785F5F000A0A0A0A2831FB
:2030FB00292045646974206E6578740A52414D206C6F636174696F6E0A0A00284529204595
:20311B006E64000A456E64206F6620646174612E0A000A52657475726E696E6720746F0AE5
:20313B006D61696E206D656E752E00206E6F740A666F756E6420696E0A616464726573734E
:20315B002072616E67650A0A0020666F756E642061740A74686520666F6C6C6F77696E67A6
:20317B000A6164647265737365733A0A0A00456E64206F6620446174612E000A456E7465B4
:20319B00720A7374617274696E672052414D0A616464726573733A0A0A20202030785F5F28
:2031BB005F5F000A456E746572207365617263680A76616C75653A0A0A20202030785F5F5D
:2031DB00000A28312920313230300A0028322920323430300A0028332920343830300A006E
:2031FB0028342920393630300A002835292031393230300A0A0043757272656E743A0A0059
:20321B0031393230300A00496E76616C69640A00313230300A00323430300A003438303053
:20323B000A00393630300A000A2020205F00310A00320A00330A00340A00350A00580A0034
:20325B000A52657475726E696E6720746F0A6C617374206D656E752E000A446174612042E1
:20327B006974730A0A0028312920380A0028322920390A000A43757272656E743A20003886
:20329B000A00390A000A5061726974790A0A00283129204576656E0A00283229204F64643B
:2032BB000A00283329204E6F6E650A004576656E0A004F64640A004E6F6E650A000A456E9B
:2032DB007465720A6368617261637465720A746F2073656E643A0A0A2020205F000A2831AA
:2032FB002920446174612052617465000A2832292023206F6620446174610A202020204219
:20331B00697473000A28332920506172697479000A2834292053656E642044617461000A3E
:20333B0028452920456E640A0020202043616D65726F6E0A20202042696E69616D6F770ACC
:20335B000020204543454E2D343333300A0A002841292052414D20434845434B0A00284268
:20337B0029204D4F56450A0028432920434F554E540A002844292044554D500A00284529D6
:20339B0020454449540A002846292046494E440A0028312920554152540A00537072696EEC
:0733BB0067203230323100BF
:2027A8007A10E4FBFCE58225E0F582E58333F583EB33FBEC33FCEB9508F5F0EC9509400645
:0927C800FCABF0438201DADD22D2
:06005800E478FFF6D8FD7C
:200036007900E94400601B7A009033C2780175A000E493F2A308B8000205A0D9F4DAF2757B
:02005600A0FF09
:1D27D100E5828508F0A4C582C0F08509F0A4D0F025F0C5838508F0A42583F58322CA
:2027EE00E508450960467A01E50825E0F508E509334012F509E5829508E583950940030AB8
:20280E0080E6C3E50913F509E50813F508C3E5829508F5F0E58395094005F58385F082C35C
:0D282E00E50913F509E50813F508DAE122C4
:20005E007800E84400600A790175A000E4F309D8FC7800E84400600C7900900001E4F0A3A0
:04007E00D8FCD9FAD7
:0D00290075817D122857E5826003020026D4
:1C283B0020F71430F6148883A88220F507E6A88375830022E280F7E49322E022AC
:042857007582002264
:00000001FF
