:04000000020029329F
:01000B0032C2
:0100130032BA
:01001B0032B2
:030023000200A137
:10008200752400752540752600752780E4F554F522
:0F00920055F560F561756202F563F564020026AD
:0300260002284667
:1000A100C021C0E0C0F0C082C083C007C006C00547
:1000B100C004C003C002C001C000C0D075D0002080
:1000C1009803020183859963C298756401120EEF4A
:1000D100856382122587858242E59854C0F5617453
:1000E10040B56102800B74C0B56103020178020161
:1000F10085E4B5620280117401B562028035740233
:10010100B562028058020185E54230E00C902E9CD8
:1001110075F080120B5B02018553637F902EAA75E7
:10012100F080120B5B856382120AF59001F41201D3
:10013100BB8051E54220E00B902E9C75F080120BA4
:100141005B804153637F902EAA75F080120B5B8513
:100151006382120AF59001F41201BB802753637F79
:10016100902EAA75F080120B5B856382120AF590BE
:1001710001F41201BB800D902EC475F080120B5B4F
:100181008002C299D0D0D000D001D002D003D004D7
:10019100D005D006D007D083D082D0F0D0E0D021D6
:1001A1003275985053877F758920758DFDD28ED217
:1001B100ACD2AF222099FDC29922AE82AF837C00DE
:1001C1007D00C3EC9EED64808FF063F08095F0506C
:1001D100147AE87B031ABAFF011BEA4B70F70CBCD7
:1001E10000E00D80DD22AF82C2B5D2B485248285C4
:1001F1002583EFF0C2B4D2B5D2B48524828525839C
:10020100E508F0C2B422AE82AF838F04C2B5D2B486
:10021100852482852583ECF0C2B4C2B5D2B485248D
:1002210082852583EEF0C2B4AE09AC08D2B5D2B551
:10023100D2B4852482852583EEF0C2B4D2B5D2B47E
:10024100852482852583ECF0C2B4227508079000CD
:100251000F1202927E007F007565008E828F83C02F
:1002610007C00612029BD006D0070EBE00010FC3C5
:10027100EE940DEF940040E075080490000F020227
:1002810092D2B490000DE0F542C2B4E54220E1F112
:1002910022AF08D2B4EFF0C2B422AE82AF83D2B49F
:1002A10090000D7401F0C2B4C007C006120282D0E2
:1002B10006D007D2B48E828F83E4F0C2B4AF65D288
:1002C100B490000DEFF0C2B422AE82AF83D2B490ED
:1002D100000D7401F0C2B4C007C006120282D0063C
:1002E100D007D2B48E828F83E0F542C2B4E5425486
:1002F1000F4430F542D2B490000DE4F0C2B485420F
:100301008222852A5A852C5B852E5CE4F508F50945
:1003110090D6BA12046C7582021204797508307590
:10032100090190008412045FD2B490000D7401F0B1
:10033100C2B4120282D2B4900005E0F542C2B4E523
:1003410042540F4430F542D2B490000DE4F0C2B4EF
:10035100854282120AF5D2B490000D7401F0C2B444
:10036100120282D2B4900004E0F542C2B4E54254D4
:100371000F4430F542D2B490000DE4F0C2B485428E
:1003810082120AF5902EC775F080120B5BD2B490E1
:10039100000D7401F0C2B4120282D2B4900003E0E5
:1003A100F542C2B4E542540F4430F542D2B4900054
:1003B1000DE4F0C2B4854282120AF5D2B490000D68
:1003C1007401F0C2B4120282D2B4900002E0F5428C
:1003D100C2B4E542540F4430F542D2B490000DE46A
:1003E100F0C2B4854282120AF5902EC775F08012D0
:1003F1000B5BD2B490000D7401F0C2B4120282D230
:10040100B4900001E0F542C2B4E542540F4430F526
:1004110042D2B490000DE4F0C2B4854282120AF5D2
:10042100D2B490000D7401F0C2B4120282D2B49021
:100431000000E0F542C2B4E542540F4430F542D227
:10044100B490000DE4F0C2B4854282120AF5855AD7
:100451002A752B00855B2C752D00855C2E228582EB
:100461002A85832B85082C85092D22858230858359
:100471003185083285093322E582FF24F7500122B4
:10048100EF60068F067F0080047E017F008E2E22A2
:10049100E582FF24FC404EEF2F90049E738006807E
:1004A10014802280307F487534F0753500753640F0
:1004B100753701803E7F287534407535017536F0FA
:1004C100753700802E7F887534F07535007536409C
:1004D100753701801E7FE87534407535017536F03A
:1004E100753700800E7F487534F0753500753640DC
:1004F1007537018F087582360201E7AE82AF83C27C
:10050100B5D2B4852482852583742AF0C2B4D2B5CC
:10051100D2B48524828525838F05EDF0C2B4D2B58E
:10052100D2B4852482852583EEF0C2B4D2B5D2B48B
:10053100852482852583E50BF0C2B4D2B5D2B4857A
:100541002482852583E50AF0C2B4C2B5D2B48524DC
:1005510082852583742BF0C2B4D2B5D2B4852482AE
:10056100852583E509F0C2B4D2B5D2B4852482854C
:100571002583E508F0C2B4D2B5D2B485248285259D
:1005810083E50DF0C2B4D2B5D2B48524828525832A
:10059100E50CF0C2B4227534F0753500753640753E
:1005A1003701C2B4D2B5C2B5D2B4852482852583C0
:1005B100E4F0C2B4D2B5D2B4852482852583E4F0B7
:1005C100C2B4D2B5D2B4852482852583E4F0C2B405
:1005D100D2B5D2B4852482852583E4F0C2B49000DB
:1005E100C81201BB7508007582011201E790003243
:1005F1001201BB7508007582281201E790000A12EA
:1006010001BB7508237582C01201E7750811758257
:10061100C11201E7C2B5D2B485248285258374C590
:10062100F0C2B4D2B5D2B4852482852583743DF05D
:10063100C2B4D2B5D2B48524828525837430F0C288
:10064100B47508AA7582C71201E7750888758236E4
:100651001201E7C2B5D2B4852482852583743AF0AC
:10066100C2B4D2B5D2B48524828525837455F0C233
:10067100B4D2B5D2B4852482852583E4F0C2B475A1
:10068100081B7509009000B11202077508077582F1
:10069100B71201E77508007582111201E790009603
:1006A1001201BB7508007582291201E79001F4124D
:1006B10001BBE53424FFF50AE53534FFF50BE536DA
:1006C10024FFF50CE53734FFF50DE4F508F5099045
:1006D10000000204FCAE82AF8374012EF50AE43FF0
:1006E100F50B74012566F50CE43567F50D85660893
:1006F1008567098E828F831204FCC2B5D2B485242A
:1007010082852583742CF0C2B4D2B5D2B4852482FB
:10071100852583E569F0C2B4D2B485248285258319
:10072100E568F0C2B422AE82AF83C3EE94F0EF94D9
:1007310000500BC3E56A9440E56B9401400122E54A
:100741006C2EFCE56D3FFD1CBCFF011DC3EC94F05C
:10075100ED9400400A74F0C39EF56CE49FF56DE5DD
:100761006E256AFCE56F356BFD1CBCFF011DC3ECFA
:100771009440ED9401400D7440C3956AF56E740187
:10078100956BF56FE56C2EFCE56D3FFDEC24FFF5F7
:100791000AED34FFF50BE56E256AFCE56F356BFD5F
:1007A100EC24FFF50CED34FFF50D856A08856B0926
:1007B1008E828F831204FCC2B5D2B4852482852532
:1007C10083742CF0C2B4D2B5AF71AD6EAE6FED4E85
:1007D1006030AB6CAC6DEB4C6021D2B4852482856A
:1007E1002583EFF0C2B4D2B4852482852583E570D8
:1007F100FAF0C2B41BBBFF011C80DB1DBDFF011E53
:1008010080CC22AE82AF838F05E4F508F509750A25
:10081100EFF50B750C3F750D01900000C006C0058A
:100821001204FCD005D006C2B5D2B4852482852538
:1008310083742CF0C2B4D2B5D2B4852482852583C9
:10084100EDF0C2B4D2B4852482852583EEF0C2B422
:100851007CB07F048C028F031CBCFF011FEA4B603C
:10086100667B10D2B4852482852583EDF0C2B4D293
:10087100B4852482852583EEF0C2B4D2B485248266
:10088100852583EDF0C2B4D2B4852482852583EE1B
:10089100F0C2B4D2B4852482852583EDF0C2B4D2EE
:1008A100B4852482852583EEF0C2B4D2B485248236
:1008B100852583EDF0C2B4D2B4852482852583EEEB
:1008C100F0C2B4DB9E808D7F3F8F041FEC601AD293
:1008D100B4852482852583EDF0C2B4D2B485248207
:1008E100852583EEF0C2B480E02285827A85837B00
:1008F100C3E57A94F0E57B648094805059C3E57236
:100901009440E57364809481504CAC797D008C08EF
:100911008D09900006C005C004122907AA82AB8385
:10092100D004D005EA257AFAEB357BFB1ABAFF0130
:100931001BEB20E721EDC40354F8CCC403CC6CCCF1
:1009410054F8CC6CFDEC2572FCED3573FD1CBCFF3D
:10095100011DED30E701227401B5790474018001B4
:10096100E4FDFCE575B57708E576B57803D380013C
:10097100C392007B00BB0600400122BB0505757CCC
:10098100008030857408750900900005C005C00419
:10099100C003122907A882A983D003D004D005E897
:1009A1002491F8E93429F9EB28F582E439F583E457
:1009B10093F57C8BF0E579A4257AF8E57B35F0F9A0
:1009C100887D897E7A00BA08004003020AF1E57C3D
:1009D10020E003020A5FED60408B067F00EE257A7E
:1009E100F582EF357BF5838A067F00EE2572F56689
:1009F100EF3573F567857568857669C005C004C0F4
:100A010003C002C001C0001206D6D000D001D0023E
:100A1100D003D004D005020AE78AF0E579A4257253
:100A2100F56AE57335F0F56BAE797F008E6C8F6DED
:100A31008E6E8F6F857570857671857D82857E83DB
:100A4100C005C004C003C002C001C000120727D006
:100A510000D001D002D003D004D005020AE7300053
:100A610003020AE7EC603F8B067F00EE257AF582F0
:100A7100EF357BF5838A067F00EE2572F566EF354B
:100A810073F567857768857869C005C004C003C0C0
:100A910002C001C0001206D6D000D001D002D0039E
:100AA100D004D00580408AF0E579A42572F56AE585
:100AB1007335F0F56BAE797F008E6C8F6D8E6E8F16
:100AC1006F85777085787188828983C005C004C07D
:100AD10003C002C001C000120727D000D001D0021C
:100AE100D003D004D005E57CC313F57C0A0209C705
:100AF1000B020976AF82BF0A22AD2EE4C40354F87B
:100B0100CDC403CD6DCD54F8CD6DFEED252CF52C66
:100B1100EE352DF52DE4F52AF52B22BF0D012285A9
:100B21002C72852D738F748530758531768532777A
:100B3100853378852E79852A82852B831208EB856A
:100B41002E08750900900006122907AE82AF83EEC8
:100B5100252AF52AEF352BF52B22AD82AE83AFF096
:100B61007B007C00EB2DF8EC3EF98F0288828983B3
:100B71008AF0122971FA60208A82C007C006C00576
:100B8100C004C003120AF5D003D004D005D006D0AA
:100B9100070BBB00CF0C80CC227590F075640075FB
:100BA10090F08590225322F074F0B522028004E582
:100BB1006460EC12030390000A1201BBE59054F04B
:100BC100F52274F0B52204E56460E8900001120199
:100BD100BBE59054F0F52274F0B52204E56460D3CE
:100BE100E5646003020CA97590FEE59054F0F522CE
:100BF10074F0B522028005752300803D7590FDE5F6
:100C01009054F0F52274F0B522028005752301801D
:100C1100287590FBE59054F0F52274F0B52202801E
:100C21000575230280137590F7E59054F0F5227451
:100C3100F0B5220280B175230374E0B52215E523D6
:100C410075F004A4248CF582742E35F0F583E493B9
:100C5100F5822274D0B52218E52375F004A4248C02
:100C6100FE742E35F0FF8E828F83A3E493F58222EA
:100C710074B0B52219E52375F004A4248CFE742EFA
:100C810035F0FF8E828F83A3A3E493F58222E523BF
:100C910075F004A4248CFE742E35F0FF8E828F83B0
:100CA100A3A3A3E493F58222756400E56324C0F550
:100CB1008222AF82BF30005003020D44EF24B950AD
:100CC10003020D44EF24D0FF240A83F582EF241B95
:100CD10083F583E47304080C1014181C20242844A1
:100CE1004444444444442C3034383C400D0D0D0DF3
:100CF1000D0D0D0D0D0D0D0D0D0D0D0D0D0D0D0D23
:100D01000D0D0D7F00803E7F01803A7F0280367F8E
:100D11000380327F04802E7F05802A7F0680267F14
:100D21000780227F08801E7F09801A7F0A80167F34
:100D31000B80127F0C800E7F0D800A7F0E80067F54
:100D41000F80027F008F8222AE82AF83C3740F9E19
:100D5100E49F5003020DC6EE240A83F582EE2414AB
:100D610083F583E473868A8E92969A9EA2A6AAAE92
:100D7100B2B6BABEC20D0D0D0D0D0D0D0D0D0D0D41
:100D81000D0D0D0D0D7F30803E7F31803A7F328019
:100D9100367F3380327F34802E7F35802A7F3680C4
:100DA100267F3780227F38801E7F39801A7F4180DD
:100DB100167F4280127F43800E7F44800A7F4580E8
:100DC100067F4680027F308F8222E582FFC4540F66
:100DD100FE8E4F755000534F0F755000854F828521
:100DE1005083C007120D49858253120AF5D0077E40
:100DF10000740F5FF54F8E50854F82855083120D21
:100E010049858253020AF5AE82E583FFC4540FF58A
:100E11004F755000534F0F755000854F8285508399
:100E2100C007C006120D49858253902EC975F08006
:100E3100120B5B855382120AF5D006D0078F4F75CE
:100E41005000534F0F755000854F82855083C00766
:100E5100C006120D49858253120AF5D006D0078EBD
:100E61004FEFC4C54FC4540F654FC54F540FC54F05
:100E7100654FC54FF550534F0F755000854F828513
:100E81005083C007C006120D49858253120AF5D05E
:100E910006D0078E4F8F50534F0F755000854F82EC
:100EA100855083120D49858253020AF5AE82AF83C4
:100EB100C2B48E828F83E508F0D2B422AF827D0066
:100EC1007E00C2B48D828E83EFF0D2B40DBD0001DD
:100ED1000EC374FE9D74FF9E50E822AE82AF83C2A2
:100EE100B48E828F83E0F542D2B48542822275822C
:100EF10004120491E4F508F50990D6BA12046C7550
:100F01008203120479900000120804E4F508F5093F
:100F110090000002045F120EEFE4F508F50990F865
:100F21000012046C902ECC75F080120B5B902EDABF
:100F310075F080120B5B9000C81201BB020EEFE44A
:100F4100F539F53AF508F50990FFFF12046C120B1B
:100F51009A858238E4F508F50990FFFF12046C8543
:100F61003882120AF5853882120CB3AF82EFC4546D
:100F7100F0FEE44239EE423A120B9A858238E4F5EA
:100F810008F50990FFFF12046C853882120AF58575
:100F91003882120CB3AF828F06E44239EE423A1224
:100FA1000B9A858238E4F508F50990FFFF12046C6D
:100FB100853882120AF5853882120CB3AF82E4C4F7
:100FC10054F0CFC4CF6FCF54F0CF6FFEEF4239EE64
:100FD100423A120B9A858238E4F508F50990FFFF31
:100FE10012046C853882120AF5853882120CB3AF6F
:100FF100827E00EF4239EE423A22E4F508F509908B
:10100100FFFF12046C753B00120B9A858238E4F5E0
:1010110008F50990FFFF12046C853882120AF585E4
:101021003882120CB3E582C454F0423B120B9A850C
:101031008238E4F508F50990FFFF12046C853882C7
:10104100120AF5853882120CB3E582423B22753FC4
:1010510000753C00120EEFE4F508F50990FFFF1250
:10106100046C902EE475F080120B5B902EF975F0F4
:1010710080120B5B902F0375F080120B5B902F0D8C
:1010810075F080120B5B852E087509009000061221
:101091002907AE82AF83E52AC39EF52AE52B9FF58A
:1010A1002B852A5D852C5E852E5FE4F508F5099078
:1010B100FFFF12046C120B9A858238855D2A752B0D
:1010C10000855E2C752D00855F2E853882120AF50C
:1010D1007431B53802800E7432B53802800F743322
:1010E100B5381A8010753C01753F018016753C02B8
:1010F100753F01800E753C04753F018006120F1784
:10110100753F00E53F700302105522E4F53FF53DC0
:10111100F53E120EEF902F2675F080120B5BE52E37
:1011210075F018A4FEAFF0E52AC39EF52AE52B9FC2
:10113100F52B852A5D852C5E852E5FE4F539F53A20
:10114100F508F50990FFFF12046C120B9A8582389D
:10115100855D2A752B00855E2C752D00855F2E859A
:101161003882120AF5852A5D852C5E852E5F8538C9
:1011710082120CB3AF82EFC454F0FEE44239EE4266
:101181003A120B9A858238855D2A752B00855E2C73
:10119100752D00855F2E853882120AF5852A5D85B9
:1011A1002C5E852E5F853882120CB3AF828F06E4E8
:1011B1004239EE423A120B9A858238855D2A752BA7
:1011C10000855E2C752D00855F2E853882120AF50B
:1011D100852A5D852C5E852E5F853882120CB3AF22
:1011E10082E4C454F0CFC4CF6FCF54F0CF6FFEEF81
:1011F1004239EE423A120B9A858238855D2A752B67
:1012010000855E2C752D00855F2E853882120AF5CA
:10121100852A5D852C5E852E5F853882120CB3AFE1
:10122100827E00EF4239EE423A85393D853A3EE50C
:101231003D453E7009120F17753F00021113753FAE
:101241000122754200754000120EEF902F4275F099
:1012510080120B5B758255120EBD75085590FFFF0C
:10126100120EADE4F508F5099007E012046C902F19
:101271007175F080120B5B9000C81201BB120EEF6A
:10128100902F8275F080120B5B7E007F008E828F23
:1012910083C007C006120EDC858242D006D0070E3D
:1012A100BE00010F7455B5420474018001E4FD6074
:1012B10009C374FE9E74FF9F50D3ED601190FFFF30
:1012C100C007C006120EDC858242D006D0077455D5
:1012D100B542028061E4F508F50990F800C007C045
:1012E1000612046C902FAD75F080120B5B900064B8
:1012F1001201BB902FCB75F080120B5BD006D0078B
:10130100EE24FFF582EF34FFF583120E08902FD6FD
:1013110075F080120B5B854282120DCBE4F508F566
:101321000990FFFF12046C902FDB75F080120B5BAC
:101331009000C80201BBE4F508F5099007E012042A
:101341006C902FF375F080120B5B9000C81201BBFB
:10135100120EEF90300F75F080120B5B7582AA129E
:101361000EBD7508AA90FFFF120EADE4F508F50950
:101371009007E012046C902F7175F080120B5B9056
:1013810000C81201BB120EEF90303E75F080120BB7
:101391005B7E007F008E828F83C007C006120EDC49
:1013A100858242D006D0070EBE00010F74AAB54255
:1013B1000474018001E4FD6009C374FE9E74FF9F03
:1013C10050D3ED601190FFFFC007C006120EDC85FF
:1013D1008242D006D00774AAB542028061E4F508C2
:1013E100F50990F800C007C00612046C90306975C9
:1013F100F080120B5B9000641201BB902FCB75F053
:1014010080120B5BD006D007EE24FFF582EF34FF8C
:10141100F583120E08902FD675F080120B5B854272
:1014210082120DCBE4F508F50990FFFF12046C90D0
:101431002FDB75F080120B5B9000640201BBE4F5B9
:1014410008F5099007E012046C90308775F080125E
:101451000B5B9030A375F080120B5B90006412015E
:10146100BBE4F508F50990FFFF12046C902FDB75C2
:10147100F080120B5B9000640201BBE4F556F55756
:10148100F558F559F543F544F545F546F547F54861
:10149100F549F54AF54BF54CF54DF54E120EEF9029
:1014A10030B975F080120B5BE52E75F018A4FEAF14
:1014B100F0E52AC39EF52AE52B9FF52B120F4085F7
:1014C1003943853A44120EEF9030E875F080120BE3
:1014D1005BE52E75F018A4FEAFF0E52AC39EF52A50
:1014E100E52B9FF52B120F40853947853A4812109D
:1014F1004F120EEF12110CC3E5439547E544954891
:101501005063853C08750900853D82853E8312291B
:1015110007AE82AF83EE2547FCEF3548FD8C568D33
:1015210057755800755900C374FF955674FF955748
:10153100E49558E4955950087549FF754AFF800AAA
:10154100EE2547F549EF3548F54AE549C39547F595
:101551003DE54A9548F53EE53D2543F545E53E35F2
:1015610044F5468061853C08750900853D82853ECC
:1015710083122907AE82AF83EE2543FCEF3544FD8C
:101581008C568D57755800755900C374FF95567464
:10159100FF9557E49558E4955950087545FF7546F0
:1015A100FF800AEE2543F545EF3544F546E545C391
:1015B1009543F53DE5469544F53EE53D2547F5491D
:1015C100E53E3548F54AC3E5439547E5449548501E
:1015D1004EC3E5479545E5489546504385454B85BE
:1015E100464C85494D854A4EC3E54D9547E54E9597
:1015F10048406D854B82854C83120EDC8582428585
:101601004208854D82854E83120EAD154B74FFB590
:101611004B02154C154D74FFB54D02154E80C98511
:10162100434B85444C85474D85484EC3E549954D0F
:10163100E54A954E402A854B82854C83120EDC8506
:101641008242854208854D82854E83120EAD054B3F
:10165100E4B54B02054C054DE4B54DCF054E80CBAD
:10166100120EEFE4F508F5099007E012046C9031D1
:101671001C75F080120B5B9000641201BBE4F5084D
:10168100F50990FFFF12046C902FDB75F080120BAF
:101691005B9000640201BBE4F556F557F558F55926
:1016A100F543F544F545F546F53DF53EF551F55261
:1016B100F554F555F549F54AF540120EEF90312EE6
:1016C10075F080120B5BE52E75F018A4FEAFF0E506
:1016D1002AC39EF52AE52B9FF52B120F408539432E
:1016E100853A44120EEF12110C120EEF903155751E
:1016F100F080120B5BE52E75F00CA4FEAFF0E52A2D
:10170100C39EF52AE52B9FF52B120FFB853B5175E7
:101711005200E53D2543FEE53E3544FF8E568F5789
:10172100755800755900AC43AD447E007F00C3E598
:10173100569CE5579DE5589EE5599F50147545FF08
:1017410074FFF546C39543F53D74FF9544F53E801E
:101751000CE53D2543F545E53E3544F546AE43AF41
:10176100448E048F05C3E5459CE5469D404CE5400C
:1017710070488E828F83C007C006120EDC858242BC
:10178100D006D007AC427D00ECB5511AEDB552162A
:1017910074FFB55409B55506754901754A000554DC
:1017A100E4B5540205558E048F05BCFF06BDFF0349
:1017B1007540010EBE00AA0F80A7E5544555700D76
:1017C1007401B5490614B54A028002805F120EEF1A
:1017D100E4F508F5099007E012046C90317275F098
:1017E10080120B5B855182120DCB90317675F080A2
:1017F100120B5BE5544555600B8554828555831268
:101801000E0880167401B5490614B54A028002809B
:101811000990317E75F080120B5B90318675F080F6
:10182100120B5B90012C1201BB021E68120EEF908D
:10183100317275F080120B5B855182120DCB9031A4
:101841008E75F080120B5B854382854483120E08EE
:101851009031AA75F080120B5B8545828546831213
:101861000E0890012C1201BB120EEF902FDB75F0C8
:1018710080120B5B9000C80201BBE4F54DF54EF5FB
:1018810040F547F54885434B85444C120EEF758270
:10189100021204799031AE75F080120B5BC3E53D05
:1018A100940AE53E9400500302194A75470A7548A7
:1018B100007E007F00854B82854C83C007C00612E5
:1018C1000E08902FD675F080120B5BD006D0077CE6
:1018D100007D00AA3C7B00C3EC9AED64808BF06331
:1018E100F08095F0502B854B82854C83C007C00654
:1018F100C005C004120EDC120DCBD004D005D006F9
:10190100D007054BE4B54B02054C0CBC00C50D805E
:10191100C29031AE75F080C007C006120B5BD006D5
:10192100D007153D74FFB53D02153E0EBE00010FF7
:10193100C3EE940AEF6480948050030218B6054DFB
:10194100E4B54D02054E021AAFE53D453E70030276
:101951001A39C3E53D940AE53E94004003021A3961
:10196100853D47853E48E53D453E6060854B828526
:101971004C83120E08902FD675F080120B5B7E00FF
:101981007F00AC3C7D00C3EE9CEF64808DF063F082
:101991008095F05023854B82854C83C007C0061289
:1019A1000EDC120DCBD006D007054BE4B54B02057A
:1019B1004C0EBE00CD0F80CA9031AE75F080120B77
:1019C1005B153D74FFB53D02153E809AE549454AD8
:1019D100605C854B82854C83120E08902FD675F082
:1019E10080120B5B7E007F008E048F05C3EC95494E
:1019F100ED954A5023854B82854C83C007C0061262
:101A01000EDC120DCBD006D007054BE4B54B020519
:101A11004C0EBE00D30F80D0E54BC39549F54BE585
:101A21004C954AF54C9031AE75F080120B5B054D2B
:101A3100E4B54D7A054E8076E53D453E7070E54949
:101A4100454A606A853D47853E48854B82854C8382
:101A5100120E08902FD675F080120B5B7E007F006E
:101A61008E048F05C3EC9549ED954A5023854B8231
:101A7100854C83C007C006120EDC120DCBD006D0F8
:101A810007054BE4B54B02054C0EBE00D30F80D0C9
:101A91009031AE75F080120B5B054DE4B54D02053A
:101AA1004EE54BC39549F54BE54C954AF54C750808
:101AB100FA75090090000012045F9031B075F08052
:101AC100120B5B854D82854E83120E08120B9A858F
:101AD10082387430B5380280127431B538028065AD
:101AE1007445B53803021BE3021BFA753F01E53D5E
:101AF100453E6006754000021C3E754000853C086D
:101B0100750900854782854883122907AE82AF8314
:101B1100E54BC39EF54BE54C9FF54CE547253DF55F
:101B21003DE548353EF53E154D74FFB54D02154E68
:101B3100120EEF9031E175F080120B5B9000C8122C
:101B410001BB021C3EC37401954DE4954E5049758D
:101B51004000740A2547FEE43548FF853C087509B5
:101B6100008E828F83C007C006122907AC82AD8325
:101B7100D006D007E54BC39CF54BE54C9DF54CE5F4
:101B81004D24FEF54DE54E34FFF54EEE253DF53D78
:101B9100EF353EF53E021C3E754000120EEF9031CE
:101BA100EF75F080120B5B9000C81201BB853C08F9
:101BB100750900854782854883122907AE82AF8364
:101BC100E54BC39EF54BE54C9FF54C154D74FFB5A8
:101BD1004D02154EE547253DF53DE548353EF53EBF
:101BE100805B120EEF9031FB75F080120B5B900061
:101BF100C81201BB7540018044754000120F17E502
:101C01004745486038853C08750900854782854805
:101C110083122907AE82AF83E54BC39EF54BE54C9A
:101C21009FF54C154D74FFB54D02154EE547253D09
:101C3100F53DE548353EF53EE4F547F548E54070AC
:101C41000302188C22E4F556F557F558F559F5437A
:101C5100F544F545F546F53CF53DF53EF549F54AC2
:101C6100120EEF90321475F080120B5BE52E75F0B9
:101C710018A4FEAFF0E52AC39EF52AE52B9FF52BAC
:101C8100120F40853943853A4412104F120EEF125C
:101C9100110CAE3C7F00853D08853E098E828F8305
:101CA100C007C006122907AC82AD83D006D007EC6D
:101CB1002543FAED3544FB8A568B57755800755903
:101CC10000A843A9447A007B00C3E55698E55799DB
:101CD100E5589AE5599B50087545FF7546FF8012F6
:101CE100EC2543FCED3544FDEC24FFF545ED34FFD7
:101CF100F546E545C39543FCE5469544FD0CBC001E
:101D0100010D8E088F098C828D83C007C006C00526
:101D1100C0041228DE85823D85833ED004D005D0E3
:101D210006D0078E088F098C828D83122924858223
:101D31004985834A02187BAE82AF83C007C0061271
:101D41000EDC858242120EEF9031AE75F080120BDF
:101D51005BD006D0078E828F83C007C006120E08A3
:101D6100902FD675F080120B5B854282120DCB90BD
:101D7100324275F080120B5BE52E75F00CA4FCADC0
:101D8100F0E52AC39CF52AE52B9DF52B120FFBD01C
:101D910006D007853B088E828F83120EAD90325696
:101DA10075F080120B5B90327775F080020B5B75DA
:101DB1004000754100753F00120EEF90312E75F015
:101DC10080120B5BE52E75F018A4FEAFF0E52AC377
:101DD1009EF52AE52B9FF52B120F40E5417052E548
:101DE10040704E853982853A83121D38120B9A85CF
:101DF10082387431B5380280077445B53827801DA3
:101E0100753F0174FFB53908B53A05754101801B6D
:101E11000539E4B53902053A754100800E753F0177
:101E21007540018006753F00120F17E53F60B480D1
:101E3100AA120EEF7401B54114E4F508F50990F802
:101E41000012046C90327F75F080120B5BE4F50890
:101E5100F50990FFFF12046C90328E75F080120B21
:101E61005B9000C80201BBE4F547F548F54DF54E1E
:101E7100120EEF85434B85444C854B82854C831272
:101E81000EDC858242AE427F00EEB55106EFB552BF
:101E9100028021C3E54B9545E54C95465016054B0F
:101EA100E4B54B02054C854B82854C83120EDC85D3
:101EB100824280D1AE427F00EEB55106EFB55202AB
:101EC1008058E545B54B53E546B54C4E120EEF90A3
:101ED100317275F080120B5B855182120DCB9032FD
:101EE100A775F080120B5B854382854483120E082F
:101EF1009031AA75F080120B5B854582854683126D
:101F01000E089000C81201BB120EEF902FDB75F086
:101F110080120B5B9000640201BB120EEFE4F50826
:101F2100F5099007E012046C90317275F080120B84
:101F31005B855182120DCB9032C575F080120B5B1F
:101F41009000C81201BB854B47854C48120EEF85A6
:101F5100474B85484C854B82854C83120E0875543E
:101F610007755500054DE4B54D02054E74FFB54B9F
:101F710005B54C02804C054BE4B54B02054C854B35
:101F810082854C83120EDC858242AE427F00EEB523
:101F9100511FEFB5521B155474FFB55402155590DE
:101FA10031AE75F080120B5B854B82854C83120E2E
:101FB10008C3E54B9545E54C95465006E554455516
:101FC10070B47508FA75090090000012045F7582FB
:101FD10002120479E4F508F50990FFFF12046C90F0
:101FE10031B075F080120B5B854D82854E83120EE8
:101FF10008120B9A8582387430B538028013743117
:10200100B538030220B37445B538030221330221E8
:1020110047C3E54B9545E54C9546401E120EEF90A2
:1020210032EA75F080120B5B9000C81201BB154DAE
:1020310074FFB54D02154E022153054BE4B54B0219
:10204100054C854B82854C83120EDC858242AE4263
:102051007F00EEB5510AEFB55206854B47854C48D6
:10206100C3E54B9545E54C9546500CAE427F00EEDD
:10207100B551C7EFB552C3C3E54B9545E54C954600
:102081005003022153AE427F00EEB55107EFB55226
:1020910003022153120EEF9032EA75F080120B5BAE
:1020A1009000C81201BB154D74FFB54D02154E02CB
:1020B10021537401B54D0614B54E028002801E12E3
:1020C1000EEF9032EA75F080120B5B9000C812019E
:1020D100BB154D74FFB54D02154E02215385474B7B
:1020E10085484CE4F554F555C3E5549408E55594F9
:1020F10000502B154B74FFB54B02154C854B828557
:102101004C83120EDC858242AE427F00EEB551D87F
:10211100EFB552D40554E4B554CE055580CA854B6C
:1021210047854C48E54D24FEF54DE54E34FFF54E0F
:102131008020120EEF902FDB75F080120B5B900068
:10214100C81201BB800C120F17154D74FFB54D025B
:10215100154E7445B5380122021F4D22E4F556F59E
:1021610057F558F559F543F544F545F546F53CF570
:102171003DF53EF551F552120EEF9032F775F080B4
:10218100120B5BE52E75F018A4FEAFF0E52AC39E95
:10219100F52AE52B9FF52B120F40853943853A44EB
:1021A100120EEF12110C120EEF90331F75F0801208
:1021B1000B5BE52E75F00CA4FEAFF0E52AC39EF58E
:1021C1002AE52B9FF52B120FFB853B51755200E53C
:1021D1003D2543FEE53E3544FF8E568F5775580029
:1021E100755900AC43AD447E007F00C3E5569CE5C4
:1021F100579DE5589EE5599F50147545FF74FFF5AD
:1022010046C39543F53D74FF9544F53E800CE53D8D
:102211002543F545E53E3544F546021E68758204C1
:10222100120491E4F508F50990D6BA12046C75828E
:1022310003120479900000120804E4F508F50990EE
:10224100000002045F120EEF90333D75F080120B17
:102251005B90334875F080120B5B90335275F080C0
:10226100120B5B90335C75F080120B5B90336675DB
:10227100F080120B5B90337275F080120B5BE58777
:102281005480F5607480B5601B74FDB58D0B90337F
:102291007C75F080120B5B804B90338375F080125C
:1022A1000B5B8040AF8DBFE802800FBFF402801549
:1022B100BFFA02801BBFFD2C802190338C75F0800A
:1022C100120B5B801F90339275F080120B5B8014B0
:1022D10090339875F080120B5B800990339E75F0F6
:1022E10080120B5B9033A475F080120B5BE52E75A9
:1022F100F006A4FEAFF0E52AC39EF52AE52B9FF573
:102301002B120B9A8582387431B53802801F7432D2
:10231100B5380280307433B5380280407434B53832
:102321000280507435B5380280600223A2753F01E6
:10233100758DE853877F7540019033AA75F080123F
:102341000B5B0223B4753F01758DF453877F754094
:10235100019033AD75F080120B5B8057753F0175AD
:102361008DFA53877F7540019033B075F080120B61
:102371005B8040753F01758DFD53877F75400190EE
:1023810033B375F080120B5B8029753F01758DFDAC
:102391004387807540019033B675F080120B5B80E6
:1023A10012753F009033B975F080120B5B120F1755
:1023B100754000E54070030222499000C80201BB4C
:1023C100120EEF9033BC75F080120B5B9033C97520
:1023D100F080120B5B9033D075F080120B5B903361
:1023E100D775F080120B5BE59854C0F5617440B568
:1023F1006102800774C0B56116800B9033E275F0FD
:1024010080120B5B8009902EC475F080120B5B90DB
:1024110033A475F080120B5BE52E75F006A4FEAFB8
:10242100F0E52AC39EF52AE52B9FF52B120B9A8521
:1024310082387431B5380280077432B5383380146C
:10244100753F0153987F7540019033AA75F0801252
:102451000B5B802F753F014398C07540019033ADF0
:1024610075F080120B5B9000C81201BB12249180A1
:1024710012753F009033B975F080120B5B120F1784
:10248100754000E54070030223C49000C80201BBFF
:10249100120EEF9033E575F080120B5B9033EF7500
:1024A100F080120B5B9033F975F080120B5B903466
:1024B1000275F080120B5B9033D775F080120B5BC5
:1024C100E4B56202800E7401B5620280127402B535
:1024D1006221801690340C75F080120B5B80149091
:1024E100341275F080120B5B800990341775F080FF
:1024F100120B5B9033A475F080120B5BE52E75F027
:1025010006A4FEAFF0E52AC39EF52AE52B9FF52B25
:10251100120B9A8582387431B53802800E7432B547
:102521003802801B7433B5383E8028753F017562CF
:10253100007540019033AA75F080120B5B803A75EB
:102541003F017562017540019033AD75F080120B4A
:102551005B8026753F017562027540019033B0754D
:10256100F080120B5B8012753F009033B975F080DB
:10257100120B5B120F17754000E5407003022494A3
:102581009000C80201BBAF827E007C007D00C3ECDD
:102591009408ED6480948050178CF005F0EF800270
:1025A100C313D5F0FB30E0010E0CBC00E10D80DE61
:1025B1008E8222120EEF90341D75F080120B5BE5B6
:1025C1002E75F006A4FEAFF0E52AC39EF52AE52B91
:1025D1009FF52B120B9A858238120AF585388212E3
:1025E1002587858242E59854C0F5617440B5610242
:1025F100800774C0B56138802DE4B56202800E7425
:1026010001B5620280117402B562248014E5423082
:10261100E01D4338808018E54220E0134338808074
:102621000E53387F8009902EC475F080120B5B85A4
:1026310038991201B59000C81201BB020EEF120EBB
:10264100EF90343D75F080120B5B90344C75F08047
:10265100120B5B90346475F080120B5B90347075D3
:10266100F080120B5B90347F75F080120B5B120BC4
:102671009A8582387431B53802801C7432B53802BB
:10268100801D7433B53802801E7434B53802801F42
:102691007445B538448020122246754000804012AE
:1026A10023C175400080381224917540008030129A
:1026B10025B4754000802812221EE4F508F5099022
:1026C100FFFF12046C90328E75F080120B5B90004C
:1026D100C81201BB7540018006120F17754000E555
:1026E10040700302263F22753800852682852783A4
:1026F100D2B474C0F0C2B4120EEFE4F508F509903B
:1027010007E012046C90348975F080120B5B9034F1
:10271100A175F080120B5BE4F508F50990FFFF123B
:10272100046C9034AF75F080120B5B9034BE75F081
:1027310080120B5B9034C875F080120B5B9034D320
:1027410075F080120B5B9034DD75F080120B5B909D
:1027510034E775F080120B5B9034F175F080120B49
:102761005BE4F508F50990FFFF12046C7582011214
:10277100047975083075090190000312045F9034E3
:10278100FB75F080120B5B120303120B9A858238E2
:102791007431B538030228267441B5380280267495
:1027A10042B53802802F7443B5380280387444B57D
:1027B100380280417445B53802804A7446B5380202
:1027C1008053022836852682852783D2B47488F007
:1027D100C2B4021243852682852783D2B47483F062
:1027E100C2B402147C852682852783D2B474C6F0D4
:1027F100C2B4021698852682852783D2B474A1F0CB
:10280100C2B4021C46852682852783D2B47486F021
:10281100C2B4021DB0852682852783D2B4748EF09E
:10282100C2B402215D852682852783D2B474F9F072
:10283100C2B402263F852682852783D2B474FFF075
:10284100C2B4020F17C2B5C2B41201A212024C8562
:102851002682852783D2B474FEF0C2B4900064123C
:1028610001BB852682852783D2B474FCF0C2B49063
:1028710000641201BB852682852783D2B474F8F0E7
:10288100C2B49000641201BB852682852783D2B42D
:1028910074F0F0C2B49000641201BB8526828527D2
:1028A10083D2B474E0F0C2B49000641201BB8526F7
:1028B10082852783D2B474C0F0C2B490006412013F
:1028C100BBC2B4D2B5120597852682852783D2B4BF
:0D28D10074F9F0C2B4120EEF1226E880FB7D
:1029910000000000003E5B4F5B3E3E6B4F6B3E1CF8
:1029A1003E7C3E1C183C7E3C181C577D571C1C5E0F
:1029B1007F5E1C00183C1800FFE7C3E7FF001824E6
:1029C1001800FFE7DBE7FF30483A060E2629792990
:1029D10026407F050507407F05253F5A3CE73C5AC5
:1029E1007F3E1C1C08081C1C3E7F14227F22145FA2
:1029F1005F005F5F06097F017F006689956A6060FD
:102A010060606094A2FFA29408047E040810207EF6
:102A1100201008082A1C08081C2A08081E1010107B
:102A2100100C1E0C1E0C30383E3830060E3E0E06C1
:102A3100000000000000005F000000070007001414
:102A41007F147F14242A7F2A1223130864623649D3
:102A51005620500008070300001C224100004122BB
:102A61001C002A1C7F1C2A08083E080800807030C0
:102A7100000808080808000060600020100804022F
:102A81003E5149453E00427F400072494949462135
:102A910041494D331814127F1027454545393C4AA9
:102AA10049493141211109073649494936464949C0
:102AB100291E000014000000403400000008142208
:102AC1004114141414140041221408020159090676
:102AD1003E415D594E7C1211127C7F494949363E77
:102AE100414141227F4141413E7F494949417F095D
:102AF1000909013E414151737F0808087F00417F68
:102B010041002040413F017F081422417F40404065
:102B1100407F021C027F7F0408107F3E4141413EFD
:102B21007F090909063E4151215E7F09192946267F
:102B31004949493203017F01033F4040403F1F2083
:102B410040201F3F4038403F63140814630304785A
:102B510004036159494D43007F414141020408107A
:102B610020004141417F04020102044040404040B5
:102B7100000307080020545478407F284444383823
:102B810044444428384444287F3854545418000895
:102B91007E090218A4A49C787F0804047800447D6F
:102BA10040002040403D007F1028440000417F400C
:102BB100007C047804787C08040478384444443860
:102BC100FC1824241818242418FC7C080404084840
:102BD1005454542404043F44243C4040207C1C2091
:102BE10040201C3C4030403C44281028444C9090EC
:102BF100907C4464544C4400083641000000770046
:102C010000004136080002010204023C2623263C52
:102C11001EA1A161123A4040207A385454555921DD
:102C210055557941225454784221555478402054C5
:102C31005579400C1E527212395555555939545413
:102C4100545939555454580000457C410002457D82
:102C5100420001457C407D1211127DF0282528F0AB
:102C61007C545545002054547C547C0A097F4932D8
:102C7100494949323A4444443A324A4848303A414F
:102C810041217A3A42402078009DA0A07D3D4242F8
:102C9100423D3D4040403D3C24FF2424487E494381
:102CA100662B2FFC2F2BFF0929F620C0887E0903F4
:102CB10020545479410000447D413048484A32381B
:102CC1004040227A007A0A0A727D0D19317D262947
:102CD100292F28262929292630484D40203808083F
:102CE100080808080808382F10C8ACBA2F10283473
:102CF100FA00007B000008142A142222142A140866
:102D0100AA005500AAAA55AA55AA000000FF001062
:102D11001010FF00141414FF001010FF00FF10101A
:102D2100F010F0141414FC001414F700FF0000FF5D
:102D310000FF1414F404FC141417101F10101F10BA
:102D41001F1414141F00101010F0000000001F10B9
:102D51001010101F10101010F010000000FF1010C4
:102D610010101010101010FF10000000FF140000D0
:102D7100FF00FF00001F10170000FC04F4141417DB
:102D810010171414F404F40000FF00F714141414C1
:102D9100141414F700F7141414171410101F101F33
:102DA100141414F4141010F010F000001F101F0080
:102DB10000001F14000000FC140000F010F01010BF
:102DC100FF10FF141414FF141010101F0000000056
:102DD100F010FFFFFFFFFFF0F0F0F0F0FFFFFF004A
:102DE10000000000FFFF0F0F0F0F0F38444438445D
:102DF100FC4A4A4A347E02020606027E027E0263D1
:102E0100554941633844443C04407E201E2006025B
:102E11007E020299A5E7A5991C2A492A1C4C720138
:102E2100724C304A4D4D303048784830BC625A4679
:102E31003D3E494949007E0101017E2A2A2A2A2A6A
:102E410044445F444440514A444040444A51400054
:102E510000FF0103E080FF000008086B6B083612D9
:102E6100362436060F090F0600001818000000105E
:102E710010003040FF0101001F01011E00191D1744
:102E810012003C3C3C3C000000000031343745322C
:102E910035383033363946414243445061726974A2
:102EA100790A4572726F722E005541525420646145
:102EB10074610A72656365697665642E0A0A203E4B
:102EC1003E2000390A003A003078000A20202049CB
:102ED1006E76616C69640A0A0020202020496E70B8
:102EE1007574000A53656C65637420446174610AEA
:102EF100547970653A0A0A002831292042797465AB
:102F01000A0028322920576F72640A0028332920C9
:102F1100446F75626C650A20202020576F72640A25
:102F21000A20205F000A456E746572204461746155
:102F31000A53697A653A0A0A202030785F5F5F5F39
:102F4100000A57726974696E6720307835350A74E2
:102F51006F20616C6C0A65787465726E616C2052C9
:102F6100414D0A6C6F636174696F6E732E0A0A00BA
:102F710057726974650A636F6D706C6574652E0AAA
:102F8100000A566572696679696E6720616C6C0A20
:102F910052414D206C6F636174696F6E730A657184
:102FA10075616C20307835352E0A0A003173742032
:102FB10052414D20636865636B0A756E7375636377
:102FC10065737366756C2E0A0A004572726F722002
:102FD10061743A0A003A2030780052657475726E55
:102FE100696E6720746F0A6D61696E206D656E751B
:102FF1002E003173742052414D20636865636B0A62
:103001007375636365737366756C2E0A0A000A57DC
:10301100726974696E6720307841410A746F20616A
:103021006C6C0A65787465726E616C2052414D0A50
:103031006C6F636174696F6E732E0A0A000A5665BC
:1030410072696679696E6720616C6C0A52414D2024
:103051006C6F636174696F6E730A657175616C2061
:10306100307841412E0A0A00326E642052414D20CF
:10307100636865636B0A756E737563636573736605
:10308100756C2E0A0A00326E642052414D2063682D
:1030910065636B0A7375636365737366756C2E0A7A
:1030A1000A0052414D20636865636B0A636F6D705E
:1030B1006C6574652E0A0A000A456E746572207388
:1030C1006F757263650A7374617274696E672052F9
:1030D100414D0A616464726573733A0A0A0A2020D9
:1030E10030785F5F5F5F000A456E7465720A6465E0
:1030F1007374696E6174696F6E0A73746172746955
:103101006E672052414D0A616464726573733A0AB5
:103111000A0A202030785F5F5F5F000A4D6F766595
:1031210020636F6D706C6574652E0A0A000A456E26
:103131007465720A7374617274696E672052414DCD
:103141000A616464726573733A0A0A202030785FF9
:103151005F5F5F000A456E7465722073656172631B
:10316100680A76616C75653A0A0A202030785F5FDB
:10317100000A30780020666F756E640A003078317D
:1031810030303030000A74696D65732E00206E6F27
:10319100740A666F756E6420696E0A65787465726B
:1031A1006E616C2052414D0A00202D0A000A002058
:1031B10020283029202D204E6578742050616765C4
:1031C1000A2020283129202D205072657620506157
:1031D10067650A2020284529202D20454E440A00F4
:1031E1000A456E64206F6620446174612E00456E4D
:1031F10064206F662044617461000A5265747572BF
:103201006E696E6720746F0A4D61696E204D656E3F
:10321100752E000A456E74657220736F7572636551
:103221000A7374617274696E672052414D0A616458
:1032310064726573733A0A0A202030785F5F5F5FBA
:10324100000A0A4E65772076616C75653A0A20207E
:1032510030785F5F000A0A0A0A283129204564692B
:1032610074206E6578740A52414D206C6F636174ED
:10327100696F6E0A0A0028452920456E64000A45D7
:103281006E64206F6620646174612E0A000A5265C3
:103291007475726E696E6720746F0A6D61696E2054
:1032A1006D656E752E00206E6F740A666F756E64A3
:1032B10020696E0A616464726573732072616E675E
:1032C100650A0A0020666F756E642061740A74686D
:1032D1006520666F6C6C6F77696E670A61646472F2
:1032E10065737365733A0A0A00456E64206F662040
:1032F100446174612E000A456E7465720A737461CB
:103301007274696E672052414D0A6164647265731B
:10331100733A0A0A20202030785F5F5F5F000A4518
:103321006E746572207365617263680A76616C758B
:10333100653A0A0A20202030785F5F000A28312987
:1033410020313230300A0028322920323430300A1C
:103351000028332920343830300A00283429203914
:103361003630300A002835292031393230300A0A06
:103371000043757272656E743A0A00313932303029
:103381000A00496E76616C69640A00313230300A94
:1033910000323430300A00343830300A00393630E7
:1033A100300A000A2020205F00310A00320A00336F
:1033B1000A00340A00350A00580A000A446174619F
:1033C10020426974730A0A0028312920380A00282A
:1033D100322920390A000A43757272656E743A20E7
:1033E10000380A000A5061726974790A0A002831AA
:1033F10029204576656E0A00283229204F64640A27
:1034010000283329204E6F6E650A004576656E0AE5
:10341100004F64640A004E6F6E650A000A456E74BF
:1034210065720A6368617261637465720A746F2000
:1034310073656E643A0A0A2020205F000A28312948
:1034410020446174612052617465000A2832292088
:1034510023206F6620446174610A20202020426984
:103461007473000A28332920506172697479000A43
:103471002834292053656E642044617461000A2850
:10348100452920456E640A0020202043616D657244
:103491006F6E0A20202042696E69616D6F770A00A4
:1034A10020204543454E2D343333300A0A0028414C
:1034B100292052414D20434845434B0A00284229C7
:1034C100204D4F56450A0028432920434F554E545D
:1034D1000A002844292044554D500A002845292036
:1034E100454449540A002846292046494E440A00C9
:1034F10028312920554152540A00537072696E6770
:06350100203230323100DF
:1028DE007A10E4FBFCE58225E0F582E58333F5838F
:1028EE00EB33FBEC33FCEB9508F5F0EC9509400669
:0928FE00FCABF0438201DADD229B
:06005800E478FFF6D8FD7C
:100036007900E94400601B7A00903507780175A0C5
:1000460000E493F2A308B8000205A0D9F4DAF27529
:02005600A0FF09
:10290700E5828508F0A4C582C0F08509F0A4D0F05F
:1029170025F0C5838508F0A42583F58322E50845BE
:102927000960467A01E50825E0F508E50933401214
:10293700F509E5829508E583950940030A80E6C312
:10294700E50913F509E50813F508C3E5829508F5C8
:10295700F0E58395094005F58385F082C3E5091302
:0A296700F509E50813F508DAE1228E
:10005E007800E84400600A790175A000E4F309D83D
:10006E00FC7800E84400600C7900900001E4F0A3F5
:04007E00D8FCD9FAD7
:0D00290075817E12298DE58260030200269C
:1029710020F71430F6148883A88220F507E6A8838F
:1029810075830022E280F7E49322E022758200221F
:00000001FF
