:04000000020029329F
:01000B0032C2
:0100130032BA
:01001B0032B2
:030023000200A236
:10008200752400752540752600752780E4F554F522
:1000920055756003F561756202F563F56402002629
:0300260002271797
:1000A200C021C0E0C0F0C082C083C007C006C00546
:1000B200C004C003C002C001C000C0D075D000306F
:1000C2009822859963C298756401120E4F902D6D26
:1000D20075F080120ABB856382120A559001F412F0
:1000E200011B8002C299D0D0D000D001D002D0032F
:1000F200D004D005D006D007D083D082D0F0D0E093
:10010200D02132759850758920758DFDD28ED2AC72
:10011200D2AF222099FDC29922AE82AF837C007DAC
:1001220000C3EC9EED64808FF063F08095F0501474
:100132007AE87B031ABAFF011BEA4B70F70CBC008A
:10014200E00D80DD22AF82C2B5D2B485248285253E
:1001520083EFF0C2B4D2B5D2B4852482852583E57B
:1001620008F0C2B422AE82AF838F04C2B5D2B48586
:100172002482852583ECF0C2B4C2B5D2B485248230
:10018200852583EEF0C2B4AE09AC08D2B5D2B5D2A1
:10019200B4852482852583EEF0C2B4D2B5D2B4856B
:1001A2002482852583ECF0C2B42275080790000FE3
:1001B2001201F27E007F007565008E828F83C00778
:1001C200C0061201FBD006D0070EBE00010FC3EE1F
:1001D200940DEF940040E075080490000F0201F2C4
:1001E200D2B490000DE0F542C2B4E54220E1F12222
:1001F200AF08D2B4EFF0C2B422AE82AF83D2B490D1
:10020200000D7401F0C2B4C007C0061201E2D006AC
:10021200D007D2B48E828F83E4F0C2B4AF65D2B479
:1002220090000DEFF0C2B422AE82AF83D2B4900040
:100232000D7401F0C2B4C007C0061201E2D006D0AC
:1002420007D2B48E828F83E0F542C2B4E542540FE6
:100252004430F542D2B490000DE4F0C2B48542823B
:1002620022852A5A852C5B852E5CE4F508F50990D7
:10027200D6BA1203CC7582021203D97508307509F9
:10028200019000841203BFD2B490000D7401F0C239
:10029200B41201E2D2B4900005E0F542C2B4E542E4
:1002A200540F4430F542D2B490000DE4F0C2B4854C
:1002B2004282120A55D2B490000D7401F0C2B412F7
:1002C20001E2D2B4900004E0F542C2B4E542540F18
:1002D2004430F542D2B490000DE4F0C2B4854282BB
:1002E200120A55902D8775F080120ABBD2B4900085
:1002F2000D7401F0C2B41201E2D2B4900003E0F531
:1003020042C2B4E542540F4430F542D2B490000DDB
:10031200E4F0C2B4854282120A55D2B490000D7440
:1003220001F0C2B41201E2D2B4900002E0F542C27E
:10033200B4E542540F4430F542D2B490000DE4F0DB
:10034200C2B4854282120A55902D8775F080120A36
:10035200BBD2B490000D7401F0C2B41201E2D2B467
:10036200900001E0F542C2B4E542540F4430F54238
:10037200D2B490000DE4F0C2B4854282120A55D282
:10038200B490000D7401F0C2B41201E2D2B4900034
:1003920000E0F542C2B4E542540F4430F542D2B413
:1003A20090000DE4F0C2B4854282120A55855A2AA1
:1003B200752B00855B2C752D00855C2E2285822A8B
:1003C20085832B85082C85092D22858230858331F2
:1003D20085083285093322E582FF24F7500122EF96
:1003E20060068F067F0080047E017F008E2E22E54C
:1003F20082FF24FC404EEF2F9003FE738006801490
:10040200802280307F487534F0753500753640752E
:100412003701803E7F287534407535017536F07599
:100422003700802E7F887534F0753500753640753B
:100432003701801E7FE87534407535017536F075D9
:100442003700800E7F487534F0753500753640757B
:1004520037018F08758236020147AE82AF83C2B57B
:10046200D2B4852482852583742AF0C2B4D2B5D24F
:10047200B48524828525838F05EDF0C2B4D2B5D22E
:10048200B4852482852583EEF0C2B4D2B5D2B48578
:100492002482852583E50BF0C2B4D2B5D2B485247B
:1004A20082852583E50AF0C2B4C2B5D2B48524821E
:1004B200852583742BF0C2B4D2B5D2B4852482854B
:1004C2002583E509F0C2B4D2B5D2B485248285254C
:1004D20083E508F0C2B4D2B5D2B4852482852583DF
:1004E200E50DF0C2B4D2B5D2B4852482852583E568
:1004F2000CF0C2B4227534F075350075364075378C
:1005020001C2B4D2B5C2B5D2B4852482852583E4B2
:10051200F0C2B4D2B5D2B4852482852583E4F0C278
:10052200B4D2B5D2B4852482852583E4F0C2B4D294
:10053200B5D2B4852482852583E4F0C2B49000C884
:1005420012011B75080075820112014790003212D8
:10055200011B75080075822812014790000A1201DA
:100562001B7508237582C01201477508117582C177
:10057200120147C2B5D2B485248285258374C5F0A1
:10058200C2B4D2B5D2B4852482852583743DF0C22B
:10059200B4D2B5D2B48524828525837430F0C2B436
:1005A2007508AA7582C712014775088875823612C6
:1005B2000147C2B5D2B4852482852583743AF0C23C
:1005C200B4D2B5D2B48524828525837455F0C2B4E1
:1005D200D2B5D2B4852482852583E4F0C2B47508ED
:1005E2001B7509009000B11201677508077582B783
:1005F2001201477508007582111201479000961288
:10060200011B7508007582291201479001F412013D
:100612001BE53424FFF50AE53534FFF50BE53624F6
:10062200FFF50CE53734FFF50DE4F508F509900008
:100632000002045CAE82AF8374012EF50AE43FF53A
:100642000B74012566F50CE43567F50D85660885A2
:1006520067098E828F8312045CC2B5D2B48524826C
:10066200852583742CF0C2B4D2B5D2B48524828598
:100672002583E569F0C2B4D2B4852482852583E559
:1006820068F0C2B422AE82AF83C3EE94F0EF94005E
:10069200500BC3E56A9440E56B9401400122E56C7E
:1006A2002EFCE56D3FFD1CBCFF011DC3EC94F0ED7B
:1006B2009400400A74F0C39EF56CE49FF56DE56EFC
:1006C200256AFCE56F356BFD1CBCFF011DC3EC9474
:1006D20040ED9401400D7440C3956AF56E74019526
:1006E2006BF56FE56C2EFCE56D3FFDEC24FFF50A22
:1006F200ED34FFF50BE56E256AFCE56F356BFDEC1D
:1007020024FFF50CED34FFF50D856A08856B098E23
:10071200828F8312045CC2B5D2B48524828525837C
:10072200742CF0C2B4D2B5AF71AD6EAE6FED4E6047
:1007320030AB6CAC6DEB4C6021D2B4852482852544
:1007420083EFF0C2B4D2B4852482852583E570FAA2
:10075200F0C2B41BBBFF011C80DB1DBDFF011E806C
:10076200CC22AE82AF838F05E4F508F509750AEF56
:10077200F50B750C3F750D01900000C006C0051207
:10078200045CD005D006C2B5D2B485248285258307
:10079200742CF0C2B4D2B5D2B4852482852583EDFF
:1007A200F0C2B4D2B4852482852583EEF0C2B47C33
:1007B200B07F048C028F031CBCFF011FEA4B6066F2
:1007C2007B10D2B4852482852583EDF0C2B4D2B4E5
:1007D200852482852583EEF0C2B4D2B48524828535
:1007E2002583EDF0C2B4D2B4852482852583EEF050
:1007F200C2B4D2B4852482852583EDF0C2B4D2B4CA
:10080200852482852583EEF0C2B4D2B48524828504
:100812002583EDF0C2B4D2B4852482852583EEF01F
:10082200C2B4DB9E808D7F3F8F041FEC601AD2B46E
:10083200852482852583EDF0C2B4D2B485248285D5
:100842002583EEF0C2B480E02285827A85837BC361
:10085200E57A94F0E57B648094805059C3E5729404
:1008620040E57364809481504CAC797D008C088D96
:1008720009900006C005C0041227D8AA82AB83D013
:1008820004D005EA257AFAEB357BFB1ABAFF011B85
:10089200EB20E721EDC40354F8CCC403CC6CCC5458
:1008A200F8CC6CFDEC2572FCED3573FD1CBCFF0130
:1008B2001DED30E701227401B5790474018001E471
:1008C200FDFCE575B57708E576B57803D38001C3FD
:1008D20092007B00BB0600400122BB0505757C002F
:1008E2008030857408750900900005C005C004C0F9
:1008F200031227D8A882A983D003D004D005E82404
:1009020062F8E93428F9EB28F582E439F583E493B7
:10091200F57C8BF0E579A4257AF8E57B35F0F9884A
:100922007D897E7A00BA08004003020A51E57C20E4
:10093200E0030209BFED60408B067F00EE257AF5E9
:1009420082EF357BF5838A067F00EE2572F566EF2E
:100952003573F567857568857669C005C004C0037F
:10096200C002C001C000120636D000D001D002D0B1
:1009720003D004D005020A478AF0E579A42572F56E
:100982006AE57335F0F56BAE797F008E6C8F6D8EF4
:100992006E8F6F857570857671857D82857E83C049
:1009A20005C004C003C002C001C000120687D00007
:1009B200D001D002D003D004D005020A4730000390
:1009C200020A47EC603F8B067F00EE257AF582EF44
:1009D200357BF5838A067F00EE2572F566EF357367
:1009E200F567857768857869C005C004C003C002D1
:1009F200C001C000120636D000D001D002D003D010
:100A020004D00580408AF0E579A42572F56AE57381
:100A120035F0F56BAE797F008E6C8F6D8E6E8F6FB9
:100A220085777085787188828983C005C004C00388
:100A3200C002C001C000120687D000D001D002D08F
:100A420003D004D005E57CC313F57C0A0209270B09
:100A52000208D6AF82BF0A22AD2EE4C40354F8CDF9
:100A6200C403CD6DCD54F8CD6DFEED252CF52CEEE5
:100A7200352DF52DE4F52AF52B22BF0D0122852C0B
:100A820072852D738F7485307585317685327785C1
:100A92003378852E79852A82852B8312084B852E01
:100AA200087509009000061227D8AE82AF83EE25A2
:100AB2002AF52AEF352BF52B22AD82AE83AFF07BE0
:100AC200007C00EB2DF8EC3EF98F02888289838A44
:100AD200F0122842FA60208A82C007C006C005C010
:100AE20004C003120A55D003D004D005D006D007A3
:100AF2000BBB00CF0C80CC227590F0756400759012
:100B0200F08590225322F074F0B522028004E5644D
:100B120060EC12026390000A12011BE59054F0F59A
:100B22002274F0B52204E56460E890000112011B12
:100B3200E59054F0F52274F0B52204E56460D3E543
:100B4200646003020C097590FEE59054F0F522747E
:100B5200F0B522028005752300803D7590FDE59079
:100B620054F0F52274F0B522028005752301802825
:100B72007590FBE59054F0F52274F0B522028005E1
:100B820075230280137590F7E59054F0F52274F006
:100B9200B5220280B175230374E0B52215E52375F1
:100BA200F004A4245DF582742D35F0F583E493F509
:100BB200822274D0B52218E52375F004A4245DFEC8
:100BC200742D35F0FF8E828F83A3E493F582227415
:100BD200B0B52219E52375F004A4245DFE742D3509
:100BE200F0FF8E828F83A3A3E493F58222E523751F
:100BF200F004A4245DFE742D35F0FF8E828F83A352
:100C0200A3A3E493F58222756400E56324C0F58210
:100C120022AF82BF30005003020CA4EF24B950036C
:100C2200020CA4EF24D0FF240A83F582EF241B8355
:100C3200F583E47364686C7074787C808488A4A4FF
:100C4200A4A4A4A4A48C9094989CA00C0C0C0C0CAE
:100C52000C0C0C0C0C0C0C0C0C0C0C0C0C0C0C0CD2
:100C62000C0C7F00803E7F01803A7F0280367F033A
:100C720080327F04802E7F05802A7F0680267F07B0
:100C820080227F08801E7F09801A7F0A80167F0BD0
:100C920080127F0C800E7F0D800A7F0E80067F0FF0
:100CA20080027F008F8222AE82AF83C3740F9EE4E4
:100CB2009F5003020D26EE240A83F582EE2414834C
:100CC200F583E473E6EAEEF2F6FAFE02060A0E1283
:100CD200161A1E220C0C0C0C0C0C0C0D0D0D0D0D0D
:100CE2000D0D0D0D7F30803E7F31803A7F32803690
:100CF2007F3380327F34802E7F35802A7F36802674
:100D02007F3780227F38801E7F39801A7F4180168C
:100D12007F4280127F43800E7F44800A7F45800697
:100D22007F4680027F308F8222E582FFC4540FFE0D
:100D32008E4F755000534F0F755000854F8285506E
:100D420083C007120CA9858253120A55D0077E0070
:100D5200740F5FF54F8E50854F82855083120CA918
:100D6200858253020A55AE82E583FFC4540FF54FC4
:100D7200755000534F0F755000854F82855083C0C8
:100D820007C006120CA9858253902D8975F0801236
:100D92000ABB855382120A55D006D0078F4F755071
:100DA20000534F0F755000854F82855083C007C096
:100DB20006120CA9858253120A55D006D0078E4F0F
:100DC200EFC4C54FC4540F654FC54F540FC54F658F
:100DD2004FC54FF550534F0F755000854F828550C8
:100DE20083C007C006120CA9858253120A55D00689
:100DF200D0078E4F8F50534F0F755000854F82850D
:100E02005083120CA9858253020A55AE82AF83C267
:100E1200B48E828F83E508F0D2B422AF827D007E49
:100E220000C2B48D828E83EFF0D2B40DBD00010EEC
:100E3200C374FE9D74FF9E50E822AE82AF83C2B49B
:100E42008E828F83E0F542D2B4854282227582047B
:100E52001203F1E4F508F50990D6BA1203CC7582B3
:100E6200031203D9900000120764E4F508F5099013
:100E720000000203BF120E4FE4F508F50990F800D6
:100E82001203CC902D8C75F080120ABB902D9A75AE
:100E9200F080120ABB9000C812011B020E4FE4F54B
:100EA20039F53AF508F50990FFFF1203CC120AFA58
:100EB200858238E4F508F50990FFFF1203CC8538E6
:100EC20082120A55853882120C13AF82EFC454F095
:100ED200FEE44239EE423A120AFA858238E4F50813
:100EE200F50990FFFF1203CC853882120A55853826
:100EF20082120C13AF828F06E44239EE423A120A92
:100F0200FA858238E4F508F50990FFFF1203CC85D3
:100F12003882120A55853882120C13AF82E4C45407
:100F2200F0CFC4CF6FCF54F0CF6FFEEF4239EE4215
:100F32003A120AFA858238E4F508F50990FFFF12A1
:100F420003CC853882120A55853882120C13AF827F
:100F52007E00EF4239EE423A22E4F508F50990FFAD
:100F6200FF1203CC753B00120AFA858238E4F508B9
:100F7200F50990FFFF1203CC853882120A55853895
:100F820082120C13E582C454F0423B120AFA8582A3
:100F920038E4F508F50990FFFF1203CC8538821278
:100FA2000A55853882120C13E582423B22753F00B6
:100FB200753C00120E4FE4F508F50990FFFF12038D
:100FC200CC902DA475F080120ABB902DB975F080DB
:100FD200120ABB902DC375F080120ABB902DCD75FD
:100FE200F080120ABB852E087509009000061227B0
:100FF200D8AE82AF83E52AC39EF52AE52B9FF52B57
:10100200852A5D852C5E852E5FE4F508F50990FF43
:10101200FF1203CC120AFA858238855D2A752B00ED
:10102200855E2C752D00855F2E853882120A5574D7
:1010320031B53802800E7432B53802800F7433B580
:10104200381A8010753C01753F018016753C027597
:101052003F01800E753C04753F018006120E7775C4
:101062003F00E53F7003020FB522E4F53FF53DF581
:101072003E120E4F902DE675F080120ABBE52E75DA
:10108200F018A4FEAFF0E52AC39EF52AE52B9FF5E2
:101092002B852A5D852C5E852E5FE4F539F53AF5C0
:1010A20008F50990FFFF1203CC120AFA85823885EF
:1010B2005D2A752B00855E2C752D00855F2E853887
:1010C20082120A55852A5D852C5E852E5F853882BF
:1010D200120C13AF82EFC454F0FEE44239EE423AEE
:1010E200120AFA858238855D2A752B00855E2C7579
:1010F2002D00855F2E853882120A55852A5D852C42
:101102005E852E5F853882120C13AF828F06E44211
:1011120039EE423A120AFA858238855D2A752B0029
:10112200855E2C752D00855F2E853882120A5585C5
:101132002A5D852C5E852E5F853882120C13AF8264
:10114200E4C454F0CFC4CF6FCF54F0CF6FFEEF4260
:1011520039EE423A120AFA858238855D2A752B00E9
:10116200855E2C752D00855F2E853882120A558585
:101172002A5D852C5E852E5F853882120C13AF8224
:101182007E00EF4239EE423A85393D853A3EE53DF1
:10119200453E7009120E77753F00021073753F01CC
:1011A20022754200754000120E4F902E0275F0809B
:1011B200120ABB758255120E1D75085590FFFF125B
:1011C2000E0DE4F508F5099007E01203CC902E31DC
:1011D20075F080120ABB9000C812011B120E4F90CC
:1011E2002E4275F080120ABB7E007F008E828F83B2
:1011F200C007C006120E3C858242D006D0070EBE42
:1012020000010F7455B5420474018001E4FD6009C8
:10121200C374FE9E74FF9F50D3ED601190FFFFC018
:1012220007C006120E3C858242D006D0077455B51F
:1012320042028061E4F508F50990F800C007C00693
:101242001203CC902E6D75F080120ABB90006412CE
:10125200011B902E8B75F080120ABBD006D007EED0
:1012620024FFF582EF34FFF583120D68902E9675F8
:10127200F080120ABB854282120D2BE4F508F509B3
:1012820090FFFF1203CC902E9B75F080120ABB9048
:1012920000C802011BE4F508F5099007E01203CC2F
:1012A200902EB375F080120ABB9000C812011B1277
:1012B2000E4F902ECF75F080120ABB7582AA120EC5
:1012C2001D7508AA90FFFF120E0DE4F508F50990AE
:1012D20007E01203CC902E3175F080120ABB900009
:1012E200C812011B120E4F902EFE75F080120ABB1F
:1012F2007E007F008E828F83C007C006120E3C855F
:101302008242D006D0070EBE00010F74AAB5420475
:1013120074018001E4FD6009C374FE9E74FF9F5056
:10132200D3ED601190FFFFC007C006120E3C85820C
:1013320042D006D00774AAB542028061E4F508F5EE
:101342000990F800C007C0061203CC902F2975F04F
:1013520080120ABB90006412011B902E8B75F080E4
:10136200120ABBD006D007EE24FFF582EF34FFF558
:1013720083120D68902E9675F080120ABB85428208
:10138200120D2BE4F508F50990FFFF1203CC902E05
:101392009B75F080120ABB90006402011BE4F50801
:1013A200F5099007E01203CC902F4775F080120ADE
:1013B200BB902F6375F080120ABB90006412011B70
:1013C200E4F508F50990FFFF1203CC902E9B75F00F
:1013D20080120ABB90006402011BE4F556F557F532
:1013E20058F559F543F544F545F546F547F548F501
:1013F20049F54AF54BF54CF54DF54E120E4F902F2F
:101402007975F080120ABBE52E75F018A4FEAFF0D4
:10141200E52AC39EF52AE52B9FF52B120EA08539EE
:1014220043853A44120E4F902FA875F080120ABBE2
:10143200E52E75F018A4FEAFF0E52AC39EF52AE565
:101442002B9FF52B120EA0853947853A48120FAF14
:10145200120E4F12106CC3E5439547E54495485070
:1014620063853C08750900853D82853E831227D835
:10147200AE82AF83EE2547FCEF3548FD8C568D5783
:10148200755800755900C374FF955674FF9557E45B
:101492009558E4955950087549FF754AFF800AEE40
:1014A2002547F549EF3548F54AE549C39547F53DE6
:1014B200E54A9548F53EE53D2543F545E53E35448B
:1014C200F5468061853C08750900853D82853E832D
:1014D2001227D8AE82AF83EE2543FCEF3544FD8C54
:1014E200568D57755800755900C374FF955674FF91
:1014F2009557E49558E4955950087545FF7546FF90
:10150200800AEE2543F545EF3544F546E545C3959A
:1015120043F53DE5469544F53EE53D2547F549E56C
:101522003E3548F54AC3E5439547E5449548504E54
:10153200C3E5479545E5489546504385454B854665
:101542004C85494D854A4EC3E54D9547E54E954834
:10155200406D854B82854C83120E3C8582428542CA
:1015620008854D82854E83120E0D154B74FFB54BC7
:1015720002154C154D74FFB54D02154E80C98543B9
:101582004B85444C85474D85484EC3E549954DE50D
:101592004A954E402A854B82854C83120E3C8582A9
:1015A20042854208854D82854E83120E0D054BE41D
:1015B200B54B02054C054DE4B54DCF054E80CB121F
:1015C2000E4FE4F508F5099007E01203CC902FDCEA
:1015D20075F080120ABB90006412011BE4F508F555
:1015E2000990FFFF1203CC902E9B75F080120ABB6C
:1015F20090006402011BE4F556F557F558F559F5CC
:1016020043F544F545F546F53DF53EF551F552F500
:1016120054F555F549F54AF540120E4F902FEE75E7
:10162200F080120ABBE52E75F018A4FEAFF0E52A91
:10163200C39EF52AE52B9FF52B120EA08539438513
:101642003A44120E4F12106C120E4F90301575F074
:1016520080120ABBE52E75F00CA4FEAFF0E52AC39A
:101662009EF52AE52B9FF52B120F5B853B51755298
:1016720000E53D2543FEE53E3544FF8E568F577506
:101682005800755900AC43AD447E007F00C3E55657
:101692009CE5579DE5589EE5599F50147545FF748A
:1016A200FFF546C39543F53D74FF9544F53E800C26
:1016B200E53D2543F545E53E3544F546AE43AF44A9
:1016C2008E048F05C3E5459CE5469D404CE5407080
:1016D200488E828F83C007C006120E3C858242D09C
:1016E20006D007AC427D00ECB5511AEDB552167426
:1016F200FFB55409B55506754901754A000554E40C
:10170200B5540205558E048F05BCFF06BDFF037557
:1017120040010EBE00AA0F80A7E5544555700D7416
:1017220001B5490614B54A028002805F120E4FE4E9
:10173200F508F5099007E01203CC90303275F0807D
:10174200120ABB855182120D2B90303675F0801231
:101752000ABBE5544555600B855482855583120DAD
:101762006880167401B5490614B54A0280028009E0
:1017720090303E75F080120ABB90304675F08012B0
:101782000ABB90012C12011B021DC8120E4F903091
:101792003275F080120ABB855182120D2B90304EA9
:1017A20075F080120ABB854382854483120D6890CE
:1017B200306A75F080120ABB854582854683120D18
:1017C2006890012C12011B120E4F902E9B75F08017
:1017D200120ABB9000C802011BE4F54DF54EF5401C
:1017E200F547F54885434B85444C120E4F758202EE
:1017F2001203D990306E75F080120ABBC3E53D9496
:101802000AE53E940050030218AA75470A7548007B
:101812007E007F00854B82854C83C007C006120D77
:1018220068902E9675F080120ABBD006D0077C0015
:101832007D00AA3C7B00C3EC9AED64808BF063F0E0
:101842008095F0502B854B82854C83C007C006C023
:1018520005C004120E3C120D2BD004D005D006D0C8
:1018620007054BE4B54B02054C0CBC00C50D80C20C
:1018720090306E75F080C007C006120ABBD006D049
:1018820007153D74FFB53D02153E0EBE00010FC3A4
:10189200EE940AEF648094805003021816054DE41A
:1018A200B54D02054E021A0FE53D453E7003021981
:1018B20099C3E53D940AE53E9400400302199985D7
:1018C2003D47853E48E53D453E6060854B82854CFF
:1018D20083120D68902E9675F080120ABB7E007FEF
:1018E20000AC3C7D00C3EE9CEF64808DF063F08021
:1018F20095F05023854B82854C83C007C006120E9B
:101902003C120D2BD006D007054BE4B54B02054C1B
:101912000EBE00CD0F80CA90306E75F080120ABBE9
:10192200153D74FFB53D02153E809AE549454A6072
:101932005C854B82854C83120D68902E9675F080E3
:10194200120ABB7E007F008E048F05C3EC9549ED21
:10195200954A5023854B82854C83C007C006120EE0
:101962003C120D2BD006D007054BE4B54B02054CBB
:101972000EBE00D30F80D0E54BC39549F54BE54C25
:10198200954AF54C90306E75F080120ABB054DE415
:10199200B54D7A054E8076E53D453E7070E5494588
:1019A2004A606A853D47853E48854B82854C831255
:1019B2000D68902E9675F080120ABB7E007F008E15
:1019C200048F05C3EC9549ED954A5023854B8285DA
:1019D2004C83C007C006120E3C120D2BD006D00756
:1019E200054BE4B54B02054C0EBE00D30F80D090E0
:1019F200306E75F080120ABB054DE4B54D02054EFE
:101A0200E54BC39549F54BE54C954AF54C7508FAFB
:101A12007509009000001203BF90307075F08012BB
:101A22000ABB854D82854E83120D68120AFA8582A1
:101A3200387430B5380280127431B538028065745A
:101A420045B53803021B43021B5A753F01E53D456C
:101A52003E6006754000021B9E754000853C08757D
:101A620009008547828548831227D8AE82AF83E575
:101A72004BC39EF54BE54C9FF54CE547253DF53DA7
:101A8200E548353EF53E154D74FFB54D02154E1233
:101A92000E4F9030A175F080120ABB9000C812015F
:101AA2001B021B9EC37401954DE4954E504975402F
:101AB20000740A2547FEE43548FF853C0875090095
:101AC2008E828F83C007C0061227D8AC82AD83D026
:101AD20006D007E54BC39CF54BE54C9DF54CE54D17
:101AE20024FEF54DE54E34FFF54EEE253DF53DEF76
:101AF200353EF53E021B9E754000120E4F9030AFF0
:101B020075F080120ABB9000C812011B853C087553
:101B120009008547828548831227D8AE82AF83E5C4
:101B22004BC39EF54BE54C9FF54C154D74FFB54DDF
:101B320002154EE547253DF53DE548353EF53E802B
:101B42005B120E4F9030BB75F080120ABB9000C83A
:101B520012011B7540018044754000120E77E54763
:101B620045486038853C0875090085478285488369
:101B72001227D8AE82AF83E54BC39EF54BE54C9F4F
:101B8200F54C154D74FFB54D02154EE547253DF553
:101B92003DE548353EF53EE4F547F548E54070033E
:101BA2000217EC22E4F556F557F558F559F543F5C9
:101BB20044F545F546F53CF53DF53EF549F54A1245
:101BC2000E4F9030D475F080120ABBE52E75F018D6
:101BD200A4FEAFF0E52AC39EF52AE52B9FF52B1252
:101BE2000EA0853943853A44120FAF120E4F1210E0
:101BF2006CAE3C7F00853D08853E098E828F83C096
:101C020007C0061227D8AC82AD83D006D007EC25D8
:101C120043FAED3544FB8A568B57755800755900C7
:101C2200A843A9447A007B00C3E55698E55799E595
:101C3200589AE5599B50087545FF7546FF8012EC8E
:101C42002543FCED3544FDEC24FFF545ED34FFF56D
:101C520046E545C39543FCE5469544FD0CBC0001B1
:101C62000D8E088F098C828D83C007C006C005C007
:101C7200041227AF85823D85833ED004D005D0066D
:101C8200D0078E088F098C828D831227F5858249B1
:101C920085834A0217DBAE82AF83C007C006120EED
:101CA2003C858242120E4F90306E75F080120ABB54
:101CB200D006D0078E828F83C007C006120D6890AF
:101CC2002E9675F080120ABB854282120D2B90313E
:101CD2000275F080120ABBE52E75F00CA4FCADF083
:101CE200E52AC39CF52AE52B9DF52B120F5BD00646
:101CF200D007853B088E828F83120E0D90311675A8
:101D0200F080120ABB90313775F080020ABB754031
:101D120000754100753F00120E4F902FEE75F08056
:101D2200120ABBE52E75F018A4FEAFF0E52AC39E99
:101D3200F52AE52B9FF52B120EA0E5417052E540E6
:101D4200704E853982853A83121C98120AFA85826E
:101D5200387431B5380280077445B53827801D754F
:101D62003F0174FFB53908B53A05754101801B057D
:101D720039E4B53902053A754100800E753F0175A7
:101D820040018006753F00120E77E53F60B480AADD
:101D9200120E4F7401B54114E4F508F50990F800EC
:101DA2001203CC90313F75F080120ABBE4F508F5BE
:101DB2000990FFFF1203CC90314E75F080120ABBDE
:101DC2009000C802011BE4F547F548F54DF54E12A7
:101DD2000E4F85434B85444C854B82854C83120EB6
:101DE2003C858242AE427F00EEB55106EFB552020B
:101DF2008021C3E54B9545E54C95465016054BE4CD
:101E0200B54B02054C854B82854C83120E3C858274
:101E12004280D1AE427F00EEB55106EFB55202804C
:101E220058E545B54B53E546B54C4E120E4F903032
:101E32003275F080120ABB855182120D2B903167E8
:101E420075F080120ABB854382854483120D689027
:101E5200306A75F080120ABB854582854683120D71
:101E6200689000C812011B120E4F902E9B75F080D5
:101E7200120ABB90006402011B120E4FE4F508F532
:101E8200099007E01203CC90303275F080120ABB41
:101E9200855182120D2B90318575F080120ABB900C
:101EA20000C812011B854B47854C48120E4F8547CF
:101EB2004B85484C854B82854C83120D68755407BF
:101EC200755500054DE4B54D02054E74FFB54B0541
:101ED200B54C02804C054BE4B54B02054C854B8258
:101EE200854C83120E3C858242AE427F00EEB55194
:101EF2001FEFB5521B155474FFB55402155590309F
:101F02006E75F080120ABB854B82854C83120D6878
:101F1200C3E54B9545E54C95465006E5544555704D
:101F2200B47508FA7509009000001203BF758202A9
:101F32001203D9E4F508F50990FFFF1203CC9030A3
:101F42007075F080120ABB854D82854E83120D6832
:101F5200120AFA8582387430B5380280137431B5AA
:101F620038030220137445B538030220930220A7D8
:101F7200C3E54B9545E54C9546401E120E4F9031F8
:101F8200AA75F080120ABB9000C812011B154D748D
:101F9200FFB54D02154E0220B3054BE4B54B0205C9
:101FA2004C854B82854C83120E3C858242AE427F29
:101FB20000EEB5510AEFB55206854B47854C48C332
:101FC200E54B9545E54C9546500CAE427F00EEB58B
:101FD20051C7EFB552C3C3E54B9545E54C95465005
:101FE200030220B3AE427F00EEB55107EFB55203B4
:101FF2000220B3120E4F9031AA75F080120ABB90E4
:1020020000C812011B154D74FFB54D02154E02207A
:10201200B37401B54D0614B54E028002801E120E35
:102022004F9031AA75F080120ABB9000C812011BB2
:10203200154D74FFB54D02154E0220B385474B85F1
:10204200484CE4F554F555C3E5549408E55594001D
:10205200502B154B74FFB54B02154C854B82854CAA
:1020620083120E3C858242AE427F00EEB551D8EF1C
:10207200B552D40554E4B554CE055580CA854B47B4
:10208200854C48E54D24FEF54DE54E34FFF54E8076
:1020920020120E4F902E9B75F080120ABB9000C842
:1020A20012011B800C120E77154D74FFB54D0215EF
:1020B2004E7445B5380122021EAD22E4F556F5579D
:1020C200F558F559F543F544F545F546F53CF53D2A
:1020D200F53EF551F552120E4F9031B775F0801260
:1020E2000ABBE52E75F018A4FEAFF0E52AC39EF5F3
:1020F2002AE52B9FF52B120EA0853943853A44120F
:102102000E4F12106C120E4F9031DF75F080120AD2
:10211200BBE52E75F00CA4FEAFF0E52AC39EF52AAE
:10212200E52B9FF52B120F5B853B51755200E53D68
:102132002543FEE53E3544FF8E568F577558007590
:102142005900AC43AD447E007F00C3E5569CE55781
:102152009DE5589EE5599F50147545FF74FFF5465D
:10216200C39543F53D74FF9544F53E800CE53D254E
:1021720043F545E53E3544F546021DC87582041215
:1021820003F1E4F508F50990D6BA1203CC7582037F
:102192001203D9900000120764E4F508F5099000D3
:1021A200000203BF120E4F9031FD75F080120ABB80
:1021B20090320875F080120ABB90321275F08012CC
:1021C2000ABB90321C75F080120ABB90322675F061
:1021D20080120ABB90323275F080120ABB7480B54D
:1021E200871B74FDB58D0B90323C75F080120ABBD3
:1021F200804B90324375F080120ABB8040AF8DBF96
:10220200E802800FBFF4028015BFFA02801BBFFDF7
:102212002C802190324C75F080120ABB801F9032C4
:102222005275F080120ABB801490325875F08012F9
:102232000ABB800990325E75F080120ABB9032644C
:1022420075F080120ABBE52E75F006A4FEAFF0E52C
:102252002AC39EF52AE52B9FF52B120AFA858238AE
:102262007431B53802801F7432B53802803074334D
:10227200B5380280407434B5380280507435B538B0
:102282000280600222FC753F01758DE8758700753A
:10229200400190326A75F080120ABB02230E753F2C
:1022A20001758DF475870075400190326D75F0806F
:1022B200120ABB8057753F01758DFA75870075400C
:1022C2000190327075F080120ABB8040753F017533
:1022D2008DFD75870075400190327375F080120A8A
:1022E200BB8029753F01758DFD7587807540019012
:1022F200327675F080120ABB8012753F00903279F7
:1023020075F080120ABB120E77754000E54070032B
:102312000221A99000C802011B120E4F90327C7557
:10232200F080120ABB90328975F080120ABB90329B
:102332009075F080120ABB90329775F080120ABB3A
:10234200E59854C0F5617440B56102800774C0B568
:102352006116800B9032A275F080120ABB80099040
:1023620032A575F080120ABB90326475F080120AB1
:10237200BBE52E75F006A4FEAFF0E52AC39EF52A52
:10238200E52B9FF52B120AFA8582387431B5380293
:1023920080077432B5382A8014753F0153987F75CF
:1023A200400190326A75F080120ABB8026753F01A7
:1023B2004398C075400190326D75F080120ABB805F
:1023C20012753F0090327975F080120ABB120E77B7
:1023D200754000E540700302231E9000C802011BF5
:1023E200120E4F9032A875F080120ABB9032B2756D
:1023F200F080120ABB9032BC75F080120ABB903298
:10240200C575F080120ABB90329775F080120ABB34
:10241200E4B56202800E7401B5620280127402B5E4
:10242200622180169032CF75F080120ABB80149020
:1024320032D575F080120ABB80099032DA75F080CD
:10244200120ABB90326475F080120ABBE52E75F059
:1024520006A4FEAFF0E52AC39EF52AE52B9FF52BD5
:10246200120AFA8582387431B53802800E7432B598
:102472003802801B7433B5383E8028753F0175627F
:102482000075400190326A75F080120ABB803A757D
:102492003F0175620175400190326D75F080120A3C
:1024A200BB8026753F0175620275400190327075DE
:1024B200F080120ABB8012753F0090327975F0806D
:1024C200120ABB120E77754000E54070030223E545
:1024D2009000C802011B120E4F9032E075F080127C
:1024E2000ABBE52E75F006A4FEAFF0E52AC39EF501
:1024F2002AE52B9FF52B120AFA858238120A558596
:1025020038991201159000C812011B020E4F120ECB
:102512004F90330075F080120ABB90330F75F08034
:10252200120ABB90332775F080120ABB90333375C1
:10253200F080120ABB90334275F080120ABB120A75
:10254200FA8582387431B53802801C7432B538028B
:10255200801D7433B53802801E7434B53802801F72
:102562007445B5384480201221A67540008040127F
:10257200231B75400080381223E275400080301220
:1025820024D8754000802812217EE4F508F50990D0
:10259200FFFF1203CC90314E75F080120ABB9000FF
:1025A200C812011B7540018006120E77754000E5C6
:1025B2004070030225102275380085268285278304
:1025C200D2B474C0F0C2B4120E4FE4F508F509900B
:1025D20007E01203CC90334C75F080120ABB9033A3
:1025E2006475F080120ABBE4F508F50990FFFF124A
:1025F20003CC90337275F080120ABB90338175F070
:1026020080120ABB90338B75F080120ABB9033960E
:1026120075F080120ABB9033A075F080120ABB904D
:1026220033AA75F080120ABB9033B475F080120A97
:10263200BBE4F508F50990FFFF1203CC7582011285
:1026420003D97508307509019000031203BF903356
:10265200BE75F080120ABB120263120AFA85823832
:102662007431B538030226F77441B53802802674F6
:1026720042B53802802F7443B5380280387444B5AD
:10268200380280417445B53802804A7446B5380232
:102692008053022707852682852783D2B47488F067
:1026A200C2B40211A3852682852783D2B47483F033
:1026B200C2B40213DC852682852783D2B474C6F0A5
:1026C200C2B40215F8852682852783D2B474A1F09C
:1026D200C2B4021BA6852682852783D2B47486F0F3
:1026E200C2B4021D10852682852783D2B4748EF06F
:1026F200C2B40220BD852682852783D2B474F9F044
:10270200C2B4022510852682852783D2B474FFF0D5
:10271200C2B4020E77C2B5C2B41201051201AC8571
:102722002682852783D2B474FEF0C2B4900064126C
:10273200011B852682852783D2B474FCF0C2B49033
:10274200006412011B852682852783D2B474F8F0B7
:10275200C2B490006412011B852682852783D2B4FD
:1027620074F0F0C2B490006412011B8526828527A2
:1027720083D2B474E0F0C2B490006412011B8526C7
:1027820082852783D2B474C0F0C2B490006412016F
:102792001BC2B4D2B51204F7852682852783D2B430
:0D27A20074F9F0C2B4120E4F1225B980FB7D
:1028620000000000003E5B4F5B3E3E6B4F6B3E1C28
:102872003E7C3E1C183C7E3C181C577D571C1C5E3F
:102882007F5E1C00183C1800FFE7C3E7FF00182416
:102892001800FFE7DBE7FF30483A060E26297929C0
:1028A20026407F050507407F05253F5A3CE73C5AF5
:1028B2007F3E1C1C08081C1C3E7F14227F22145FD2
:1028C2005F005F5F06097F017F006689956A60602D
:1028D20060606094A2FFA29408047E040810207E27
:1028E200201008082A1C08081C2A08081E101010AC
:1028F200100C1E0C1E0C30383E3830060E3E0E06F2
:10290200000000000000005F000000070007001444
:102912007F147F14242A7F2A122313086462364903
:102922005620500008070300001C224100004122EB
:102932001C002A1C7F1C2A08083E080800807030F0
:10294200000808080808000060600020100804025F
:102952003E5149453E00427F400072494949462165
:1029620041494D331814127F1027454545393C4AD9
:1029720049493141211109073649494936464949F0
:10298200291E000014000000403400000008142238
:1029920041141414141400412214080201590906A6
:1029A2003E415D594E7C1211127C7F494949363EA7
:1029B200414141227F4141413E7F494949417F098D
:1029C2000909013E414151737F0808087F00417F98
:1029D20041002040413F017F081422417F40404096
:1029E200407F021C027F7F0408107F3E4141413E2E
:1029F2007F090909063E4151215E7F0919294626B0
:102A02004949493203017F01033F4040403F1F20B3
:102A120040201F3F4038403F63140814630304788A
:102A220004036159494D43007F41414102040810AA
:102A320020004141417F04020102044040404040E5
:102A4200000307080020545478407F284444383853
:102A520044444428384444287F38545454180008C5
:102A62007E090218A4A49C787F0804047800447D9F
:102A720040002040403D007F1028440000417F403C
:102A8200007C047804787C08040478384444443890
:102A9200FC1824241818242418FC7C080404084870
:102AA2005454542404043F44243C4040207C1C20C1
:102AB20040201C3C4030403C44281028444C90901C
:102AC200907C4464544C4400083641000000770076
:102AD20000004136080002010204023C2623263C83
:102AE2001EA1A161123A4040207A3854545559210E
:102AF20055557941225454784221555478402054F6
:102B02005579400C1E527212395555555939545443
:102B1200545939555454580000457C410002457DB2
:102B2200420001457C407D1211127DF0282528F0DB
:102B32007C545545002054547C547C0A097F493208
:102B4200494949323A4444443A324A4848303A417F
:102B520041217A3A42402078009DA0A07D3D424228
:102B6200423D3D4040403D3C24FF2424487E4943B1
:102B7200662B2FFC2F2BFF0929F620C0887E090324
:102B820020545479410000447D413048484A32384B
:102B92004040227A007A0A0A727D0D19317D262977
:102BA200292F28262929292630484D40203808086F
:102BB200080808080808382F10C8ACBA2F102834A3
:102BC200FA00007B000008142A142222142A140896
:102BD200AA005500AAAA55AA55AA000000FF001093
:102BE2001010FF00141414FF001010FF00FF10104B
:102BF200F010F0141414FC001414F700FF0000FF8E
:102C020000FF1414F404FC141417101F10101F10EA
:102C12001F1414141F00101010F0000000001F10E9
:102C22001010101F10101010F010000000FF1010F4
:102C320010101010101010FF10000000FF14000000
:102C4200FF00FF00001F10170000FC04F41414170B
:102C520010171414F404F40000FF00F714141414F1
:102C6200141414F700F7141414171410101F101F63
:102C7200141414F4141010F010F000001F101F00B0
:102C820000001F14000000FC140000F010F01010EF
:102C9200FF10FF141414FF141010101F0000000086
:102CA200F010FFFFFFFFFFF0F0F0F0F0FFFFFF007A
:102CB20000000000FFFF0F0F0F0F0F38444438448D
:102CC200FC4A4A4A347E02020606027E027E026301
:102CD200554941633844443C04407E201E2006028C
:102CE2007E020299A5E7A5991C2A492A1C4C720169
:102CF200724C304A4D4D303048784830BC625A46AA
:102D02003D3E494949007E0101017E2A2A2A2A2A9A
:102D120044445F444440514A444040444A51400084
:102D220000FF0103E080FF000008086B6B08361209
:102D3200362436060F090F0600001818000000108E
:102D420010003040FF0101001F01011E00191D1774
:102D520012003C3C3C3C000000000031343745325C
:102D62003538303336394641424344554152542076
:102D7200646174610A72656365697665642E0A0A24
:102D8200203E3E20003A003078000A202020496E82
:102D920076616C69640A0A0020202020496E7075F1
:102DA20074000A53656C65637420446174610A544B
:102DB2007970653A0A0A0028312920427974650A35
:102DC2000028322920576F72640A002833292044D0
:102DD2006F75626C650A20202020576F72640A0AA0
:102DE20020205F000A456E74657220446174610A96
:102DF20053697A653A0A0A202030785F5F5F5F0084
:102E02000A57726974696E6720307835350A746FB3
:102E120020616C6C0A65787465726E616C20524137
:102E22004D0A6C6F636174696F6E732E0A0A0057E4
:102E3200726974650A636F6D706C6574652E0A0041
:102E42000A566572696679696E6720616C6C0A520E
:102E5200414D206C6F636174696F6E730A657175A1
:102E6200616C20307835352E0A0A00317374205295
:102E7200414D20636865636B0A756E7375636365A4
:102E8200737366756C2E0A0A004572726F72206146
:102E9200743A0A003A2030780052657475726E698D
:102EA2006E6720746F0A6D61696E206D656E752E96
:102EB200003173742052414D20636865636B0A735D
:102EC20075636365737366756C2E0A0A000A57721E
:102ED2006974696E6720307841410A746F20616CB1
:102EE2006C0A65787465726E616C2052414D0A6C91
:102EF2006F636174696F6E732E0A0A000A566572F7
:102F0200696679696E6720616C6C0A52414D206C6A
:102F12006F636174696F6E730A657175616C2030DD
:102F22007841412E0A0A00326E642052414D2063DC
:102F32006865636B0A756E73756363657373667533
:102F42006C2E0A0A00326E642052414D206368657D
:102F5200636B0A7375636365737366756C2E0A0A15
:102F62000052414D20636865636B0A636F6D706C3C
:102F72006574652E0A0A000A456E74657220736FC5
:102F8200757263650A7374617274696E6720524167
:102F92004D0A616464726573733A0A0A0A2020302A
:102FA200785F5F5F5F000A456E7465720A646573DD
:102FB20074696E6174696F6E0A7374617274696E9A
:102FC200672052414D0A616464726573733A0A0A5A
:102FD2000A202030785F5F5F5F000A4D6F766520C0
:102FE200636F6D706C6574652E0A0A000A456E7413
:102FF20065720A7374617274696E672052414D0A78
:10300200616464726573733A0A0A202030785F5FE4
:103012005F5F000A456E7465722073656172636852
:103022000A76616C75653A0A0A202030785F5F0083
:103032000A30780020666F756E640A00307831308D
:10304200303030000A74696D65732E00206E6F7423
:103052000A666F756E6420696E0A65787465726EB1
:10306200616C2052414D0A00202D0A000A002020E6
:10307200283029202D204E65787420506167650A1A
:103082002020283129202D2050726576205061673A
:10309200650A2020284529202D20454E440A000A91
:1030A200456E64206F6620446174612E00456E6433
:1030B200206F662044617461000A52657475726EF5
:1030C200696E6720746F0A4D61696E204D656E7579
:1030D2002E000A456E74657220736F757263650AFD
:1030E2007374617274696E672052414D0A6164643F
:1030F200726573733A0A0A202030785F5F5F5F005F
:103102000A0A4E65772076616C75653A0A2020308E
:10311200785F5F000A0A0A0A283129204564697427
:10312200206E6578740A52414D206C6F6361746938
:103132006F6E0A0A0028452920456E64000A456E12
:1031420064206F6620646174612E0A000A526574FD
:1031520075726E696E6720746F0A6D61696E206D9B
:10316200656E752E00206E6F740A666F756E642030
:10317200696E0A616464726573732072616E676559
:103182000A0A0020666F756E642061740A746865AD
:1031920020666F6C6C6F77696E670A616464726532
:1031A200737365733A0A0A00456E64206F662044A1
:1031B2006174612E000A456E7465720A73746172DD
:1031C20074696E672052414D0A616464726573735B
:1031D2003A0A0A20202030785F5F5F5F000A456E5E
:1031E200746572207365617263680A76616C7565D5
:1031F2003A0A0A20202030785F5F000A283129200D
:10320200313230300A0028322920323430300A007C
:1032120028332920343830300A002834292039361E
:1032220030300A002835292031393230300A0A007C
:1032320043757272656E743A0A0031393230300A5F
:1032420000496E76616C69640A00313230300A00DE
:10325200323430300A00343830300A0039363030F7
:103262000A000A2020205F00310A00320A00330AD5
:1032720000340A00350A00580A000A4461746120C9
:10328200426974730A0A0028312920380A00283258
:103292002920390A000A43757272656E743A200059
:1032A200380A00390A000A5061726974790A0A0000
:1032B200283129204576656E0A00283229204F647C
:1032C200640A00283329204E6F6E650A0045766530
:1032D2006E0A004F64640A004E6F6E650A000A456A
:1032E2006E7465720A6368617261637465720A74EE
:1032F2006F2073656E643A0A0A2020205F000A2854
:10330200312920446174612052617465000A2832B7
:10331200292023206F6620446174610A2020202026
:1033220042697473000A28332920506172697479E2
:10333200000A2834292053656E64204461746100B8
:103342000A28452920456E640A0020202043616D29
:1033520065726F6E0A20202042696E69616D6F7717
:103362000A0020204543454E2D343333300A0A00EB
:103372002841292052414D20434845434B0A002809
:103382004229204D4F56450A0028432920434F55D4
:103392004E540A002844292044554D500A0028451D
:1033A2002920454449540A002846292046494E44CA
:1033B2000A0028312920554152540A00537072697B
:0833C2006E6720323032310049
:1027AF007A10E4FBFCE58225E0F582E58333F583BF
:1027BF00EB33FBEC33FCEB9508F5F0EC9509400699
:0927CF00FCABF0438201DADD22CB
:06005800E478FFF6D8FD7C
:100036007900E94400601B7A009033CA780175A004
:1000460000E493F2A308B8000205A0D9F4DAF27529
:02005600A0FF09
:1027D800E5828508F0A4C582C0F08509F0A4D0F090
:1027E80025F0C5838508F0A42583F58322E50845EF
:1027F8000960467A01E50825E0F508E50933401245
:10280800F509E5829508E583950940030A80E6C342
:10281800E50913F509E50813F508C3E5829508F5F8
:10282800F0E58395094005F58385F082C3E5091332
:0A283800F509E50813F508DAE122BE
:10005E007800E84400600A790175A000E4F309D83D
:10006E00FC7800E84400600C7900900001E4F0A3F5
:04007E00D8FCD9FAD7
:0D00290075817E12285EE5826003020026CC
:1028420020F71430F6148883A88220F507E6A883BF
:1028520075830022E280F7E49322E022758200224F
:00000001FF
