:04000000020029329F
:01000B0032C2
:0100130032BA
:01001B0032B2
:030023000200A137
:10008200752400752540752600752780E4F554F522
:0F00920055F560F561756202F564F565020026AB
:030026000229D0DC
:1000A100C021C0E0C0F0C082C083C007C006C00547
:1000B100C004C003C002C001C000C0D075D0002080
:1000C1009803020208859964C298756501120F743C
:1000D100856482122603858242E59854C0F56174D5
:1000E10040B56102800B74C0B5610302017C02025C
:1000F10003E4B5620280117401B5620280367402B4
:10010100B56202805B020203E54230E00C903026CA
:1001110075F080120BE002020353647F9030347556
:10012100F080120BE0856482120B7A9001F41202C6
:1001310040020203E54220E00C90302675F0801267
:100141000BE002020353647F90303475F080120B90
:10015100E0856482120B7A9001F4120240020203DC
:1001610053647F90303475F080120BE08564821205
:100171000B7A9001F4120240020203E5985404F54F
:10018100637404B563020542E4B56202801174012F
:10019100B5620280317402B562028051020203E548
:1001A1004230E00B90302675F080120BE0805390C6
:1001B100303475F080120BE0856482120B7A900165
:1001C100F4120240803CE54220E00B90302675F0AD
:1001D10080120BE0802C90303475F080120BE0859A
:1001E1006482120B7A9001F412024080159030342F
:1001F10075F080120BE0856482120B7A9001F41283
:1002010002405398F38002C299D0D0D000D001D0DF
:1002110002D003D004D005D006D007D083D082D03D
:10022100F0D0E0D0213275985053877F75892075C1
:100231008DFDD28ED2ACD2AF222099FDC29922AED1
:1002410082AF837C007D00C3EC9EED64808FF06300
:10025100F08095F050147AE87B031ABAFF011BEA8B
:100261004B70F70CBC00E00D80DD22AF82C2B5D22D
:10027100B4852482852583EFF0C2B4D2B5D2B4858A
:100281002482852583E508F0C2B422AE82AF838F34
:1002910004C2B5D2B4852482852583ECF0C2B4C2F0
:1002A100B5D2B4852482852583EEF0C2B4AE09AC03
:1002B10008D2B5D2B5D2B4852482852583EEF0C2A9
:1002C100B4D2B5D2B4852482852583ECF0C2B422A0
:1002D10075080790000F1203177E007F00756600F6
:1002E1008E828F83C007C006120320D006D0070E6E
:1002F100BE00010FC3EE940DEF940040E0750804B9
:1003010090000F020317D2B490000DE0F542C2B481
:10031100E54220E1F122AF08D2B4EFF0C2B422AE3F
:1003210082AF83D2B490000D7401F0C2B4C007C093
:1003310006120307D006D007D2B48E828F83E4F071
:10034100C2B4AF66D2B490000DEFF0C2B422AE8257
:10035100AF83D2B490000D7401F0C2B4C007C006DF
:10036100120307D006D007D2B48E828F83E0F54204
:10037100C2B4E542540F4430F542D2B490000DE4CA
:10038100F0C2B485428222852A5A852C5B852E5C77
:10039100E4F508F50990D6BA1204F1758202120447
:1003A100FE7508307509019000841204E4D2B490FE
:1003B100000D7401F0C2B4120307D2B4900005E03D
:1003C100F542C2B4E542540F4430F542D2B4900034
:1003D1000DE4F0C2B4854282120B7AD2B490000DC2
:1003E1007401F0C2B4120307D2B4900004E0F542E4
:1003F100C2B4E542540F4430F542D2B490000DE44A
:10040100F0C2B4854282120B7A90304E75F08012A0
:100411000BE0D2B490000D7401F0C2B4120307D204
:10042100B4900003E0F542C2B4E542540F4430F504
:1004310042D2B490000DE4F0C2B4854282120B7A2C
:10044100D2B490000D7401F0C2B4120307D2B4907B
:100451000002E0F542C2B4E542540F4430F542D205
:10046100B490000DE4F0C2B4854282120B7A903050
:100471004E75F080120BE0D2B490000D7401F0C201
:10048100B4120307D2B4900001E0F542C2B4E542D0
:10049100540F4430F542D2B490000DE4F0C2B4855B
:1004A1004282120B7AD2B490000D7401F0C2B412E0
:1004B1000307D2B4900000E0F542C2B4E542540F04
:1004C1004430F542D2B490000DE4F0C2B4854282CA
:1004D100120B7A855A2A752B00855B2C752D0085A8
:1004E1005C2E2285822A85832B85082C85092D2265
:1004F10085823085833185083285093322E582FF83
:1005010024F7500122EF60068F067F0080047E01F0
:100511007F008E2E22E582FF24FC404EEF2F9005B6
:10052100237380068014802280307F487534F075F3
:100531003500753640753701803E7F28753440752A
:1005410035017536F0753700802E7F887534F0756A
:100551003500753640753701801E7FE8753440756A
:1005610035017536F0753700800E7F487534F075AA
:1005710035007536407537018F0875823602026C79
:10058100AE82AF83C2B5D2B4852482852583742A15
:10059100F0C2B4D2B5D2B48524828525838F05ED0E
:1005A100F0C2B4D2B5D2B4852482852583EEF0C2DF
:1005B100B4D2B5D2B4852482852583E50BF0C2B4CB
:1005C100D2B5D2B4852482852583E50AF0C2B4C2AE
:1005D100B5D2B4852482852583742BF0C2B4D2B5FB
:1005E100D2B4852482852583E509F0C2B4D2B5D27F
:1005F100B4852482852583E508F0C2B4D2B5D2B48E
:10060100852482852583E50DF0C2B4D2B5D2B485A7
:100611002482852583E50CF0C2B4227534F075354A
:1006210000753640753701C2B4D2B5C2B5D2B485B2
:100631002482852583E4F0C2B4D2B5D2B485248264
:10064100852583E4F0C2B4D2B5D2B4852482852550
:1006510083E4F0C2B4D2B5D2B4852482852583E483
:10066100F0C2B49000C812024075080075820112F0
:10067100026C900032120240750800758228120245
:100681006C90000A1202407508237582C012026C38
:100691007508117582C112026CC2B5D2B48524826B
:1006A10085258374C5F0C2B4D2B5D2B485248285C0
:1006B1002583743DF0C2B4D2B5D2B4852482852598
:1006C100837430F0C2B47508AA7582C712026C75C2
:1006D100088875823612026CC2B5D2B4852482852F
:1006E1002583743AF0C2B4D2B5D2B485248285256B
:1006F100837455F0C2B4D2B5D2B4852482852583E2
:10070100E4F0C2B475081B7509009000B112028CA7
:100711007508077582B712026C750800758211128F
:10072100026C90009612024075080075822912022F
:100731006C9001F4120240E53424FFF50AE53534EA
:10074100FFF50BE53624FFF50CE53734FFF50DE435
:10075100F508F509900000020581AE82AF837401AE
:100761002EF50AE43FF50B74012567F50CE43568B5
:10077100F50D8567088568098E828F83120581C210
:10078100B5D2B4852482852583742CF0C2B4D2B548
:10079100D2B4852482852583E56AF0C2B4D2B485BA
:1007A1002482852583E569F0C2B422AE82AF83C37A
:1007B100EE94F0EF9400500BC3E56B9440E56C941C
:1007C10001400122E56D2EFCE56E3FFD1CBCFF01E1
:1007D1001DC3EC94F0ED9400400A74F0C39EF56DD6
:1007E100E49FF56EE56F256BFCE570356CFD1CBC77
:1007F100FF011DC3EC9440ED9401400D7440C3957D
:100801006BF56F7401956CF570E56D2EFCE56E3F2F
:10081100FDEC24FFF50AED34FFF50BE56F256BFCCC
:10082100E570356CFDEC24FFF50CED34FFF50D851D
:100831006B08856C098E828F83120581C2B5D2B493
:10084100852482852583742CF0C2B4D2B5AF72ADF4
:100851006FAE70ED4E6030AB6DAC6EEB4C6021D283
:10086100B4852482852583EFF0C2B4D2B485248275
:10087100852583E571FAF0C2B41BBBFF011C80DB47
:100881001DBDFF011E80CC22AE82AF838F05E4F532
:1008910008F509750AEFF50B750C3F750D01900010
:1008A10000C006C005120581D005D006C2B5D2B47C
:1008B100852482852583742CF0C2B4D2B5D2B48547
:1008C1002482852583EDF0C2B4D2B48524828525A6
:1008D10083EEF0C2B47CB07F048C028F031CBCFF9A
:1008E100011FEA4B60667B10D2B485248285258383
:1008F100EDF0C2B4D2B4852482852583EEF0C2B472
:10090100D2B4852482852583EDF0C2B4D2B4852486
:1009110082852583EEF0C2B4D2B4852482852583F5
:10092100EDF0C2B4D2B4852482852583EEF0C2B441
:10093100D2B4852482852583EDF0C2B4D2B4852456
:1009410082852583EEF0C2B4DB9E808D7F3F8F04CC
:100951001FEC601AD2B4852482852583EDF0C2B4E0
:10096100D2B4852482852583EEF0C2B480E022854D
:10097100827B85837CC3E57B94F0E57C64809480F5
:100981005059C3E5739440E57464809481504CAC34
:100991007A7D008C088D09900006C005C004122ADA
:1009A10091AA82AB83D004D005EA257BFAEB357C92
:1009B100FB1ABAFF011BEB20E721EDC40354F8CC6D
:1009C100C403CC6CCC54F8CC6CFDEC2573FCED3538
:1009D10074FD1CBCFF011DED30E701227401B57AE5
:1009E1000474018001E4FDFCE576B57808E577B58E
:1009F1007903D38001C392007B00BB060040012232
:100A0100BB0505757D00803085750875090090006E
:100A110005C005C004C003122A91A882A983D0038E
:100A2100D004D005E8241BF8E9342BF9EB28F58232
:100A3100E439F583E493F57D8BF0E57AA4257BF821
:100A4100E57C35F0F9887E897F7A00BA0800400399
:100A5100020B76E57D20E003020AE4ED60408B069F
:100A61007F00EE257BF582EF357CF5838A067F00DA
:100A7100EE2573F567EF3574F56885766985776AD4
:100A8100C005C004C003C002C001C00012075BD092
:100A910000D001D002D003D004D005020B6C8AF043
:100AA100E57AA42573F56BE57435F0F56CAE7A7FC4
:100AB100008E6D8F6E8E6F8F7085767185777285E2
:100AC1007E82857F83C005C004C003C002C001C00F
:100AD100001207ACD000D001D002D003D004D00561
:100AE100020B6C300003020B6CEC603F8B067F0045
:100AF100EE257BF582EF357CF5838A067F00EE25B6
:100B010073F567EF3574F56885786985796AC0058D
:100B1100C004C003C002C001C00012075BD000D0F6
:100B210001D002D003D004D00580408AF0E57AA438
:100B31002573F56BE57435F0F56CAE7A7F008E6D3B
:100B41008F6E8E6F8F7085787185797288828983B7
:100B5100C005C004C003C002C001C0001207ACD070
:100B610000D001D002D003D004D005E57DC313F538
:100B71007D0A020A4C0B0209FBAF82BF0A22AD2E8D
:100B8100E4C40354F8CDC403CD6DCD54F8CD6DFE4E
:100B9100ED252CF52CEE352DF52DE4F52AF52B223E
:100BA100BF0D0122852C73852D748F758530768557
:100BB1003177853278853379852E7A852A82852B1E
:100BC10083120970852E08750900900006122A917A
:100BD100AE82AF83EE252AF52AEF352BF52B22AD18
:100BE10082AE83AFF07B007C00EB2DF8EC3EF98FF9
:100BF10002888289838AF0122AFBFA60208A82C0E5
:100C010007C006C005C004C003120B7AD003D0048C
:100C1100D005D006D0070BBB00CF0C80CC2275903D
:100C2100F07565007590F08590225322F074F0B54F
:100C310022028004E56560EC12038890000A12022A
:100C410040E59054F0F52274F0B52204E56560E8C2
:100C5100900001120240E59054F0F52274F0B522A3
:100C610004E56560D3E5656003020D2E7590FEE530
:100C71009054F0F52274F0B52202800575230080AE
:100C81003D7590FDE59054F0F52274F0B522028097
:100C91000575230180287590FBE59054F0F52274C9
:100CA100F0B52202800575230280137590F7E59057
:100CB10054F0F52274F0B5220280B175230374E07B
:100CC100B52215E52375F004A42416F58274303598
:100CD100F0F583E493F5822274D0B52218E52375EB
:100CE100F004A42416FE743035F0FF8E828F83A3A6
:100CF100E493F5822274B0B52219E52375F004A4BA
:100D01002416FE743035F0FF8E828F83A3A3E49303
:100D1100F58222E52375F004A42416FE743035F023
:100D2100FF8E828F83A3A3A3E493F58222756500CE
:100D3100E56424C0F58222AF82BF30005003020D6A
:100D4100C9EF24B95003020DC9EF24D0FF240A834F
:100D5100F582EF241B83F583E473898D9195999D29
:100D6100A1A5A9ADC9C9C9C9C9C9C9B1B5B9BDC1CA
:100D7100C50D0D0D0D0D0D0D0D0D0D0D0D0D0D0DEA
:100D81000D0D0D0D0D0D0D0D7F00803E7F01803A83
:100D91007F0280367F0380327F04802E7F05802A88
:100DA1007F0680267F0780227F08801E7F09801AA8
:100DB1007F0A80167F0B80127F0C800E7F0D800AC8
:100DC1007F0E80067F0F80027F008F8222AE82AF6E
:100DD10083C3740F9EE49F5003020E4BEE240A83DB
:100DE100F582EE241483F583E4730B0F13171B1F95
:100DF10023272B2F33373B3F43470E0E0E0E0E0E8C
:100E01000E0E0E0E0E0E0E0E0E0E7F30803E7F3138
:100E1100803A7F3280367F3380327F34802E7F3537
:100E2100802A7F3680267F3780227F38801E7F3957
:100E3100801A7F4180167F4280127F43800E7F445B
:100E4100800A7F4580067F4680027F308F8222E5BF
:100E510082FFC4540FFE8E4F755000534F0F7550D3
:100E610000854F82855083C007120DCE85825312B3
:100E71000B7AD0077E00740F5FF54F8E50854F823D
:100E8100855083120DCE858253020B7AAE82E583A3
:100E9100FFC4540FF54F755000534F0F7550008527
:100EA1004F82855083C007C006120DCE85825390B4
:100EB100305075F080120BE0855382120B7AD00608
:100EC100D0078F4F755000534F0F755000854F82DB
:100ED100855083C007C006120DCE858253120B7A4E
:100EE100D006D0078E4FEFC4C54FC4540F654FC510
:100EF1004F540FC54F654FC54FF550534F0F7550A8
:100F010000854F82855083C007C006120DCE8582B1
:100F110053120B7AD006D0078E4F8F50534F0F7557
:100F21005000854F82855083120DCE858253020B6E
:100F31007AAE82AF83C2B48E828F83E508F0D2B4D9
:100F410022AF827D007E00C2B48D828E83EFF0D20B
:100F5100B40DBD00010EC374FE9D74FF9E50E822C6
:100F6100AE82AF83C2B48E828F83E0F542D2B48564
:100F7100428222758204120516E4F508F50990D61D
:100F8100BA1204F17582031204FE9000001208895E
:100F9100E4F508F5099000000204E4120F74E4F589
:100FA10008F50990F8001204F190305375F08012A1
:100FB1000BE090306175F080120BE09000C81202D6
:100FC10040020F74E4F539F53AF508F50990FFFF91
:100FD1001204F1120C1F858238E4F508F50990FF1F
:100FE100FF1204F1853882120B7A853882120D388E
:100FF100AF82EFC454F0FEE44239EE423A120C1FC4
:10100100858238E4F508F50990FFFF1204F185386F
:1010110082120B7A853882120D38AF828F06E44234
:1010210039EE423A120C1F858238E4F508F5099031
:10103100FFFF1204F1853882120B7A853882120D76
:1010410038AF82E4C454F0CFC4CF6FCF54F0CF6F28
:10105100FEEF4239EE423A120C1F858238E4F50860
:10106100F50990FFFF1204F1853882120B7A853859
:1010710082120D38AF827E00EF4239EE423A22E40D
:10108100F508F50990FFFF1204F1753B00120C1FE2
:10109100858238E4F508F50990FFFF1204F18538DF
:1010A10082120B7A853882120D38E582C454F042DF
:1010B1003B120C1F858238E4F508F50990FFFF12F9
:1010C10004F1853882120B7A853882120D38E58257
:1010D100423B22753F00753C00120F74E4F508F5A0
:1010E1000990FFFF1204F190306B75F080120BE054
:1010F10090308075F080120BE090308A75F080128C
:101101000BE090309475F080120BE0852E08750984
:1011110000900006122A91AE82AF83E52AC39EF5A4
:101121002AE52B9FF52B852A5D852C5E852E5FE4B4
:10113100F508F50990FFFF1204F1120C1F858238A2
:10114100855D2A752B00855E2C752D00855F2E85AA
:101151003882120B7A7431B53802800E7432B53888
:1011610002800F7433B5381A8010753C01753F0148
:101171008016753C02753F01800E753C04753F0178
:101181008006120F9C753F00E53F70030210DA22C2
:10119100E4F53FF53DF53E120F749030AD75F080EA
:1011A100120BE0E52E75F018A4FEAFF0E52AC39E00
:1011B100F52AE52B9FF52B852A5D852C5E852E5F13
:1011C100E4F539F53AF508F50990FFFF1204F1123B
:1011D1000C1F858238855D2A752B00855E2C752D47
:1011E10000855F2E853882120B7A852A5D852C5EFB
:1011F100852E5F853882120D38AF82EFC454F0FE20
:10120100E44239EE423A120C1F858238855D2A7517
:101211002B00855E2C752D00855F2E853882120B83
:101221007A852A5D852C5E852E5F853882120D3880
:10123100AF828F06E44239EE423A120C1F858238A2
:10124100855D2A752B00855E2C752D00855F2E85A9
:101251003882120B7A852A5D852C5E852E5F853852
:1012610082120D38AF82E4C454F0CFC4CF6FCF5493
:10127100F0CF6FFEEF4239EE423A120C1F858238F1
:10128100855D2A752B00855E2C752D00855F2E8569
:101291003882120B7A852A5D852C5E852E5F853812
:1012A10082120D38AF827E00EF4239EE423A853923
:1012B1003D853A3EE53D453E7009120F9C753F0064
:1012C100021198753F0122754200754000120F749A
:1012D1009030C975F080120BE0758255120F42757E
:1012E100085590FFFF120F32E4F508F5099007E069
:1012F1001204F19030F875F080120BE09000C812E2
:101301000240120F7490310975F080120BE07E00DB
:101311007F008E828F83C007C006120F61858242D3
:10132100D006D0070EBE00010F7455B542047401FA
:101331008001E4FD6009C374FE9E74FF9F50D3EDEC
:10134100601190FFFFC007C006120F61858242D075
:1013510006D0077455B542028061E4F508F509909D
:10136100F800C007C0061204F190313475F0801204
:101371000BE090006412024090315275F080120B24
:10138100E0D006D007EE24FFF582EF34FFF583129B
:101391000E8D90315D75F080120BE0854282120E48
:1013A10050E4F508F50990FFFF1204F190316275E0
:1013B100F080120BE09000C8020240E4F508F50944
:1013C1009007E01204F190317A75F080120BE090F1
:1013D10000C8120240120F7490319675F080120B02
:1013E100E07582AA120F427508AA90FFFF120F3210
:1013F100E4F508F5099007E01204F19030F875F072
:1014010080120BE09000C8120240120F749031C597
:1014110075F080120BE07E007F008E828F83C00703
:10142100C006120F61858242D006D0070EBE0001B0
:101431000F74AAB5420474018001E4FD6009C3740C
:10144100FE9E74FF9F50D3ED601190FFFFC007C057
:1014510006120F61858242D006D00774AAB54202F6
:101461008061E4F508F50990F800C007C006120490
:10147100F19031F075F080120BE09000641202409F
:1014810090315275F080120BE0D006D007EE24FFA8
:10149100F582EF34FFF583120E8D90315D75F0808A
:1014A100120BE0854282120E50E4F508F50990FF17
:1014B100FF1204F190316275F080120BE09000642C
:1014C100020240E4F508F5099007E01204F19032B8
:1014D1000E75F080120BE090322A75F080120BE04D
:1014E100900064120240E4F508F50990FFFF120430
:1014F100F190316275F080120BE0900064020240BD
:10150100E4F556F557F558F559F543F544F545F524
:1015110046F547F548F549F54AF54BF54CF54DF5D6
:101521004E120F7490324075F080120BE0E52E756B
:10153100F018A4FEAFF0E52AC39EF52AE52B9FF52E
:101541002B120FC5853943853A44120F7490326FBF
:1015510075F080120BE0E52E75F018A4FEAFF0E5F2
:101561002AC39EF52AE52B9FF52B120FC585394716
:10157100853A481210D4120F74121191C3E54395A4
:1015810047E54495485063853C08750900853D82CF
:10159100853E83122A91AE82AF83EE2547FCEF355B
:1015A10048FD8C568D57755800755900C374FF95C9
:1015B1005674FF9557E49558E4955950087549FFBD
:1015C100754AFF800AEE2547F549EF3548F54AE5AA
:1015D10049C39547F53DE54A9548F53EE53D254327
:1015E100F545E53E3544F5468061853C08750900C1
:1015F100853D82853E83122A91AE82AF83EE2543DB
:10160100FCEF3544FD8C568D57755800755900C354
:1016110074FF955674FF9557E49558E49559500811
:101621007545FF7546FF800AEE2543F545EF3544C4
:10163100F546E545C39543F53DE5469544F53EE55B
:101641003D2547F549E53E3548F54AC3E54395470C
:10165100E5449548504EC3E5479545E548954650C4
:101661004385454B85464C85494D854A4EC3E54DDD
:101671009547E54E9548406D854B82854C83120F09
:1016810061858242854208854D82854E83120F32E3
:10169100154B74FFB54B02154C154D74FFB54D023A
:1016A100154E80C985434B85444C85474D85484E31
:1016B100C3E549954DE54A954E402A854B82854CB7
:1016C10083120F61858242854208854D82854E8352
:1016D100120F32054BE4B54B02054C054DE4B54DF7
:1016E100CF054E80CB120F74E4F508F5099007E0A1
:1016F1001204F19032A375F080120BE09000641295
:101701000240E4F508F50990FFFF1204F1903162FF
:1017110075F080120BE0900064020240E4F556F58A
:1017210057F558F559F543F544F545F546F53DF5B9
:101731003EF551F552F554F555F549F54AF5401286
:101741000F749032B575F080120BE0E52E75F0182C
:10175100A4FEAFF0E52AC39EF52AE52B9FF52B12D7
:101761000FC5853943853A44120F74121191120F36
:10177100749032DC75F080120BE0E52E75F00CA44C
:10178100FEAFF0E52AC39EF52AE52B9FF52B12103B
:1017910080853B51755200E53D2543FEE53E3544CC
:1017A100FF8E568F57755800755900AC43AD447E76
:1017B100007F00C3E5569CE5579DE5589EE5599F7E
:1017C10050147545FF74FFF546C39543F53D74FF0D
:1017D1009544F53E800CE53D2543F545E53E354410
:1017E100F546AE43AF448E048F05C3E5459CE546FF
:1017F1009D404CE54070488E828F83C007C0061221
:101801000F61858242D006D007AC427D00ECB55114
:101811001AEDB5521674FFB55409B555067549014F
:10182100754A000554E4B5540205558E048F05BC74
:10183100FF06BDFF037540010EBE00AA0F80A7E59C
:10184100544555700D7401B5490614B54A0280021C
:10185100805F120F74E4F508F5099007E01204F1B6
:101861009032F975F080120BE0855182120E509082
:1018710032FD75F080120BE0E5544555600B85543F
:1018810082855583120E8D80167401B5490614B5F3
:101891004A028002800990330575F080120BE090B6
:1018A100330D75F080120BE090012C120240021EE4
:1018B100ED120F749032F975F080120BE0855182B0
:1018C100120E5090331575F080120BE0854382851E
:1018D1004483120E8D90333175F080120BE08545F3
:1018E10082854683120E8D90012C120240120F74D4
:1018F10090316275F080120BE09000C8020240E462
:10190100F54DF54EF540F547F54885434B85444C7B
:10191100120F747582021204FE90333575F0801235
:101921000BE0C3E53D940AE53E940050030219CF54
:1019310075470A7548007E007F00854B82854C8380
:10194100C007C006120E8D90315D75F080120BE05C
:10195100D006D0077C007D00AA3C7B00C3EC9AED49
:1019610064808BF063F08095F0502B854B82854C21
:1019710083C007C006C005C004120F61120E50D00B
:1019810004D005D006D007054BE4B54B02054C0C3D
:10199100BC00C50D80C290333575F080C007C0060C
:1019A100120BE0D006D007153D74FFB53D02153E80
:1019B1000EBE00010FC3EE940AEF648094805003C1
:1019C10002193B054DE4B54D02054E021B34E53DC0
:1019D100453E7003021ABEC3E53D940AE53E9400FC
:1019E1004003021ABE853D47853E48E53D453E60C0
:1019F10060854B82854C83120E8D90315D75F08030
:101A0100120BE07E007F00AC3C7D00C3EE9CEF64D6
:101A1100808DF063F08095F05023854B82854C8357
:101A2100C007C006120F61120E50D006D007054B39
:101A3100E4B54B02054C0EBE00CD0F80CA90333584
:101A410075F080120BE0153D74FFB53D02153E8027
:101A51009AE549454A605C854B82854C83120E8D1F
:101A610090315D75F080120BE07E007F008E048F57
:101A710005C3EC9549ED954A5023854B82854C83EE
:101A8100C007C006120F61120E50D006D007054BD9
:101A9100E4B54B02054C0EBE00D30F80D0E54BC31D
:101AA1009549F54BE54C954AF54C90333575F080E9
:101AB100120BE0054DE4B54D7A054E8076E53D45C6
:101AC1003E7070E549454A606A853D47853E4885D7
:101AD1004B82854C83120E8D90315D75F080120B17
:101AE100E07E007F008E048F05C3EC9549ED954A99
:101AF1005023854B82854C83C007C006120F6112AB
:101B01000E50D006D007054BE4B54B02054C0EBE76
:101B110000D30F80D090333575F080120BE0054D66
:101B2100E4B54D02054EE54BC39549F54BE54C95A2
:101B31004AF54C7508FA7509009000001204E4900A
:101B4100333775F080120BE0854D82854E83120E7E
:101B51008D120C1F8582387430B5380280127431B1
:101B6100B5380280657445B53803021C68021C7FD4
:101B7100753F01E53D453E6006754000021CC37599
:101B81004000853C08750900854782854883122AF3
:101B910091AE82AF83E54BC39EF54BE54C9FF54C6F
:101BA100E547253DF53DE548353EF53E154D74FFCC
:101BB100B54D02154E120F7490336875F080120BFB
:101BC100E09000C8120240021CC3C37401954DE4A9
:101BD100954E5049754000740A2547FEE43548FF8B
:101BE100853C087509008E828F83C007C006122AC2
:101BF10091AC82AD83D006D007E54BC39CF54BE594
:101C01004C9DF54CE54D24FEF54DE54E34FFF54E6A
:101C1100EE253DF53DEF353EF53E021CC375400016
:101C2100120F7490337675F080120BE09000C81299
:101C31000240853C08750900854782854883122A40
:101C410091AE82AF83E54BC39EF54BE54C9FF54CBE
:101C5100154D74FFB54D02154EE547253DF53DE5A2
:101C610048353EF53E805B120F7490338275F080EB
:101C7100120BE09000C8120240754001804475408B
:101C810000120F9CE54745486038853C08750900FE
:101C9100854782854883122A91AE82AF83E54BC383
:101CA1009EF54BE54C9FF54C154D74FFB54D021556
:101CB1004EE547253DF53DE548353EF53EE4F54722
:101CC100F548E540700302191122E4F556F557F580
:101CD10058F559F543F544F545F546F53CF53DF51F
:101CE1003EF549F54A120F7490339B75F080120B43
:101CF100E0E52E75F018A4FEAFF0E52AC39EF52AA3
:101D0100E52B9FF52B120FC5853943853A441210F7
:101D1100D4120F74121191AE3C7F00853D08853EAF
:101D2100098E828F83C007C006122A91AC82AD83CF
:101D3100D006D007EC2543FAED3544FB8A568B5784
:101D4100755800755900A843A9447A007B00C3E582
:101D51005698E55799E5589AE5599B50087545FFFE
:101D61007546FF8012EC2543FCED3544FDEC24FF64
:101D7100F545ED34FFF546E545C39543FCE546954C
:101D810044FD0CBC00010D8E088F098C828D83C02F
:101D910007C006C005C004122A6885823D85833EBE
:101DA100D004D005D006D0078E088F098C828D8390
:101DB100122AAE85824985834A021900AE82AF8319
:101DC100C007C006120F61858242120F749033352D
:101DD10075F080120BE0D006D0078E828F83C0078A
:101DE100C006120E8D90315D75F080120BE08542B8
:101DF10082120E509033C975F080120BE0E52E75FA
:101E0100F00CA4FCADF0E52AC39CF52AE52B9DF569
:101E11002B121080D006D007853B088E828F83124B
:101E21000F329033DD75F080120BE09033FE75F0C8
:101E310080020BE0754000754100753F00120F7480
:101E41009032B575F080120BE0E52E75F018A4FE06
:101E5100AFF0E52AC39EF52AE52B9FF52B120FC59E
:101E6100E5417052E540704E853982853A83121DF5
:101E7100BD120C1F8582387431B538028007744554
:101E8100B53827801D753F0174FFB53908B53A058E
:101E9100754101801B0539E4B53902053A754100E8
:101EA100800E753F017540018006753F00120F9C41
:101EB100E53F60B480AA120F747401B54114E4F5D2
:101EC10008F50990F8001204F190340675F08012BB
:101ED1000BE0E4F508F50990FFFF1204F1903415C9
:101EE10075F080120BE09000C8020240E4F547F55E
:101EF10048F54DF54E120F7485434B85444C854B87
:101F010082854C83120F61858242AE427F00EEB51D
:101F11005106EFB552028021C3E54B9545E54C953D
:101F2100465016054BE4B54B02054C854B82854C5A
:101F310083120F6185824280D1AE427F00EEB5519E
:101F410006EFB552028058E545B54B53E546B54C11
:101F51004E120F749032F975F080120BE0855182A8
:101F6100120E5090342E75F080120BE0854382855D
:101F71004483120E8D90333175F080120BE085454C
:101F810082854683120E8D9000C8120240120F7492
:101F910090316275F080120BE090006402024012F1
:101FA1000F74E4F508F5099007E01204F19032F995
:101FB10075F080120BE0855182120E5090344C75F1
:101FC100F080120BE09000C8120240854B47854C0F
:101FD10048120F7485474B85484C854B82854C834D
:101FE100120E8D755407755500054DE4B54D02056A
:101FF1004E74FFB54B05B54C02804C054BE4B54B17
:1020010002054C854B82854C83120F61858242AE5D
:10201100427F00EEB5511FEFB5521B155474FFB549
:102021005402155590333575F080120BE0854B82C3
:10203100854C83120E8DC3E54B9545E54C95465075
:1020410006E554455570B47508FA7509009000000D
:102051001204E47582021204FEE4F508F50990FF0A
:10206100FF1204F190333775F080120BE0854D8239
:10207100854E83120E8D120C1F8582387430B5384F
:102081000280137431B538030221387445B5380321
:102091000221B80221CCC3E54B9545E54C9546405C
:1020A1001E120F7490347175F080120BE09000C80D
:1020B100120240154D74FFB54D02154E0221D8058F
:1020C1004BE4B54B02054C854B82854C83120F6165
:1020D100858242AE427F00EEB5510AEFB5520685C8
:1020E1004B47854C48C3E54B9545E54C9546500C0F
:1020F100AE427F00EEB551C7EFB552C3C3E54B9574
:1021010045E54C954650030221D8AE427F00EEB51D
:102111005107EFB552030221D8120F749034717533
:10212100F080120BE09000C8120240154D74FFB50B
:102131004D02154E0221D87401B54D0614B54E025B
:102141008002801E120F7490347175F080120BE0C2
:102151009000C8120240154D74FFB54D02154E0294
:1021610021D885474B85484CE4F554F555C3E554D2
:102171009408E5559400502B154B74FFB54B02158F
:102181004C854B82854C83120F61858242AE427F22
:1021910000EEB551D8EFB552D40554E4B554CE058F
:1021A1005580CA854B47854C48E54D24FEF54DE5E4
:1021B1004E34FFF54E8020120F7490316275F0801D
:1021C100120BE09000C8120240800C120F9C154DBA
:1021D10074FFB54D02154E7445B5380122021FD268
:1021E10022E4F556F557F558F559F543F544F5450B
:1021F100F546F53CF53DF53EF551F552120F74905B
:10220100347E75F080120BE0E52E75F018A4FEAF58
:10221100F0E52AC39EF52AE52B9FF52B120FC58504
:102221003943853A44120F74121191120F7490348C
:10223100A675F080120BE0E52E75F00CA4FEAFF050
:10224100E52AC39EF52AE52B9FF52B121080853BCD
:1022510051755200E53D2543FEE53E3544FF8E565E
:102261008F57755800755900AC43AD447E007F000F
:10227100C3E5569CE5579DE5589EE5599F50147559
:1022810045FF74FFF546C39543F53D74FF9544F54D
:102291003E800CE53D2543F545E53E3544F54602D6
:1022A1001EED758204120516E4F508F50990D6BAFB
:1022B1001204F17582031204FE900000120889E4F1
:1022C100F508F5099000000204E4120F749034C47B
:1022D10075F080120BE09034CF75F080120BE09016
:1022E10034D975F080120BE09034E375F080120B55
:1022F100E09034ED75F080120BE09034F975F080C8
:10230100120BE0E5875480F5607480B5601B74FDA5
:10231100B58D0B90350375F080120BE0804B903535
:102321000A75F080120BE08040AF8DBFE802800F8C
:10233100BFF4028015BFFA02801BBFFD2C802190E3
:10234100351375F080120BE0801F90351975F08000
:10235100120BE0801490351F75F080120BE080099C
:1023610090352575F080120BE090352B75F08012B9
:102371000BE0E52E75F006A4FEAFF0E52AC39EF54D
:102381002AE52B9FF52B120C1F8582387431B53845
:1023910002801F7432B5380280307433B538028040
:1023A100407434B5380280507435B538028060020B
:1023B1002427753F01758DE853877F75400190355E
:1023C1003175F080120BE0022439753F01758DF4EF
:1023D10053877F75400190353475F080120BE08092
:1023E10057753F01758DFA53877F754001903537D9
:1023F10075F080120BE08040753F01758DFD5387AC
:102401007F75400190353A75F080120BE080297597
:102411003F01758DFD43878075400190353D75F015
:1024210080120BE08012753F0090354075F08012EC
:102431000BE0120F9C754000E54070030222CE9024
:1024410000C8020240120F7490354375F080120BE0
:10245100E090355075F080120BE090355775F080A3
:10246100120BE090355E75F080120BE0E59854C0D8
:10247100F5617440B56102800774C0B56116800BC7
:1024810090356975F080120BE0800990356C75F01C
:1024910080120BE090352B75F080120BE0E52E7564
:1024A100F006A4FEAFF0E52AC39EF52AE52B9FF5C1
:1024B1002B120C1F8582387431B5380280077432B3
:1024C100B5382A8014753F0153987F7540019035C6
:1024D1003175F080120BE08026753F014398C0757D
:1024E100400190353475F080120BE08012753F0089
:1024F10090354075F080120BE0120F9C754000E59D
:102501004070030224499000C8020240120F7490E7
:10251100356F75F080120BE090357975F080120BF4
:10252100E090358375F080120BE090358C75F0806A
:10253100120BE090355E75F080120BE0E4B562029B
:10254100800E7401B5620280127402B56221801698
:1025510090359675F080120BE0801490359C75F0E3
:1025610080120BE080099035A175F080120BE0908C
:10257100352B75F080120BE0E52E75F006A4FEAF49
:10258100F0E52AC39EF52AE52B9FF52B120C1F853A
:1025910082387431B53802800E7432B53802801B2E
:1025A1007433B5383E8028753F017562007540016E
:1025B10090353175F080120BE0803A753F017562FC
:1025C1000175400190353475F080120BE08026755D
:1025D1003F0175620275400190353775F080120B2D
:1025E100E08012753F0090354075F080120BE012CB
:1025F1000F9C754000E54070030225109000C80251
:102601000240AF827E007C007D00C3EC9408ED6443
:1026110080948050178CF005F0EF8002C313D5F041
:10262100FB30E0010E0CBC00E10D80DE8E82221237
:102631000F749035A775F080120BE0E52E75F0064A
:10264100A4FEAFF0E52AC39EF52AE52B9FF52B12D8
:102651000C1F858238120B7A8538821226038582F7
:1026610042E59854C0F5617440B56102800774C0B9
:10267100B56164802DE4B56202800E7401B5620219
:1026810080117402B562508014E54230E04943384C
:10269100808044E54220E03F433880803A53387FD0
:1026A1008035E4B56202800E7401B5620280167451
:1026B10002B56223801EE54230E005439808801789
:1026C1005398F78012E54220E005439808800853AB
:1026D10098F780035398F785389912023A9000C809
:1026E100120240020F74120F749035C775F08012F8
:1026F1000BE09035D675F080120BE09035EE75F059
:1027010080120BE09035FA75F080120BE0903609DB
:1027110075F080120BE07582021204FE903613757B
:10272100F080120BE0E5875480F5607480B5601B82
:1027310074FDB58D0B90361F75F080120BE0804B48
:1027410090362575F080120BE08040AF8DBFE80216
:10275100800FBFF4028015BFFA02801BBFFD2C80E1
:102761002190362D75F080120BE0801F9036327566
:10277100F080120BE0801490363775F080120BE078
:10278100800990363C75F080120BE090364175F06F
:1027910080120BE0E59854C0F5617440B561028088
:1027A1000774C0B56116800B90364B75F080120B23
:1027B100E0800990364D75F080120BE090364F7530
:1027C100F080120BE0E4B56202800E7401B5620282
:1027D10080127402B56221801690365975F080120C
:1027E1000BE0801490365E75F080120BE08009904A
:1027F100366275F080120BE0120C1F85823874313D
:10280100B53802801C7432B53802801D7433B53876
:1028110002801E7434B53802801F7445B538448077
:10282100201222CB75400080401224467540008062
:102831003812250D75400080301226307540008019
:10284100281222A3E4F508F50990FFFF1204F19084
:10285100341575F080120BE09000C81202407540EB
:10286100018006120F9C754000E54070030226E7C7
:1028710022753800852682852783D2B474C0F0C2C0
:10288100B4120F74E4F508F5099007E01204F19011
:10289100366775F080120BE090367F75F080120B71
:1028A100E0E4F508F50990FFFF1204F190368D750B
:1028B100F080120BE090369C75F080120BE09036A0
:1028C100A675F080120BE09036B175F080120BE026
:1028D1009036BB75F080120BE09036C575F0801212
:1028E1000BE09036CF75F080120BE0E4F508F509A6
:1028F10090FFFF1204F17582011204FE7508307514
:1029010009019000031204E49036D975F080120B8E
:10291100E0120388120C1F8582387431B538030226
:1029210029B07441B5380280267442B53802802F2F
:102931007443B5380280387444B538028041744517
:10294100B53802804A7446B5380280530229C085E1
:102951002682852783D2B47488F0C2B40212C88556
:102961002682852783D2B47483F0C2B4021501850F
:102971002682852783D2B474C6F0C2B402171D859E
:102981002682852783D2B474A1F0C2B4021CCB8500
:102991002682852783D2B47486F0C2B4021E35859F
:1029A1002682852783D2B4748EF0C2B40221E285D7
:1029B1002682852783D2B474F9F0C2B40226E78552
:1029C1002682852783D2B474FFF0C2B4020F9CC261
:1029D100B5C2B41202271202D1852682852783D27D
:1029E100B474FEF0C2B49000641202408526828560
:1029F1002783D2B474FCF0C2B49000641202408503
:102A01002682852783D2B474F8F0C2B49000641290
:102A11000240852682852783D2B474F0F0C2B49037
:102A21000064120240852682852783D2B474E0F0C7
:102A3100C2B4900064120240852682852783D2B4F5
:102A410074C0F0C2B4900064120240C2B4D2B51294
:102A5100061C852682852783D2B474F9F0C2B4128C
:072A61000F7412287280FBC4
:102B1B0000000000003E5B4F5B3E3E6B4F6B3E1C6C
:102B2B003E7C3E1C183C7E3C181C577D571C1C5E83
:102B3B007F5E1C00183C1800FFE7C3E7FF0018245A
:102B4B001800FFE7DBE7FF30483A060E2629792904
:102B5B0026407F050507407F05253F5A3CE73C5A39
:102B6B007F3E1C1C08081C1C3E7F14227F22145F16
:102B7B005F005F5F06097F017F006689956A606071
:102B8B0060606094A2FFA29408047E040810207E6B
:102B9B00201008082A1C08081C2A08081E101010F0
:102BAB00100C1E0C1E0C30383E3830060E3E0E0636
:102BBB00000000000000005F000000070007001489
:102BCB007F147F14242A7F2A122313086462364948
:102BDB005620500008070300001C22410000412230
:102BEB001C002A1C7F1C2A08083E08080080703035
:102BFB0000080808080800006060002010080402A4
:102C0B003E5149453E00427F4000724949494621A9
:102C1B0041494D331814127F1027454545393C4A1D
:102C2B004949314121110907364949493646494934
:102C3B00291E00001400000040340000000814227C
:102C4B0041141414141400412214080201590906EA
:102C5B003E415D594E7C1211127C7F494949363EEB
:102C6B00414141227F4141413E7F494949417F09D1
:102C7B000909013E414151737F0808087F00417FDC
:102C8B0041002040413F017F081422417F404040DA
:102C9B00407F021C027F7F0408107F3E4141413E72
:102CAB007F090909063E4151215E7F0919294626F4
:102CBB004949493203017F01033F4040403F1F20F8
:102CCB0040201F3F4038403F6314081463030478CF
:102CDB0004036159494D43007F41414102040810EF
:102CEB0020004141417F040201020440404040402A
:102CFB00000307080020545478407F284444383898
:102D0B0044444428384444287F3854545418000809
:102D1B007E090218A4A49C787F0804047800447DE3
:102D2B0040002040403D007F1028440000417F4080
:102D3B00007C047804787C080404783844444438D4
:102D4B00FC1824241818242418FC7C0804040848B4
:102D5B005454542404043F44243C4040207C1C2005
:102D6B0040201C3C4030403C44281028444C909060
:102D7B00907C4464544C44000836410000007700BA
:102D8B0000004136080002010204023C2623263CC7
:102D9B001EA1A161123A4040207A38545455592152
:102DAB00555579412254547842215554784020543A
:102DBB005579400C1E527212395555555939545488
:102DCB00545939555454580000457C410002457DF7
:102DDB00420001457C407D1211127DF0282528F020
:102DEB007C545545002054547C547C0A097F49324D
:102DFB00494949323A4444443A324A4848303A41C4
:102E0B0041217A3A42402078009DA0A07D3D42426C
:102E1B00423D3D4040403D3C24FF2424487E4943F5
:102E2B00662B2FFC2F2BFF0929F620C0887E090368
:102E3B0020545479410000447D413048484A32388F
:102E4B004040227A007A0A0A727D0D19317D2629BB
:102E5B00292F28262929292630484D4020380808B3
:102E6B00080808080808382F10C8ACBA2F102834E7
:102E7B00FA00007B000008142A142222142A1408DA
:102E8B00AA005500AAAA55AA55AA000000FF0010D7
:102E9B001010FF00141414FF001010FF00FF10108F
:102EAB00F010F0141414FC001414F700FF0000FFD2
:102EBB0000FF1414F404FC141417101F10101F102F
:102ECB001F1414141F00101010F0000000001F102E
:102EDB001010101F10101010F010000000FF101039
:102EEB0010101010101010FF10000000FF14000045
:102EFB00FF00FF00001F10170000FC04F414141750
:102F0B0010171414F404F40000FF00F71414141435
:102F1B00141414F700F7141414171410101F101FA7
:102F2B00141414F4141010F010F000001F101F00F4
:102F3B0000001F14000000FC140000F010F0101033
:102F4B00FF10FF141414FF141010101F00000000CA
:102F5B00F010FFFFFFFFFFF0F0F0F0F0FFFFFF00BE
:102F6B0000000000FFFF0F0F0F0F0F3844443844D1
:102F7B00FC4A4A4A347E02020606027E027E026345
:102F8B00554941633844443C04407E201E200602D0
:102F9B007E020299A5E7A5991C2A492A1C4C7201AD
:102FAB00724C304A4D4D303048784830BC625A46EE
:102FBB003D3E494949007E0101017E2A2A2A2A2ADF
:102FCB0044445F444440514A444040444A514000C9
:102FDB0000FF0103E080FF000008086B6B0836124E
:102FEB00362436060F090F060000181800000010D3
:102FFB0010003040FF0101001F01011E00191D17B9
:10300B0012003C3C3C3C00000000003134374532A0
:10301B003538303336394641424344506172697416
:10302B00790A4572726F722E0055415254206461B9
:10303B0074610A72656365697665642E0A0A203EBF
:10304B003E20003A003078000A202020496E76613D
:10305B006C69640A0A0020202020496E7075740088
:10306B000A53656C65637420446174610A5479700A
:10307B00653A0A0A0028312920427974650A00282A
:10308B00322920576F72640A0028332920446F7548
:10309B00626C650A20202020576F72640A0A202078
:1030AB005F000A456E74657220446174610A53694E
:1030BB007A653A0A0A202030785F5F5F5F000A5713
:1030CB00726974696E6720307835350A746F2061C8
:1030DB006C6C0A65787465726E616C2052414D0A96
:1030EB006C6F636174696F6E732E0A0A0057726995
:1030FB0074650A636F6D706C6574652E0A000A56F1
:10310B006572696679696E6720616C6C0A52414D14
:10311B00206C6F636174696F6E730A657175616C96
:10312B0020307835352E0A0A003173742052414D08
:10313B0020636865636B0A756E7375636365737380
:10314B0066756C2E0A0A004572726F722061743AB2
:10315B000A003A2030780052657475726E696E679A
:10316B0020746F0A6D61696E206D656E752E00316E
:10317B0073742052414D20636865636B0A737563EA
:10318B006365737366756C2E0A0A000A577269744D
:10319B00696E6720307841410A746F20616C6C0A4C
:1031AB0065787465726E616C2052414D0A6C6F6369
:1031BB006174696F6E732E0A0A000A56657269662E
:1031CB0079696E6720616C6C0A52414D206C6F639C
:1031DB006174696F6E730A657175616C203078412B
:1031EB00412E0A0A00326E642052414D20636865FD
:1031FB00636B0A756E7375636365737366756C2E9B
:10320B000A0A00326E642052414D20636865636B7D
:10321B000A7375636365737366756C2E0A0A0052C5
:10322B00414D20636865636B0A636F6D706C6574E9
:10323B00652E0A0A000A456E74657220736F7572EB
:10324B0063650A7374617274696E672052414D0A2B
:10325B00616464726573733A0A0A0A202030785FDE
:10326B005F5F5F000A456E7465720A64657374690B
:10327B006E6174696F6E0A7374617274696E672024
:10328B0052414D0A616464726573733A0A0A0A20EB
:10329B002030785F5F5F5F000A4D6F766520636F4C
:1032AB006D706C6574652E0A0A000A456E74657242
:1032BB000A7374617274696E672052414D0A6164BE
:1032CB0064726573733A0A0A202030785F5F5F5F20
:1032DB00000A456E746572207365617263680A76C5
:1032EB00616C75653A0A0A202030785F5F000A30FE
:1032FB00780020666F756E640A003078313030309C
:10330B0030000A74696D65732E00206E6F740A6647
:10331B006F756E6420696E0A65787465726E616C88
:10332B002052414D0A00202D0A000A00202028308F
:10333B0029202D204E65787420506167650A202066
:10334B00283129202D205072657620506167650A3F
:10335B002020284529202D20454E440A000A456E81
:10336B0064206F6620446174612E00456E64206F8B
:10337B00662044617461000A52657475726E696EE1
:10338B006720746F0A4D61696E204D656E752E0056
:10339B000A456E74657220736F757263650A737478
:1033AB00617274696E672052414D0A616464726583
:1033BB0073733A0A0A202030785F5F5F5F000A0A56
:1033CB004E65772076616C75653A0A202030785F00
:1033DB005F000A0A0A0A2831292045646974206EA5
:1033EB006578740A52414D206C6F636174696F6E1E
:1033FB000A0A0028452920456E64000A456E6420A0
:10340B006F6620646174612E0A000A5265747572CE
:10341B006E696E6720746F0A6D61696E206D656EE3
:10342B00752E00206E6F740A666F756E6420696E60
:10343B000A616464726573732072616E67650A0A50
:10344B000020666F756E642061740A74686520666F
:10345B006F6C6C6F77696E670A6164647265737306
:10346B0065733A0A0A00456E64206F6620446174E6
:10347B00612E000A456E7465720A73746172746909
:10348B006E672052414D0A616464726573733A0A28
:10349B000A20202030785F5F5F5F000A456E7465FD
:1034AB0072207365617263680A76616C75653A0A9E
:1034BB000A20202030785F5F000A28312920313222
:1034CB0030300A0028322920323430300A002833B9
:1034DB002920343830300A0028342920393630304E
:1034EB000A002835292031393230300A0A00437559
:1034FB007272656E743A0A0031393230300A004903
:10350B006E76616C69640A00313230300A003234F5
:10351B0030300A00343830300A00393630300A0087
:10352B000A2020205F00310A00320A00330A0034DF
:10353B000A00350A00580A000A4461746120426986
:10354B0074730A0A0028312920380A0028322920EE
:10355B00390A000A43757272656E743A2000380A94
:10356B0000390A000A5061726974790A0A0028311D
:10357B0029204576656E0A00283229204F64640A9B
:10358B0000283329204E6F6E650A004576656E0A5A
:10359B00004F64640A004E6F6E650A000A456E7434
:1035AB0065720A6368617261637465720A746F2075
:1035BB0073656E643A0A0A2020205F000A283129BD
:1035CB0020446174612052617465000A28322920FD
:1035DB0023206F6620446174610A202020204269F9
:1035EB007473000A28332920506172697479000AB8
:1035FB002834292053656E642044617461000A28C5
:10360B00452920456E640A000A0A0A426175643A2C
:10361B0020202000313932303000496E76616C69E0
:10362B0064003132303000323430300034383030D6
:10363B000039363030000A426974733A202020007A
:10364B00380039000A5061726974793A2000457666
:10365B00656E004F6464004E6F6E65002020204342
:10366B00616D65726F6E0A20202042696E69616D13
:10367B006F770A0020204543454E2D343333300AF3
:10368B000A002841292052414D20434845434B0A0B
:10369B0000284229204D4F56450A00284329204334
:1036AB004F554E540A002844292044554D500A00CA
:1036BB0028452920454449540A00284629204649D3
:1036CB004E440A0028312920554152540A005370A8
:0A36DB0072696E6720323032310050
:102A68007A10E4FBFCE58225E0F582E58333F58303
:102A7800EB33FBEC33FCEB9508F5F0EC95094006DD
:092A8800FCABF0438201DADD220F
:06005800E478FFF6D8FD7C
:100036007900E94400601B7A009036E5780175A0E6
:1000460000E493F2A308B8000205A0D9F4DAF27529
:02005600A0FF09
:102A9100E5828508F0A4C582C0F08509F0A4D0F0D4
:102AA10025F0C5838508F0A42583F58322E5084533
:102AB1000960467A01E50825E0F508E50933401289
:102AC100F509E5829508E583950940030A80E6C387
:102AD100E50913F509E50813F508C3E5829508F53D
:102AE100F0E58395094005F58385F082C3E5091377
:0A2AF100F509E50813F508DAE12203
:10005E007800E84400600A790175A000E4F309D83D
:10006E00FC7800E84400600C7900900001E4F0A3F5
:04007E00D8FCD9FAD7
:0D00290075817F122B17E58260030200260F
:102AFB0020F71430F6148883A88220F507E6A88304
:102B0B0075830022E280F7E49322E0227582002293
:00000001FF
